{
  "contractName": "DemocraticBallot",
  "abi": [
    {
      "inputs": [],
      "payable": false,
      "stateMutability": "nonpayable",
      "type": "constructor"
    },
    {
      "constant": true,
      "inputs": [],
      "name": "oracle",
      "outputs": [
        {
          "internalType": "address",
          "name": "",
          "type": "address"
        }
      ],
      "payable": false,
      "stateMutability": "view",
      "type": "function"
    },
    {
      "constant": true,
      "inputs": [
        {
          "internalType": "uint256",
          "name": "",
          "type": "uint256"
        }
      ],
      "name": "polls",
      "outputs": [
        {
          "internalType": "string",
          "name": "pullRequestLink",
          "type": "string"
        },
        {
          "internalType": "string",
          "name": "pullRequestId",
          "type": "string"
        },
        {
          "internalType": "string",
          "name": "hostingplatform",
          "type": "string"
        },
        {
          "internalType": "string",
          "name": "title",
          "type": "string"
        },
        {
          "internalType": "string",
          "name": "description",
          "type": "string"
        },
        {
          "internalType": "uint256",
          "name": "voteEnd",
          "type": "uint256"
        },
        {
          "internalType": "bool",
          "name": "isTransferd",
          "type": "bool"
        },
        {
          "internalType": "uint256",
          "name": "votersApproveCount",
          "type": "uint256"
        },
        {
          "internalType": "uint256",
          "name": "votersDenyCount",
          "type": "uint256"
        }
      ],
      "payable": false,
      "stateMutability": "view",
      "type": "function"
    },
    {
      "constant": false,
      "inputs": [
        {
          "internalType": "string",
          "name": "_pullRequestLink",
          "type": "string"
        },
        {
          "internalType": "string",
          "name": "_pullRequestId",
          "type": "string"
        },
        {
          "internalType": "string",
          "name": "_hostingplatform",
          "type": "string"
        },
        {
          "internalType": "string",
          "name": "_title",
          "type": "string"
        },
        {
          "internalType": "string",
          "name": "_description",
          "type": "string"
        },
        {
          "internalType": "uint256",
          "name": "_voteEnd",
          "type": "uint256"
        }
      ],
      "name": "submitNewPoll",
      "outputs": [],
      "payable": false,
      "stateMutability": "nonpayable",
      "type": "function"
    },
    {
      "constant": true,
      "inputs": [
        {
          "internalType": "uint256",
          "name": "voteindex",
          "type": "uint256"
        }
      ],
      "name": "getVotersApprove",
      "outputs": [
        {
          "internalType": "address[]",
          "name": "",
          "type": "address[]"
        }
      ],
      "payable": false,
      "stateMutability": "view",
      "type": "function"
    },
    {
      "constant": true,
      "inputs": [
        {
          "internalType": "uint256",
          "name": "voteindex",
          "type": "uint256"
        }
      ],
      "name": "getVotersDeny",
      "outputs": [
        {
          "internalType": "address[]",
          "name": "",
          "type": "address[]"
        }
      ],
      "payable": false,
      "stateMutability": "view",
      "type": "function"
    },
    {
      "constant": false,
      "inputs": [
        {
          "internalType": "uint256",
          "name": "key",
          "type": "uint256"
        },
        {
          "internalType": "bool",
          "name": "approve",
          "type": "bool"
        },
        {
          "internalType": "address",
          "name": "voter",
          "type": "address"
        }
      ],
      "name": "voteFake",
      "outputs": [],
      "payable": false,
      "stateMutability": "nonpayable",
      "type": "function"
    },
    {
      "constant": false,
      "inputs": [
        {
          "internalType": "uint256",
          "name": "key",
          "type": "uint256"
        },
        {
          "internalType": "bool",
          "name": "approve",
          "type": "bool"
        }
      ],
      "name": "vote",
      "outputs": [],
      "payable": false,
      "stateMutability": "nonpayable",
      "type": "function"
    },
    {
      "constant": true,
      "inputs": [],
      "name": "getNextVoteFinishedButUntransfered",
      "outputs": [
        {
          "internalType": "uint256",
          "name": "",
          "type": "uint256"
        }
      ],
      "payable": false,
      "stateMutability": "view",
      "type": "function"
    },
    {
      "constant": true,
      "inputs": [],
      "name": "getPollLength",
      "outputs": [
        {
          "internalType": "uint256",
          "name": "",
          "type": "uint256"
        }
      ],
      "payable": false,
      "stateMutability": "view",
      "type": "function"
    },
    {
      "constant": false,
      "inputs": [
        {
          "internalType": "string",
          "name": "_pullRequestId",
          "type": "string"
        },
        {
          "internalType": "string",
          "name": "_hostingplatform",
          "type": "string"
        }
      ],
      "name": "appliedOnHostingPlatform",
      "outputs": [],
      "payable": false,
      "stateMutability": "nonpayable",
      "type": "function"
    },
    {
      "constant": false,
      "inputs": [
        {
          "internalType": "uint256",
          "name": "pollKey",
          "type": "uint256"
        }
      ],
      "name": "appliedOnHostingPlatform",
      "outputs": [],
      "payable": false,
      "stateMutability": "nonpayable",
      "type": "function"
    },
    {
      "constant": true,
      "inputs": [
        {
          "internalType": "string",
          "name": "_pullRequestId",
          "type": "string"
        },
        {
          "internalType": "string",
          "name": "_hostingplatform",
          "type": "string"
        }
      ],
      "name": "getPollIndex",
      "outputs": [
        {
          "internalType": "uint256",
          "name": "",
          "type": "uint256"
        }
      ],
      "payable": false,
      "stateMutability": "view",
      "type": "function"
    },
    {
      "constant": true,
      "inputs": [
        {
          "internalType": "uint256",
          "name": "key",
          "type": "uint256"
        }
      ],
      "name": "getVotingResult",
      "outputs": [
        {
          "internalType": "bool",
          "name": "",
          "type": "bool"
        }
      ],
      "payable": false,
      "stateMutability": "view",
      "type": "function"
    },
    {
      "constant": true,
      "inputs": [
        {
          "internalType": "string",
          "name": "_pullRequestId",
          "type": "string"
        },
        {
          "internalType": "string",
          "name": "_hostingplatform",
          "type": "string"
        }
      ],
      "name": "getVotingResult",
      "outputs": [
        {
          "internalType": "bool",
          "name": "",
          "type": "bool"
        }
      ],
      "payable": false,
      "stateMutability": "view",
      "type": "function"
    },
    {
      "constant": true,
      "inputs": [],
      "name": "helloWorld",
      "outputs": [
        {
          "internalType": "string",
          "name": "",
          "type": "string"
        }
      ],
      "payable": false,
      "stateMutability": "pure",
      "type": "function"
    },
    {
      "constant": false,
      "inputs": [],
      "name": "activateProduction",
      "outputs": [],
      "payable": false,
      "stateMutability": "nonpayable",
      "type": "function"
    }
  ],
  "bytecode": "0x60806040523480156200001157600080fd5b5060018060006101000a81548160ff021916908315150217905550336001806101000a81548173ffffffffffffffffffffffffffffffffffffffff021916908373ffffffffffffffffffffffffffffffffffffffff1602179055506000604051806101200160405280604051806020016040528060008152508152602001604051806020016040528060008152508152602001604051806020016040528060008152508152602001604051806020016040528060008152508152602001604051806020016040528060008152508152602001600081526020016001151581526020016000815260200160008152509080600181540180825580915050906001820390600052602060002090600d0201600090919290919091506000820151816000019080519060200190620001489291906200020d565b506020820151816001019080519060200190620001679291906200020d565b506040820151816002019080519060200190620001869291906200020d565b506060820151816003019080519060200190620001a59291906200020d565b506080820151816004019080519060200190620001c49291906200020d565b5060a0820151816005015560c08201518160060160006101000a81548160ff02191690831515021790555060e0820151816007015561010082015181600a0155505050620002bc565b828054600181600116156101000203166002900490600052602060002090601f016020900481019282601f106200025057805160ff191683800117855562000281565b8280016001018555821562000281579182015b828111156200028057825182559160200191906001019062000263565b5b50905062000290919062000294565b5090565b620002b991905b80821115620002b55760008160009055506001016200029b565b5090565b90565b612fe680620002cc6000396000f3fe608060405234801561001057600080fd5b50600436106101005760003560e01c80638e86c49a11610097578063c0e7df0a11610066578063c0e7df0a14610b9f578063c605f76c14610bbd578063c9d27afe14610c40578063f09ef6e914610c7a57610100565b80638e86c49a1461072557806390de092f146107a8578063a34b9da3146108fa578063ac2f00741461092857610100565b806355fe24e3116100d357806355fe24e3146102465780637dc0d1d0146102505780637dc131e21461029a57806389083355146105bb57610100565b80631c0d850e1461010557806327a52f1c1461014b578063331d9fde146101a557806351a4fb71146101c3575b600080fd5b6101316004803603602081101561011b57600080fd5b8101908080359060200190929190505050610de0565b604051808215151515815260200191505060405180910390f35b6101a36004803603606081101561016157600080fd5b8101908080359060200190929190803515159060200190929190803573ffffffffffffffffffffffffffffffffffffffff169060200190929190505050611239565b005b6101ad611303565b6040518082815260200191505060405180910390f35b6101ef600480360360208110156101d957600080fd5b81019080803590602001909291905050506117ad565b6040518080602001828103825283818151815260200191508051906020019060200280838360005b83811015610232578082015181840152602081019050610217565b505050509050019250505060405180910390f35b61024e61197f565b005b610258611a01565b604051808273ffffffffffffffffffffffffffffffffffffffff1673ffffffffffffffffffffffffffffffffffffffff16815260200191505060405180910390f35b6105b9600480360360c08110156102b057600080fd5b81019080803590602001906401000000008111156102cd57600080fd5b8201836020820111156102df57600080fd5b8035906020019184600183028401116401000000008311171561030157600080fd5b91908080601f016020809104026020016040519081016040528093929190818152602001838380828437600081840152601f19601f8201169050808301925050505050505091929192908035906020019064010000000081111561036457600080fd5b82018360208201111561037657600080fd5b8035906020019184600183028401116401000000008311171561039857600080fd5b91908080601f016020809104026020016040519081016040528093929190818152602001838380828437600081840152601f19601f820116905080830192505050505050509192919290803590602001906401000000008111156103fb57600080fd5b82018360208201111561040d57600080fd5b8035906020019184600183028401116401000000008311171561042f57600080fd5b91908080601f016020809104026020016040519081016040528093929190818152602001838380828437600081840152601f19601f8201169050808301925050505050505091929192908035906020019064010000000081111561049257600080fd5b8201836020820111156104a457600080fd5b803590602001918460018302840111640100000000831117156104c657600080fd5b91908080601f016020809104026020016040519081016040528093929190818152602001838380828437600081840152601f19601f8201169050808301925050505050505091929192908035906020019064010000000081111561052957600080fd5b82018360208201111561053b57600080fd5b8035906020019184600183028401116401000000008311171561055d57600080fd5b91908080601f016020809104026020016040519081016040528093929190818152602001838380828437600081840152601f19601f82011690508083019250505050505050919291929080359060200190929190505050611a26565b005b61070b600480360360408110156105d157600080fd5b81019080803590602001906401000000008111156105ee57600080fd5b82018360208201111561060057600080fd5b8035906020019184600183028401116401000000008311171561062257600080fd5b91908080601f016020809104026020016040519081016040528093929190818152602001838380828437600081840152601f19601f8201169050808301925050505050505091929192908035906020019064010000000081111561068557600080fd5b82018360208201111561069757600080fd5b803590602001918460018302840111640100000000831117156106b957600080fd5b91908080601f016020809104026020016040519081016040528093929190818152602001838380828437600081840152601f19601f820116905080830192505050505050509192919290505050611dff565b604051808215151515815260200191505060405180910390f35b6107516004803603602081101561073b57600080fd5b8101908080359060200190929190505050611e1b565b6040518080602001828103825283818151815260200191508051906020019060200280838360005b83811015610794578082015181840152602081019050610779565b505050509050019250505060405180910390f35b6108f8600480360360408110156107be57600080fd5b81019080803590602001906401000000008111156107db57600080fd5b8201836020820111156107ed57600080fd5b8035906020019184600183028401116401000000008311171561080f57600080fd5b91908080601f016020809104026020016040519081016040528093929190818152602001838380828437600081840152601f19601f8201169050808301925050505050505091929192908035906020019064010000000081111561087257600080fd5b82018360208201111561088457600080fd5b803590602001918460018302840111640100000000831117156108a657600080fd5b91908080601f016020809104026020016040519081016040528093929190818152602001838380828437600081840152601f19601f820116905080830192505050505050509192919290505050611fed565b005b6109266004803603602081101561091057600080fd5b8101908080359060200190929190505050612003565b005b6109546004803603602081101561093e57600080fd5b81019080803590602001909291905050506121b5565b6040518080602001806020018060200180602001806020018a81526020018915151515815260200188815260200187815260200186810386528f818151815260200191508051906020019080838360005b838110156109c05780820151818401526020810190506109a5565b50505050905090810190601f1680156109ed5780820380516001836020036101000a031916815260200191505b5086810385528e818151815260200191508051906020019080838360005b83811015610a26578082015181840152602081019050610a0b565b50505050905090810190601f168015610a535780820380516001836020036101000a031916815260200191505b5086810384528d818151815260200191508051906020019080838360005b83811015610a8c578082015181840152602081019050610a71565b50505050905090810190601f168015610ab95780820380516001836020036101000a031916815260200191505b5086810383528c818151815260200191508051906020019080838360005b83811015610af2578082015181840152602081019050610ad7565b50505050905090810190601f168015610b1f5780820380516001836020036101000a031916815260200191505b5086810382528b818151815260200191508051906020019080838360005b83811015610b58578082015181840152602081019050610b3d565b50505050905090810190601f168015610b855780820380516001836020036101000a031916815260200191505b509e50505050505050505050505050505060405180910390f35b610ba7612515565b6040518082815260200191505060405180910390f35b610bc5612521565b6040518080602001828103825283818151815260200191508051906020019080838360005b83811015610c05578082015181840152602081019050610bea565b50505050905090810190601f168015610c325780820380516001836020036101000a031916815260200191505b509250505060405180910390f35b610c7860048036036040811015610c5657600080fd5b810190808035906020019092919080351515906020019092919050505061255e565b005b610dca60048036036040811015610c9057600080fd5b8101908080359060200190640100000000811115610cad57600080fd5b820183602082011115610cbf57600080fd5b80359060200191846001830284011164010000000083111715610ce157600080fd5b91908080601f016020809104026020016040519081016040528093929190818152602001838380828437600081840152601f19601f82011690508083019250505050505050919291929080359060200190640100000000811115610d4457600080fd5b820183602082011115610d5657600080fd5b80359060200191846001830284011164010000000083111715610d7857600080fd5b91908080601f016020809104026020016040519081016040528093929190818152602001838380828437600081840152601f19601f82011690508083019250505050505050919291929050505061256d565b6040518082815260200191505060405180910390f35b60008060008381548110610df057fe5b90600052602060002090600d020190506000816005015411610e5d576040517f08c379a0000000000000000000000000000000000000000000000000000000008152600401808060200182810382526026815260200180612e326026913960400191505060405180910390fd5b42816005015410610eb9576040517f08c379a0000000000000000000000000000000000000000000000000000000008152600401808060200182810382526021815260200180612e586021913960400191505060405180910390fd5b6112318160405180610120016040529081600082018054600181600116156101000203166002900480601f016020809104026020016040519081016040528092919081815260200182805460018160011615610100020316600290048015610f625780601f10610f3757610100808354040283529160200191610f62565b820191906000526020600020905b815481529060010190602001808311610f4557829003601f168201915b50505050508152602001600182018054600181600116156101000203166002900480601f0160208091040260200160405190810160405280929190818152602001828054600181600116156101000203166002900480156110045780601f10610fd957610100808354040283529160200191611004565b820191906000526020600020905b815481529060010190602001808311610fe757829003601f168201915b50505050508152602001600282018054600181600116156101000203166002900480601f0160208091040260200160405190810160405280929190818152602001828054600181600116156101000203166002900480156110a65780601f1061107b576101008083540402835291602001916110a6565b820191906000526020600020905b81548152906001019060200180831161108957829003601f168201915b50505050508152602001600382018054600181600116156101000203166002900480601f0160208091040260200160405190810160405280929190818152602001828054600181600116156101000203166002900480156111485780601f1061111d57610100808354040283529160200191611148565b820191906000526020600020905b81548152906001019060200180831161112b57829003601f168201915b50505050508152602001600482018054600181600116156101000203166002900480601f0160208091040260200160405190810160405280929190818152602001828054600181600116156101000203166002900480156111ea5780601f106111bf576101008083540402835291602001916111ea565b820191906000526020600020905b8154815290600101906020018083116111cd57829003601f168201915b50505050508152602001600582015481526020016006820160009054906101000a900460ff1615151515815260200160078201548152602001600a82015481525050612721565b915050919050565b600160009054906101000a900460ff166112f3576001809054906101000a900473ffffffffffffffffffffffffffffffffffffffff1673ffffffffffffffffffffffffffffffffffffffff163373ffffffffffffffffffffffffffffffffffffffff16146112f2576040517f08c379a0000000000000000000000000000000000000000000000000000000008152600401808060200182810382526035815260200180612ea46035913960400191505060405180910390fd5b5b6112fe838383612736565b505050565b6000600160009054906101000a900460ff166113bf576001809054906101000a900473ffffffffffffffffffffffffffffffffffffffff1673ffffffffffffffffffffffffffffffffffffffff163373ffffffffffffffffffffffffffffffffffffffff16146113be576040517f08c379a0000000000000000000000000000000000000000000000000000000008152600401808060200182810382526035815260200180612ea46035913960400191505060405180910390fd5b5b6000429050600060016000805490500390505b60008111156117a3576113e3612ccb565b600082815481106113f057fe5b90600052602060002090600d020160405180610120016040529081600082018054600181600116156101000203166002900480601f0160208091040260200160405190810160405280929190818152602001828054600181600116156101000203166002900480156114a35780601f10611478576101008083540402835291602001916114a3565b820191906000526020600020905b81548152906001019060200180831161148657829003601f168201915b50505050508152602001600182018054600181600116156101000203166002900480601f0160208091040260200160405190810160405280929190818152602001828054600181600116156101000203166002900480156115455780601f1061151a57610100808354040283529160200191611545565b820191906000526020600020905b81548152906001019060200180831161152857829003601f168201915b50505050508152602001600282018054600181600116156101000203166002900480601f0160208091040260200160405190810160405280929190818152602001828054600181600116156101000203166002900480156115e75780601f106115bc576101008083540402835291602001916115e7565b820191906000526020600020905b8154815290600101906020018083116115ca57829003601f168201915b50505050508152602001600382018054600181600116156101000203166002900480601f0160208091040260200160405190810160405280929190818152602001828054600181600116156101000203166002900480156116895780601f1061165e57610100808354040283529160200191611689565b820191906000526020600020905b81548152906001019060200180831161166c57829003601f168201915b50505050508152602001600482018054600181600116156101000203166002900480601f01602080910402602001604051908101604052809291908181526020018280546001816001161561010002031660029004801561172b5780601f106117005761010080835404028352916020019161172b565b820191906000526020600020905b81548152906001019060200180831161170e57829003601f168201915b50505050508152602001600582015481526020016006820160009054906101000a900460ff1615151515815260200160078201548152602001600a820154815250509050828160a0015110801561178457508060c00151155b15611794578193505050506117aa565b508080600190039150506113d2565b5060009150505b90565b606060008083815481106117bd57fe5b90600052602060002090600d020190506000816005015411611847576040517f08c379a000000000000000000000000000000000000000000000000000000000815260040180806020018281038252601e8152602001807f564f54453a2054686520766f746520646f6573206e6f742065786973742e000081525060200191505060405180910390fd5b6060816007015460405190808252806020026020018201604052801561187c5781602001602082028038833980820191505090505b50905060006001809054906101000a900473ffffffffffffffffffffffffffffffffffffffff1690506000809050600090505b8360070154811015611973578360080160008373ffffffffffffffffffffffffffffffffffffffff1673ffffffffffffffffffffffffffffffffffffffff16815260200190815260200160002060009054906101000a900473ffffffffffffffffffffffffffffffffffffffff1691508183828151811061192c57fe5b602002602001019073ffffffffffffffffffffffffffffffffffffffff16908173ffffffffffffffffffffffffffffffffffffffff168152505080806001019150506118af565b82945050505050919050565b600160009054906101000a900460ff166119e4576040517f08c379a0000000000000000000000000000000000000000000000000000000008152600401808060200182810382526028815260200180612dbf6028913960400191505060405180910390fd5b6000600160006101000a81548160ff021916908315150217905550565b6001809054906101000a900473ffffffffffffffffffffffffffffffffffffffff1681565b600160009054906101000a900460ff16611ae0576001809054906101000a900473ffffffffffffffffffffffffffffffffffffffff1673ffffffffffffffffffffffffffffffffffffffff163373ffffffffffffffffffffffffffffffffffffffff1614611adf576040517f08c379a0000000000000000000000000000000000000000000000000000000008152600401808060200182810382526035815260200180612ea46035913960400191505060405180910390fd5b5b6000865111611b3a576040517f08c379a0000000000000000000000000000000000000000000000000000000008152600401808060200182810382526024815260200180612ed96024913960400191505060405180910390fd5b6000835111611b94576040517f08c379a0000000000000000000000000000000000000000000000000000000008152600401808060200182810382526025815260200180612de76025913960400191505060405180910390fd5b6000825111611bee576040517f08c379a000000000000000000000000000000000000000000000000000000000815260040180806020018281038252602b815260200180612e79602b913960400191505060405180910390fd5b428111611c46576040517f08c379a0000000000000000000000000000000000000000000000000000000008152600401808060200182810382526034815260200180612f206034913960400191505060405180910390fd5b6000611c528686612bd4565b90506000816005015414611cb1576040517f08c379a000000000000000000000000000000000000000000000000000000000815260040180806020018281038252602d815260200180612f85602d913960400191505060405180910390fd5b60006040518061012001604052808981526020018881526020018781526020018681526020018581526020018481526020016000151581526020016000815260200160008152509080600181540180825580915050906001820390600052602060002090600d0201600090919290919091506000820151816000019080519060200190611d3f929190612d19565b506020820151816001019080519060200190611d5c929190612d19565b506040820151816002019080519060200190611d79929190612d19565b506060820151816003019080519060200190611d96929190612d19565b506080820151816004019080519060200190611db3929190612d19565b5060a0820151816005015560c08201518160060160006101000a81548160ff02191690831515021790555060e0820151816007015561010082015181600a015550505050505050505050565b6000611e13611e0e848461256d565b610de0565b905092915050565b60606000808381548110611e2b57fe5b90600052602060002090600d020190506000816005015411611eb5576040517f08c379a000000000000000000000000000000000000000000000000000000000815260040180806020018281038252601e8152602001807f564f54453a2054686520766f746520646f6573206e6f742065786973742e000081525060200191505060405180910390fd5b606081600a0154604051908082528060200260200182016040528015611eea5781602001602082028038833980820191505090505b50905060006001809054906101000a900473ffffffffffffffffffffffffffffffffffffffff1690506000809050600090505b83600a0154811015611fe15783600b0160008373ffffffffffffffffffffffffffffffffffffffff1673ffffffffffffffffffffffffffffffffffffffff16815260200190815260200160002060009054906101000a900473ffffffffffffffffffffffffffffffffffffffff16915081838281518110611f9a57fe5b602002602001019073ffffffffffffffffffffffffffffffffffffffff16908173ffffffffffffffffffffffffffffffffffffffff16815250508080600101915050611f1d565b82945050505050919050565b611fff611ffa838361256d565b612003565b5050565b600160009054906101000a900460ff166120bd576001809054906101000a900473ffffffffffffffffffffffffffffffffffffffff1673ffffffffffffffffffffffffffffffffffffffff163373ffffffffffffffffffffffffffffffffffffffff16146120bc576040517f08c379a0000000000000000000000000000000000000000000000000000000008152600401808060200182810382526031815260200180612f546031913960400191505060405180910390fd5b5b60008082815481106120cb57fe5b90600052602060002090600d020190506000816005015411612138576040517f08c379a0000000000000000000000000000000000000000000000000000000008152600401808060200182810382526026815260200180612e326026913960400191505060405180910390fd5b42816005015410612194576040517f08c379a0000000000000000000000000000000000000000000000000000000008152600401808060200182810382526021815260200180612e586021913960400191505060405180910390fd5b60018160060160006101000a81548160ff0219169083151502179055505050565b600081815481106121c257fe5b90600052602060002090600d0201600091509050806000018054600181600116156101000203166002900480601f01602080910402602001604051908101604052809291908181526020018280546001816001161561010002031660029004801561226e5780601f106122435761010080835404028352916020019161226e565b820191906000526020600020905b81548152906001019060200180831161225157829003601f168201915b505050505090806001018054600181600116156101000203166002900480601f01602080910402602001604051908101604052809291908181526020018280546001816001161561010002031660029004801561230c5780601f106122e15761010080835404028352916020019161230c565b820191906000526020600020905b8154815290600101906020018083116122ef57829003601f168201915b505050505090806002018054600181600116156101000203166002900480601f0160208091040260200160405190810160405280929190818152602001828054600181600116156101000203166002900480156123aa5780601f1061237f576101008083540402835291602001916123aa565b820191906000526020600020905b81548152906001019060200180831161238d57829003601f168201915b505050505090806003018054600181600116156101000203166002900480601f0160208091040260200160405190810160405280929190818152602001828054600181600116156101000203166002900480156124485780601f1061241d57610100808354040283529160200191612448565b820191906000526020600020905b81548152906001019060200180831161242b57829003601f168201915b505050505090806004018054600181600116156101000203166002900480601f0160208091040260200160405190810160405280929190818152602001828054600181600116156101000203166002900480156124e65780601f106124bb576101008083540402835291602001916124e6565b820191906000526020600020905b8154815290600101906020018083116124c957829003601f168201915b5050505050908060050154908060060160009054906101000a900460ff169080600701549080600a0154905089565b60008080549050905090565b60606040518060400160405280601f81526020017f564f54453a2048656c6c6f20576f726c642066726f6d20536f6c696469747900815250905090565b612569828233612736565b5050565b60008060016000805490500390505b600081111561271557600080828154811061259357fe5b90600052602060002090600d02019050612649816001018054600181600116156101000203166002900480601f01602080910402602001604051908101604052809291908181526020018280546001816001161561010002031660029004801561263e5780601f106126135761010080835404028352916020019161263e565b820191906000526020600020905b81548152906001019060200180831161262157829003601f168201915b505050505086612c01565b80156126f757506126f6816002018054600181600116156101000203166002900480601f0160208091040260200160405190810160405280929190818152602001828054600181600116156101000203166002900480156126eb5780601f106126c0576101008083540402835291602001916126eb565b820191906000526020600020905b8154815290600101906020018083116126ce57829003601f168201915b505050505085612c01565b5b1561270657819250505061271b565b5080806001900391505061257c565b50600090505b92915050565b60008161010001518260e00151119050919050565b600080848154811061274457fe5b90600052602060002090600d0201905060008160050154116127b1576040517f08c379a0000000000000000000000000000000000000000000000000000000008152600401808060200182810382526026815260200180612e0c6026913960400191505060405180910390fd5b4281600501541161282a576040517f08c379a00000000000000000000000000000000000000000000000000000000081526004018080602001828103825260168152602001807f564f54453a2054686520706f6c6c20657870697265640000000000000000000081525060200191505060405180910390fd5b6128348183612c1c565b1561288a576040517f08c379a0000000000000000000000000000000000000000000000000000000008152600401808060200182810382526023815260200180612efd6023913960400191505060405180910390fd5b8215612a315760006001809054906101000a900473ffffffffffffffffffffffffffffffffffffffff1690506000809050600090505b826007015481101561293d578260080160008373ffffffffffffffffffffffffffffffffffffffff1673ffffffffffffffffffffffffffffffffffffffff16815260200190815260200160002060009054906101000a900473ffffffffffffffffffffffffffffffffffffffff16915080806001019150506128c0565b6001836007016000828254019250508190555060018360090160008673ffffffffffffffffffffffffffffffffffffffff1673ffffffffffffffffffffffffffffffffffffffff16815260200190815260200160002060006101000a81548160ff021916908315150217905550838360080160008473ffffffffffffffffffffffffffffffffffffffff1673ffffffffffffffffffffffffffffffffffffffff16815260200190815260200160002060006101000a81548173ffffffffffffffffffffffffffffffffffffffff021916908373ffffffffffffffffffffffffffffffffffffffff1602179055505050612bce565b60006001809054906101000a900473ffffffffffffffffffffffffffffffffffffffff1690506000809050600090505b82600a0154811015612ade5782600b0160008373ffffffffffffffffffffffffffffffffffffffff1673ffffffffffffffffffffffffffffffffffffffff16815260200190815260200160002060009054906101000a900473ffffffffffffffffffffffffffffffffffffffff1691508080600101915050612a61565b600183600a0160008282540192505081905550600183600c0160008673ffffffffffffffffffffffffffffffffffffffff1673ffffffffffffffffffffffffffffffffffffffff16815260200190815260200160002060006101000a81548160ff0219169083151502179055508383600b0160008473ffffffffffffffffffffffffffffffffffffffff1673ffffffffffffffffffffffffffffffffffffffff16815260200190815260200160002060006101000a81548173ffffffffffffffffffffffffffffffffffffffff021916908373ffffffffffffffffffffffffffffffffffffffff16021790555050505b50505050565b600080612be1848461256d565b81548110612beb57fe5b90600052602060002090600d0201905092915050565b60008180519060200120838051906020012014905092915050565b600082600c0160008373ffffffffffffffffffffffffffffffffffffffff1673ffffffffffffffffffffffffffffffffffffffff16815260200190815260200160002060009054906101000a900460ff1680612cc357508260090160008373ffffffffffffffffffffffffffffffffffffffff1673ffffffffffffffffffffffffffffffffffffffff16815260200190815260200160002060009054906101000a900460ff165b905092915050565b60405180610120016040528060608152602001606081526020016060815260200160608152602001606081526020016000815260200160001515815260200160008152602001600081525090565b828054600181600116156101000203166002900490600052602060002090601f016020900481019282601f10612d5a57805160ff1916838001178555612d88565b82800160010185558215612d88579182015b82811115612d87578251825591602001919060010190612d6c565b5b509050612d959190612d99565b5090565b612dbb91905b80821115612db7576000816000905550600101612d9f565b5090565b9056fe564f54453a2050726f64756374696f6e204d6f646520697320616c7265616479206163746976652e564f54453a20546865207469746c65206e6565647320746f2062652070726f76696465642e564f54453a2054686520726571756972656420706f6c6c20646f6573206e6f74206578697374564f54453a205468652070756c6c207265717565737420646f6573206e6f742065786973742e564f54453a205468652070756c6c20686173206e6f7420656e646564207965742e564f54453a20546865206465736372697074696f6e206e6565647320746f2062652070726f76696465642e564f54453a204f6e6c7920746865206f7261636c652063616e207472616e73666572206e65772070756c6c2072657175657374732e564f54453a20546865206c696e6b206e6565647320746f2062652070726f76696465642e564f54453a20596f75206861766520616c726561647920766f746564206265666f7265564f54453a2054686520656e64206f662074686520766f7465206e6565647320746f20626520696e20746865206675747572652e564f54453a204f6e6c7920746865206f7261636c6520697320616c6c6f77656420746f20706572666f726d20746869732e564f54453a205468652070756c6c207265717565737420697320616c7265616479207472616e7366657265642ea265627a7a72315820ca2d89a86e76eb63539d836b055d49fb4f2dd8004f31b84608209e9cfef29f6564736f6c63430005100032",
  "source": "pragma solidity >=0.4.22 <0.7.0;\r\n\r\n\r\n/**\r\nSmart Contract for the Project https://github.com/flensburger88/DemocraticVotes\r\n */\r\ncontract DemocraticBallot {\r\n\r\n    /**\r\n     * @dev a poll defines the decision and voting state of a pull request. It stores all information of the poll itself\r\n\r\n     */\r\n     struct Poll {\r\n        string pullRequestLink;  // link to the pull request on the hosting provider web ui\r\n        string pullRequestId;    // technical id of the pull request on the hosting platform\r\n        string hostingplatform;  // the name of the hosting platform, where the pull request is happening\r\n        string title;            // title of the poll / title of the pull request\r\n        string description;      // description of the poll / text of the pull request\r\n        uint voteEnd;            // timepoint of the vote to end\r\n        bool isTransferd ;       // specifies, if the pull request is already applied on the hosting platform\r\n\r\n        uint votersApproveCount; // counts the amount of voters who approve the pull request\r\n\t\tmapping(address => address) votersApproveList; // all voters, which approved the vote in a linked list\r\n        mapping(address => bool) votersApprove; // all the voters, who denied the pull request\r\n\r\n        uint votersDenyCount;   // counts the amount of voters who deny the pull request\r\n\t\tmapping(address => address) votersDenyList; // all voters, which denied the vote in a linked list\r\n        mapping(address => bool) votersDeny; // all the voters, who approved the pull request\r\n\r\n    }\r\n\r\n    /**\r\n     * @dev contains all polls that are executed during the livetime of this smart contract\r\n     * @dev Index 0 is the default empty poll. Defined in constructor\r\n     */\r\n    Poll[] public polls;\r\n\r\n    bool internal devMode;\r\n\r\n    /**\r\n     * @dev Defines the oracle account. Its the only account with more privilidges\r\n     */\r\n    address public oracle;\r\n\r\n\r\n    /**\r\n     * @dev Create a new ballot to choose one of 'proposalNames'.\r\n     */\r\n    constructor() public {\r\n        devMode = true;\r\n        oracle = msg.sender;\r\n        polls.push(Poll({\r\n            pullRequestLink    :   \"\" ,\r\n            pullRequestId      :   \"\" ,\r\n            hostingplatform    :   \"\" ,\r\n            title              :   \"\" ,\r\n            description        :   \"\" ,\r\n            voteEnd            :   0 ,\r\n            votersDenyCount    :   0,\r\n            votersApproveCount :   0,\r\n            isTransferd        :   true\r\n        }));\r\n    }\r\n\r\n\r\n    /**\r\n     * @dev Submit a new pull request into the voting database\r\n     * @param _pullRequestLink link to the pull request on the hosting provider web ui\r\n     * @param _pullRequestId       technical id of the pull request on the hosting platform\r\n     * @param _hostingplatform     the name of the hosting platform, where the pull request is happening\r\n     * @param _title               title of the poll / title of the pull request\r\n     * @param _description         description of the poll / text of the pull request\r\n     * @param _voteEnd               timepoint of the vote to end\r\n     */\r\n    function submitNewPoll(string memory _pullRequestLink, string memory _pullRequestId, string memory _hostingplatform, string memory _title, string memory _description, uint _voteEnd) public {\r\n        if(!devMode){\r\n            require(\r\n                msg.sender == oracle,\r\n                \"VOTE: Only the oracle can transfer new pull requests.\"\r\n            );\r\n\t\t}\r\n\t\trequire(\r\n\t\t\tbytes(_pullRequestLink).length > 0,\r\n\t\t\t\"VOTE: The link needs to be provided.\"\r\n\t\t);\r\n\t\trequire(\r\n\t\t\tbytes(_title).length > 0,\r\n\t\t\t\"VOTE: The title needs to be provided.\"\r\n\t\t);\r\n\t\trequire(\r\n\t\t\tbytes(_description).length > 0,\r\n\t\t\t\"VOTE: The description needs to be provided.\"\r\n\t\t);\r\n\t\trequire(\r\n\t\t\t_voteEnd > now,\r\n\t\t\t\"VOTE: The end of the vote needs to be in the future.\"\r\n\t\t);\r\n\r\n\t\tPoll storage poll = getPoll(_pullRequestId, _hostingplatform);\r\n\r\n\r\n\t\trequire(\r\n\t\t\tpoll.voteEnd == 0 ,\r\n\t\t\t\"VOTE: The pull request is already transfered.\"\r\n\t\t);\r\n\t\r\n\r\n\r\n        polls.push(Poll({\r\n            pullRequestLink    :\t _pullRequestLink ,\r\n            pullRequestId      :   _pullRequestId ,\r\n            hostingplatform    :   _hostingplatform ,\r\n            title              :   _title ,\r\n            description        :   _description ,\r\n            voteEnd            :   _voteEnd ,\r\n            votersDenyCount    :   0,\r\n            votersApproveCount :   0,\r\n            isTransferd        :  false\r\n        }));\r\n\r\n    }\r\n\r\n\r\n\r\n    /**\r\n     * @dev gets a list of voters of a specific vote.\r\n     * @param voteindex the vote index\r\n     */\r\n    function getVotersApprove(uint voteindex) view public returns (address[] memory) {\r\n        Poll storage poll = polls[voteindex];\r\n\r\n        require(\r\n          poll.voteEnd > 0,\r\n          \"VOTE: The vote does not exist.\"\r\n         );\r\n\r\n         address[] memory voters = new address[](poll.votersApproveCount) ;\r\n         address current = oracle;\r\n\t\t uint currentIndex = 0;\r\n\r\n\t\t for( currentIndex = 0; currentIndex < poll.votersApproveCount; currentIndex++){\r\n\t\t\tcurrent = poll.votersApproveList[current];\r\n\t\t\tvoters[currentIndex] = current;\r\n\t\t }\r\n\r\n\t\treturn voters;\r\n    }\r\n\t\r\n    /**\r\n     * @dev gets a list of voters of a specific vote.\r\n     * @param voteindex the vote index\r\n     */\r\n    function getVotersDeny(uint voteindex) view public returns (address[] memory) {\r\n        Poll storage poll = polls[voteindex];\r\n\r\n        require(\r\n          poll.voteEnd > 0,\r\n          \"VOTE: The vote does not exist.\"\r\n         );\r\n\r\n         address[] memory voters = new address[](poll.votersDenyCount) ;\r\n         address current = oracle;\r\n\t\t uint currentIndex = 0;\r\n\r\n\t\t for( currentIndex = 0; currentIndex < poll.votersDenyCount; currentIndex++){\r\n\t\t\tcurrent = poll.votersDenyList[current];\r\n\t\t\tvoters[currentIndex] = current;\r\n\t\t }\r\n\r\n\t\treturn voters;\r\n    }\r\n\r\n\r\n    /**\r\n     * @dev checks wether a given adress is already included in the list of voters.\r\n     * @param poll The poll to check against\r\n     * @param user the user adress to check for\r\n     */\r\n    function hasVoted(Poll storage poll, address user) view private returns (bool) {\r\n        return poll.votersDeny[user] || poll.votersApprove[user];\r\n    }\r\n\r\n    /**\r\n     * @dev Allows to perform a vote. The current user will be taken as executor.\r\n     * @param key the pull request index to vote for / can be received via getKey getPollIndex\r\n     * @param approve true means to acceppt the pull request, false it should be declined\r\n     */\r\n    function vote(uint key, bool approve) public {\r\n        vote(key, approve, msg.sender);\r\n    }\r\n    /**\r\n     * @dev This is a fake voting method, to test this smart contract without having to many accounts. It should be deactivated in productive use\r\n     * @param key the pull request index to vote for / can be received via getKey getPollIndex\r\n     * @param approve true means to acceppt the pull request, false it should be declined\r\n     *\r\n     */\r\n    function voteFake(uint key, bool approve, address voter) public {\r\n        if(!devMode){\r\n            require(\r\n                msg.sender == oracle,\r\n                \"VOTE: Only the oracle can transfer new pull requests.\"\r\n            );\r\n        }\r\n\r\n        vote(key, approve, voter);\r\n    }\r\n\r\n    /**\r\n     * @dev This is the internal voting method, to test this smart contract without having to many accounts. It should be deactivated in productive use\r\n     * @param key the pull request index to vote for / can be received via getKey getPollIndex\r\n     * @param approve true means to acceppt the pull request, false it should be declined\r\n     * @param voter the address that should perform the vote. normaly a user block.\r\n     *\r\n     */\r\n    function vote(uint key, bool approve, address voter) private {\r\n        Poll storage poll = polls[key];\r\n        require(\r\n            poll.voteEnd > 0,\r\n            \"VOTE: The required poll does not exist\"\r\n        );\r\n        require(\r\n            poll.voteEnd > now,\r\n            \"VOTE: The poll expired\"\r\n        );\r\n        require(\r\n            !hasVoted(poll, voter),\r\n            \"VOTE: You have already voted before\"\r\n        );\r\n\r\n        if(approve){\r\n            \r\n            address current = oracle;\r\n\t\t    uint currentIndex = 0;\r\n\r\n\t\t    for( currentIndex = 0; currentIndex < poll.votersApproveCount; currentIndex++){\r\n    \t\t\tcurrent = poll.votersApproveList[current];\r\n\t\t    }\r\n\t\t    poll.votersApproveCount += 1;\r\n            poll.votersApprove[voter] = true;\r\n            poll.votersApproveList[current] = voter;\r\n            \r\n            \r\n        }else{\r\n            \r\n            \r\n            address current = oracle;\r\n\t\t    uint currentIndex = 0;\r\n\r\n\t\t    for( currentIndex = 0; currentIndex < poll.votersDenyCount; currentIndex++){\r\n    \t\t\tcurrent = poll.votersDenyList[current];\r\n\t\t    }\r\n\t\t    poll.votersDenyCount += 1;\r\n            poll.votersDeny[voter] = true;\r\n            poll.votersDenyList[current] = voter;\r\n        }\r\n    }\r\n\r\n\r\n     /**\r\n     * @dev Returns the next finished vote, that was not yet transfered to the hosting platform, returns 0 if noone is found\r\n     */\r\n    function getNextVoteFinishedButUntransfered() view public returns (uint){\r\n        if(!devMode){\r\n            require(\r\n                msg.sender == oracle,\r\n                \"VOTE: Only the oracle can transfer new pull requests.\"\r\n            );\r\n        }\r\n\r\n        uint currentTime = now;\r\n\r\n         for (uint i = polls.length -1 ; i > 0; i--) {\r\n             Poll memory poll = polls[i];\r\n             if(poll.voteEnd < currentTime && !poll.isTransferd){\r\n                 return i;\r\n             }\r\n\r\n        }\r\n        return 0;\r\n    }\r\n\r\n\t     /**\r\n     * @dev Returns length of the poll array\r\n     */\r\n    function getPollLength() view public returns (uint){\r\n        return polls.length;\r\n    }\r\n\r\n\r\n\r\n     /**\r\n     * @dev marks a poll as applied on the hosting platform\r\n     * @param pollKey The index of the poll to mark as transferred\r\n     */\r\n    function appliedOnHostingPlatform(uint pollKey) public {\r\n        if(!devMode){\r\n            require(\r\n                msg.sender == oracle,\r\n                \"VOTE: Only the oracle is allowed to perform this.\"\r\n            );\r\n        }\r\n\r\n        Poll storage poll = polls[pollKey];\r\n\r\n        require(\r\n            poll.voteEnd > 0,\r\n            \"VOTE: The pull request does not exist.\"\r\n        );\r\n        require(\r\n            poll.voteEnd < now,\r\n            \"VOTE: The pull has not ended yet.\"\r\n        );\r\n\r\n        poll.isTransferd = true;\r\n\r\n    }\r\n\r\n     /**\r\n     * @dev marks a poll as applied on the hosting platform\r\n     * @param _pullRequestId       technical id of the pull request on the hosting platform\r\n     * @param _hostingplatform     the name of the hosting platform, where the pull request is happening\r\n     */\r\n    function appliedOnHostingPlatform(string memory _pullRequestId, string memory _hostingplatform) public {\r\n        appliedOnHostingPlatform(getPollIndex(_pullRequestId, _hostingplatform));\r\n    }\r\n\r\n     /**\r\n     * @dev searches for the poll index of a given poll\r\n     * @param _pullRequestId       technical id of the pull request on the hosting platform\r\n     * @param _hostingplatform     the name of the hosting platform, where the pull request is happening\r\n     */\r\n    function getPollIndex(string memory _pullRequestId, string memory _hostingplatform) view public returns (uint) {\r\n        for (uint i = polls.length -1; i > 0; i--) {\r\n             Poll storage poll = polls[i];\r\n             if(equals( poll.pullRequestId, _pullRequestId) && equals(poll.hostingplatform , _hostingplatform)){\r\n                 return i;\r\n             }\r\n        }\r\n        return 0;\r\n    }\r\n\r\n     /**\r\n     * @dev searches for the a poll based on the public information\r\n     * @param _pullRequestId       technical id of the pull request on the hosting platform\r\n     * @param _hostingplatform     the name of the hosting platform, where the pull request is happening\r\n     */\r\n    function getPoll(string memory _pullRequestId, string memory _hostingplatform) view internal returns (Poll  storage) {\r\n        return polls[getPollIndex(_pullRequestId, _hostingplatform)];\r\n    }\r\n\r\n    /**\r\n     * @dev Compares two strings with each other, true if they are equal\r\n     */\r\n    function equals(string memory a, string memory b) pure internal returns (bool){\r\n        return keccak256(bytes(a)) == keccak256(bytes(b));\r\n    }\r\n\r\n\r\n\r\n    /**\r\n     * @dev calculates the voting result in the database\r\n     * @param _pullRequestId       technical id of the pull request on the hosting platform\r\n     * @param _hostingplatform     the name of the hosting platform, where the pull request is happening\r\n     */\r\n    function getVotingResult(string memory _pullRequestId, string memory _hostingplatform) view public returns (bool) {\r\n        return getVotingResult(getPollIndex(_pullRequestId, _hostingplatform));\r\n    }\r\n\r\n    /**\r\n     * @dev calculates the voting result in the database\r\n     * @param key The index of the poll to mark as transferred\r\n     */\r\n    function getVotingResult(uint key) view public returns (bool) {\r\n        Poll storage poll = polls[key];\r\n\r\n        require(\r\n            poll.voteEnd > 0,\r\n            \"VOTE: The pull request does not exist.\"\r\n        );\r\n        require(\r\n            poll.voteEnd < now,\r\n            \"VOTE: The pull has not ended yet.\"\r\n        );\r\n\r\n        return calcVotingResultMajority(poll);\r\n    }\r\n\r\n     /**\r\n     * @dev calculates the voting result based on a poll / true means more positve than negative voices\r\n     * @param poll the poll that the result should be calculated against.\r\n     */\r\n    function calcVotingResultMajority(Poll memory poll) pure internal returns (bool) {\r\n       return poll.votersApproveCount > poll.votersDenyCount;\r\n    }\r\n\r\n\r\n\r\n     /**\r\n     * @dev simple hello world for testing\r\n     */\r\n    function helloWorld() pure public returns (string memory){\r\n        return \"VOTE: Hello World from Solidity\";\r\n\r\n    }\r\n\r\n     /**\r\n     * @dev simple hello world for testing\r\n     */\r\n    function activateProduction() public {\r\n        require(\r\n            devMode,\r\n            \"VOTE: Production Mode is already active.\"\r\n        );\r\n\r\n        devMode = false;\r\n    }\r\n\r\n}\r\n",
  "sourcePath": "C:/Users/t.ulrich/Documents/DemocraticVotes/contracts/DemocraticBallot.sol",
  "compiler": {
    "name": "solc",
    "version": "0.5.16+commit.9c3226ce.Emscripten.clang"
  },
  "schemaVersion": "3.2.4",
  "updatedAt": "2020-09-11T14:00:45.154Z",
  "networkType": "ethereum",
  "devdoc": {
    "methods": {
      "activateProduction()": {
        "details": "simple hello world for testing"
      },
      "appliedOnHostingPlatform(string,string)": {
        "details": "marks a poll as applied on the hosting platform",
        "params": {
          "_hostingplatform": "the name of the hosting platform, where the pull request is happening",
          "_pullRequestId": "technical id of the pull request on the hosting platform"
        }
      },
      "appliedOnHostingPlatform(uint256)": {
        "details": "marks a poll as applied on the hosting platform",
        "params": {
          "pollKey": "The index of the poll to mark as transferred"
        }
      },
      "constructor": {
        "details": "Create a new ballot to choose one of 'proposalNames'."
      },
      "getNextVoteFinishedButUntransfered()": {
        "details": "Returns the next finished vote, that was not yet transfered to the hosting platform, returns 0 if noone is found"
      },
      "getPollIndex(string,string)": {
        "details": "searches for the poll index of a given poll",
        "params": {
          "_hostingplatform": "the name of the hosting platform, where the pull request is happening",
          "_pullRequestId": "technical id of the pull request on the hosting platform"
        }
      },
      "getPollLength()": {
        "details": "Returns length of the poll array"
      },
      "getVotersApprove(uint256)": {
        "details": "gets a list of voters of a specific vote.",
        "params": {
          "voteindex": "the vote index"
        }
      },
      "getVotersDeny(uint256)": {
        "details": "gets a list of voters of a specific vote.",
        "params": {
          "voteindex": "the vote index"
        }
      },
      "getVotingResult(string,string)": {
        "details": "calculates the voting result in the database",
        "params": {
          "_hostingplatform": "the name of the hosting platform, where the pull request is happening",
          "_pullRequestId": "technical id of the pull request on the hosting platform"
        }
      },
      "getVotingResult(uint256)": {
        "details": "calculates the voting result in the database",
        "params": {
          "key": "The index of the poll to mark as transferred"
        }
      },
      "helloWorld()": {
        "details": "simple hello world for testing"
      },
      "submitNewPoll(string,string,string,string,string,uint256)": {
        "details": "Submit a new pull request into the voting database",
        "params": {
          "_description": "description of the poll / text of the pull request",
          "_hostingplatform": "the name of the hosting platform, where the pull request is happening",
          "_pullRequestId": "technical id of the pull request on the hosting platform",
          "_pullRequestLink": "link to the pull request on the hosting provider web ui",
          "_title": "title of the poll / title of the pull request",
          "_voteEnd": "timepoint of the vote to end"
        }
      },
      "vote(uint256,bool)": {
        "details": "Allows to perform a vote. The current user will be taken as executor.",
        "params": {
          "approve": "true means to acceppt the pull request, false it should be declined",
          "key": "the pull request index to vote for / can be received via getKey getPollIndex"
        }
      },
      "voteFake(uint256,bool,address)": {
        "details": "This is a fake voting method, to test this smart contract without having to many accounts. It should be deactivated in productive use",
        "params": {
          "approve": "true means to acceppt the pull request, false it should be declined      ",
          "key": "the pull request index to vote for / can be received via getKey getPollIndex"
        }
      }
    }
  },
  "userdoc": {
    "methods": {},
    "notice": "Smart Contract for the Project https://github.com/flensburger88/DemocraticVotes"
  }
}