{
  "contractName": "DemocraticBallot",
  "abi": [
    {
      "inputs": [],
      "payable": false,
      "stateMutability": "nonpayable",
      "type": "constructor"
    },
    {
      "constant": true,
      "inputs": [],
      "name": "oracle",
      "outputs": [
        {
          "internalType": "address",
          "name": "",
          "type": "address"
        }
      ],
      "payable": false,
      "stateMutability": "view",
      "type": "function"
    },
    {
      "constant": true,
      "inputs": [
        {
          "internalType": "uint256",
          "name": "",
          "type": "uint256"
        }
      ],
      "name": "polls",
      "outputs": [
        {
          "internalType": "string",
          "name": "pullRequestLink",
          "type": "string"
        },
        {
          "internalType": "string",
          "name": "pullRequestId",
          "type": "string"
        },
        {
          "internalType": "string",
          "name": "hostingplatform",
          "type": "string"
        },
        {
          "internalType": "string",
          "name": "title",
          "type": "string"
        },
        {
          "internalType": "string",
          "name": "description",
          "type": "string"
        },
        {
          "internalType": "uint256",
          "name": "voteEnd",
          "type": "uint256"
        },
        {
          "internalType": "bool",
          "name": "isTransferd",
          "type": "bool"
        }
      ],
      "payable": false,
      "stateMutability": "view",
      "type": "function"
    },
    {
      "constant": false,
      "inputs": [
        {
          "internalType": "string",
          "name": "_pullRequestLink",
          "type": "string"
        },
        {
          "internalType": "string",
          "name": "_pullRequestId",
          "type": "string"
        },
        {
          "internalType": "string",
          "name": "_hostingplatform",
          "type": "string"
        },
        {
          "internalType": "string",
          "name": "_title",
          "type": "string"
        },
        {
          "internalType": "string",
          "name": "_description",
          "type": "string"
        },
        {
          "internalType": "uint256",
          "name": "_voteEnd",
          "type": "uint256"
        }
      ],
      "name": "submitNewPoll",
      "outputs": [],
      "payable": false,
      "stateMutability": "nonpayable",
      "type": "function"
    },
    {
      "constant": true,
      "inputs": [
        {
          "internalType": "string",
          "name": "_pullRequestId",
          "type": "string"
        },
        {
          "internalType": "string",
          "name": "_hostingplatform",
          "type": "string"
        }
      ],
      "name": "getKey",
      "outputs": [
        {
          "internalType": "string",
          "name": "",
          "type": "string"
        }
      ],
      "payable": false,
      "stateMutability": "pure",
      "type": "function"
    },
    {
      "constant": false,
      "inputs": [
        {
          "internalType": "uint256",
          "name": "key",
          "type": "uint256"
        },
        {
          "internalType": "bool",
          "name": "approve",
          "type": "bool"
        },
        {
          "internalType": "address",
          "name": "voter",
          "type": "address"
        }
      ],
      "name": "voteFake",
      "outputs": [],
      "payable": false,
      "stateMutability": "nonpayable",
      "type": "function"
    },
    {
      "constant": false,
      "inputs": [
        {
          "internalType": "uint256",
          "name": "key",
          "type": "uint256"
        },
        {
          "internalType": "bool",
          "name": "approve",
          "type": "bool"
        }
      ],
      "name": "vote",
      "outputs": [],
      "payable": false,
      "stateMutability": "nonpayable",
      "type": "function"
    },
    {
      "constant": true,
      "inputs": [],
      "name": "getNextVoteFinishedButUntransfered",
      "outputs": [
        {
          "internalType": "uint256",
          "name": "",
          "type": "uint256"
        }
      ],
      "payable": false,
      "stateMutability": "view",
      "type": "function"
    },
    {
      "constant": false,
      "inputs": [
        {
          "internalType": "string",
          "name": "_pullRequestId",
          "type": "string"
        },
        {
          "internalType": "string",
          "name": "_hostingplatform",
          "type": "string"
        }
      ],
      "name": "appliedOnHostingPlatform",
      "outputs": [],
      "payable": false,
      "stateMutability": "nonpayable",
      "type": "function"
    },
    {
      "constant": true,
      "inputs": [],
      "name": "helloWorld",
      "outputs": [
        {
          "internalType": "string",
          "name": "",
          "type": "string"
        }
      ],
      "payable": false,
      "stateMutability": "pure",
      "type": "function"
    }
  ],
  "bytecode": "0x60806040523480156200001157600080fd5b5033600160006101000a81548173ffffffffffffffffffffffffffffffffffffffff021916908373ffffffffffffffffffffffffffffffffffffffff16021790555060006040518060e00160405280604051806020016040528060008152508152602001604051806020016040528060008152508152602001604051806020016040528060008152508152602001604051806020016040528060008152508152602001604051806020016040528060008152508152602001600081526020016001151581525090806001815401808255809150509060018203906000526020600020906009020160009091929091909150600082015181600001908051906020019062000120929190620001d0565b5060208201518160010190805190602001906200013f929190620001d0565b5060408201518160020190805190602001906200015e929190620001d0565b5060608201518160030190805190602001906200017d929190620001d0565b5060808201518160040190805190602001906200019c929190620001d0565b5060a0820151816005015560c08201518160060160006101000a81548160ff0219169083151502179055505050506200027f565b828054600181600116156101000203166002900490600052602060002090601f016020900481019282601f106200021357805160ff191683800117855562000244565b8280016001018555821562000244579182015b828111156200024357825182559160200191906001019062000226565b5b50905062000253919062000257565b5090565b6200027c91905b80821115620002785760008160009055506001016200025e565b5090565b90565b612145806200028f6000396000f3fe608060405234801561001057600080fd5b50600436106100935760003560e01c80637dc131e2116100665780637dc131e21461032557806390de092f14610646578063ac2f007414610798578063c605f76c14610a01578063c9d27afe14610a8457610093565b806327a52f1c14610098578063331d9fde146100f25780637c5229b8146101105780637dc0d1d0146102db575b600080fd5b6100f0600480360360608110156100ae57600080fd5b8101908080359060200190929190803515159060200190929190803573ffffffffffffffffffffffffffffffffffffffff169060200190929190505050610abe565b005b6100fa610ace565b6040518082815260200191505060405180910390f35b6102606004803603604081101561012657600080fd5b810190808035906020019064010000000081111561014357600080fd5b82018360208201111561015557600080fd5b8035906020019184600183028401116401000000008311171561017757600080fd5b91908080601f016020809104026020016040519081016040528093929190818152602001838380828437600081840152601f19601f820116905080830192505050505050509192919290803590602001906401000000008111156101da57600080fd5b8201836020820111156101ec57600080fd5b8035906020019184600183028401116401000000008311171561020e57600080fd5b91908080601f016020809104026020016040519081016040528093929190818152602001838380828437600081840152601f19601f820116905080830192505050505050509192919290505050610ea4565b6040518080602001828103825283818151815260200191508051906020019080838360005b838110156102a0578082015181840152602081019050610285565b50505050905090810190601f1680156102cd5780820380516001836020036101000a031916815260200191505b509250505060405180910390f35b6102e3610f6c565b604051808273ffffffffffffffffffffffffffffffffffffffff1673ffffffffffffffffffffffffffffffffffffffff16815260200191505060405180910390f35b610644600480360360c081101561033b57600080fd5b810190808035906020019064010000000081111561035857600080fd5b82018360208201111561036a57600080fd5b8035906020019184600183028401116401000000008311171561038c57600080fd5b91908080601f016020809104026020016040519081016040528093929190818152602001838380828437600081840152601f19601f820116905080830192505050505050509192919290803590602001906401000000008111156103ef57600080fd5b82018360208201111561040157600080fd5b8035906020019184600183028401116401000000008311171561042357600080fd5b91908080601f016020809104026020016040519081016040528093929190818152602001838380828437600081840152601f19601f8201169050808301925050505050505091929192908035906020019064010000000081111561048657600080fd5b82018360208201111561049857600080fd5b803590602001918460018302840111640100000000831117156104ba57600080fd5b91908080601f016020809104026020016040519081016040528093929190818152602001838380828437600081840152601f19601f8201169050808301925050505050505091929192908035906020019064010000000081111561051d57600080fd5b82018360208201111561052f57600080fd5b8035906020019184600183028401116401000000008311171561055157600080fd5b91908080601f016020809104026020016040519081016040528093929190818152602001838380828437600081840152601f19601f820116905080830192505050505050509192919290803590602001906401000000008111156105b457600080fd5b8201836020820111156105c657600080fd5b803590602001918460018302840111640100000000831117156105e857600080fd5b91908080601f016020809104026020016040519081016040528093929190818152602001838380828437600081840152601f19601f82011690508083019250505050505050919291929080359060200190929190505050610f92565b005b6107966004803603604081101561065c57600080fd5b810190808035906020019064010000000081111561067957600080fd5b82018360208201111561068b57600080fd5b803590602001918460018302840111640100000000831117156106ad57600080fd5b91908080601f016020809104026020016040519081016040528093929190818152602001838380828437600081840152601f19601f8201169050808301925050505050505091929192908035906020019064010000000081111561071057600080fd5b82018360208201111561072257600080fd5b8035906020019184600183028401116401000000008311171561074457600080fd5b91908080601f016020809104026020016040519081016040528093929190818152602001838380828437600081840152601f19601f82011690508083019250505050505050919291929050505061136d565b005b6107c4600480360360208110156107ae57600080fd5b8101908080359060200190929190505050611536565b6040518080602001806020018060200180602001806020018881526020018715151515815260200186810386528d818151815260200191508051906020019080838360005b83811015610824578082015181840152602081019050610809565b50505050905090810190601f1680156108515780820380516001836020036101000a031916815260200191505b5086810385528c818151815260200191508051906020019080838360005b8381101561088a57808201518184015260208101905061086f565b50505050905090810190601f1680156108b75780820380516001836020036101000a031916815260200191505b5086810384528b818151815260200191508051906020019080838360005b838110156108f05780820151818401526020810190506108d5565b50505050905090810190601f16801561091d5780820380516001836020036101000a031916815260200191505b5086810383528a818151815260200191508051906020019080838360005b8381101561095657808201518184015260208101905061093b565b50505050905090810190601f1680156109835780820380516001836020036101000a031916815260200191505b50868103825289818151815260200191508051906020019080838360005b838110156109bc5780820151818401526020810190506109a1565b50505050905090810190601f1680156109e95780820380516001836020036101000a031916815260200191505b509c5050505050505050505050505060405180910390f35b610a0961188a565b6040518080602001828103825283818151815260200191508051906020019080838360005b83811015610a49578082015181840152602081019050610a2e565b50505050905090810190601f168015610a765780820380516001836020036101000a031916815260200191505b509250505060405180910390f35b610abc60048036036040811015610a9a57600080fd5b81019080803590602001909291908035151590602001909291905050506118c7565b005b610ac98383836118d6565b505050565b6000804290506000808054905090505b6000811115610e9a57610aef611f08565b60008281548110610afc57fe5b90600052602060002090600902016040518060e0016040529081600082018054600181600116156101000203166002900480601f016020809104026020016040519081016040528092919081815260200182805460018160011615610100020316600290048015610bae5780601f10610b8357610100808354040283529160200191610bae565b820191906000526020600020905b815481529060010190602001808311610b9157829003601f168201915b50505050508152602001600182018054600181600116156101000203166002900480601f016020809104026020016040519081016040528092919081815260200182805460018160011615610100020316600290048015610c505780601f10610c2557610100808354040283529160200191610c50565b820191906000526020600020905b815481529060010190602001808311610c3357829003601f168201915b50505050508152602001600282018054600181600116156101000203166002900480601f016020809104026020016040519081016040528092919081815260200182805460018160011615610100020316600290048015610cf25780601f10610cc757610100808354040283529160200191610cf2565b820191906000526020600020905b815481529060010190602001808311610cd557829003601f168201915b50505050508152602001600382018054600181600116156101000203166002900480601f016020809104026020016040519081016040528092919081815260200182805460018160011615610100020316600290048015610d945780601f10610d6957610100808354040283529160200191610d94565b820191906000526020600020905b815481529060010190602001808311610d7757829003601f168201915b50505050508152602001600482018054600181600116156101000203166002900480601f016020809104026020016040519081016040528092919081815260200182805460018160011615610100020316600290048015610e365780601f10610e0b57610100808354040283529160200191610e36565b820191906000526020600020905b815481529060010190602001808311610e1957829003601f168201915b50505050508152602001600582015481526020016006820160009054906101000a900460ff1615151515815250509050828160a00151108015610e7b57508060c00151155b15610e8b57819350505050610ea1565b50808060019003915050610ade565b5060009150505b90565b60606000835114610f00576040517f08c379a000000000000000000000000000000000000000000000000000000000815260040180806020018281038252602781526020018061208d6027913960400191505060405180910390fd5b6000825114610f5a576040517f08c379a00000000000000000000000000000000000000000000000000000000081526004018080602001828103825260298152602001806120186029913960400191505060405180910390fd5b610f648383611b2a565b905092915050565b600160009054906101000a900473ffffffffffffffffffffffffffffffffffffffff1681565b600160009054906101000a900473ffffffffffffffffffffffffffffffffffffffff1673ffffffffffffffffffffffffffffffffffffffff163373ffffffffffffffffffffffffffffffffffffffff1614611038576040517f08c379a000000000000000000000000000000000000000000000000000000000815260040180806020018281038252602f8152602001806120b4602f913960400191505060405180910390fd5b60008651146110af576040517f08c379a000000000000000000000000000000000000000000000000000000000815260040180806020018281038252601e8152602001807f546865206c696e6b206e6565647320746f2062652070726f76696465642e000081525060200191505060405180910390fd5b6000835114611126576040517f08c379a000000000000000000000000000000000000000000000000000000000815260040180806020018281038252601f8152602001807f546865207469746c65206e6565647320746f2062652070726f76696465642e0081525060200191505060405180910390fd5b6000825114611180576040517f08c379a00000000000000000000000000000000000000000000000000000000081526004018080602001828103825260258152602001806120416025913960400191505060405180910390fd5b4281116111d8576040517f08c379a000000000000000000000000000000000000000000000000000000000815260040180806020018281038252602e8152602001806120e3602e913960400191505060405180910390fd5b60006111e48686611c74565b90506000816005015411611243576040517f08c379a00000000000000000000000000000000000000000000000000000000081526004018080602001828103825260278152602001806120666027913960400191505060405180910390fd5b60006040518060e00160405280898152602001888152602001878152602001868152602001858152602001848152602001600015158152509080600181540180825580915050906001820390600052602060002090600902016000909192909190915060008201518160000190805190602001906112c2929190611f47565b5060208201518160010190805190602001906112df929190611f47565b5060408201518160020190805190602001906112fc929190611f47565b506060820151816003019080519060200190611319929190611f47565b506080820151816004019080519060200190611336929190611f47565b5060a0820151816005015560c08201518160060160006101000a81548160ff02191690831515021790555050505050505050505050565b600160009054906101000a900473ffffffffffffffffffffffffffffffffffffffff1673ffffffffffffffffffffffffffffffffffffffff163373ffffffffffffffffffffffffffffffffffffffff1614611413576040517f08c379a000000000000000000000000000000000000000000000000000000000815260040180806020018281038252602b815260200180611fed602b913960400191505060405180910390fd5b600061141f8383611c74565b9050600081600501541461149b576040517f08c379a00000000000000000000000000000000000000000000000000000000081526004018080602001828103825260208152602001807f5468652070756c6c207265717565737420646f6573206e6f742065786973742e81525060200191505060405180910390fd5b42816005015410611514576040517f08c379a000000000000000000000000000000000000000000000000000000000815260040180806020018281038252601b8152602001807f5468652070756c6c20686173206e6f7420656e646564207965742e000000000081525060200191505060405180910390fd5b60018160060160006101000a81548160ff021916908315150217905550505050565b6000818154811061154357fe5b9060005260206000209060090201600091509050806000018054600181600116156101000203166002900480601f0160208091040260200160405190810160405280929190818152602001828054600181600116156101000203166002900480156115ef5780601f106115c4576101008083540402835291602001916115ef565b820191906000526020600020905b8154815290600101906020018083116115d257829003601f168201915b505050505090806001018054600181600116156101000203166002900480601f01602080910402602001604051908101604052809291908181526020018280546001816001161561010002031660029004801561168d5780601f106116625761010080835404028352916020019161168d565b820191906000526020600020905b81548152906001019060200180831161167057829003601f168201915b505050505090806002018054600181600116156101000203166002900480601f01602080910402602001604051908101604052809291908181526020018280546001816001161561010002031660029004801561172b5780601f106117005761010080835404028352916020019161172b565b820191906000526020600020905b81548152906001019060200180831161170e57829003601f168201915b505050505090806003018054600181600116156101000203166002900480601f0160208091040260200160405190810160405280929190818152602001828054600181600116156101000203166002900480156117c95780601f1061179e576101008083540402835291602001916117c9565b820191906000526020600020905b8154815290600101906020018083116117ac57829003601f168201915b505050505090806004018054600181600116156101000203166002900480601f0160208091040260200160405190810160405280929190818152602001828054600181600116156101000203166002900480156118675780601f1061183c57610100808354040283529160200191611867565b820191906000526020600020905b81548152906001019060200180831161184a57829003601f168201915b5050505050908060050154908060060160009054906101000a900460ff16905087565b60606040518060400160405280601b81526020017f48656c6c6f20576f726c642066726f6d20536f6c696469747920780000000000815250905090565b6118d28282336118d6565b5050565b60008084815481106118e457fe5b90600052602060002090600902019050600081600501541461196e576040517f08c379a00000000000000000000000000000000000000000000000000000000081526004018080602001828103825260208152602001807f54686520726571756972656420706f6c6c20646f6573206e6f7420657869737481525060200191505060405180910390fd5b428160050154116119e7576040517f08c379a00000000000000000000000000000000000000000000000000000000081526004018080602001828103825260108152602001807f54686520706f6c6c20657870697265640000000000000000000000000000000081525060200191505060405180910390fd5b6119f18183611e3e565b15611a64576040517f08c379a00000000000000000000000000000000000000000000000000000000081526004018080602001828103825260208152602001807f54686520726571756972656420706f6c6c20646f6573206e6f7420657869737481525060200191505060405180910390fd5b8215611ac95760018160080160008473ffffffffffffffffffffffffffffffffffffffff1673ffffffffffffffffffffffffffffffffffffffff16815260200190815260200160002060006101000a81548160ff021916908315150217905550611b24565b60018160070160008473ffffffffffffffffffffffffffffffffffffffff1673ffffffffffffffffffffffffffffffffffffffff16815260200190815260200160002060006101000a81548160ff0219169083151502179055505b50505050565b6060808390506060839050606081518351016040519080825280601f01601f191660200182016040528015611b6e5781602001600182028038833980820191505090505b5090506060819050600080600091505b8551821015611bec57858281518110611b9357fe5b602001015160f81c60f81b838280600101935081518110611bb057fe5b60200101907effffffffffffffffffffffffffffffffffffffffffffffffffffffffffffff1916908160001a9053508180600101925050611b7e565b600091505b8451821015611c6557848280600101935081518110611c0c57fe5b602001015160f81c60f81b838280600101935081518110611c2957fe5b60200101907effffffffffffffffffffffffffffffffffffffffffffffffffffffffffffff1916908160001a9053508180600101925050611bf1565b82965050505050505092915050565b60008060008054905090505b6000811115611e19576000808281548110611c9757fe5b90600052602060002090600902019050611d4d816001018054600181600116156101000203166002900480601f016020809104026020016040519081016040528092919081815260200182805460018160011615610100020316600290048015611d425780601f10611d1757610100808354040283529160200191611d42565b820191906000526020600020905b815481529060010190602001808311611d2557829003601f168201915b505050505086611eed565b8015611dfb5750611dfa816002018054600181600116156101000203166002900480601f016020809104026020016040519081016040528092919081815260200182805460018160011615610100020316600290048015611def5780601f10611dc457610100808354040283529160200191611def565b820191906000526020600020905b815481529060010190602001808311611dd257829003601f168201915b505050505085611eed565b5b15611e0a578092505050611e38565b50808060019003915050611c80565b5060008081548110611e2757fe5b906000526020600020906009020190505b92915050565b60008260070160008373ffffffffffffffffffffffffffffffffffffffff1673ffffffffffffffffffffffffffffffffffffffff16815260200190815260200160002060009054906101000a900460ff1680611ee557508260080160008373ffffffffffffffffffffffffffffffffffffffff1673ffffffffffffffffffffffffffffffffffffffff16815260200190815260200160002060009054906101000a900460ff165b905092915050565b60008180519060200120838051906020012014905092915050565b6040518060e001604052806060815260200160608152602001606081526020016060815260200160608152602001600081526020016000151581525090565b828054600181600116156101000203166002900490600052602060002090601f016020900481019282601f10611f8857805160ff1916838001178555611fb6565b82800160010185558215611fb6579182015b82811115611fb5578251825591602001919060010190611f9a565b5b509050611fc39190611fc7565b5090565b611fe991905b80821115611fe5576000816000905550600101611fcd565b5090565b9056fe4f6e6c7920746865206f7261636c6520697320616c6c6f77656420746f20706572666f726d20746869732e54686520686f7374696e67706c6174666f726d206e6565647320746f2062652070726f76696465642e546865206465736372697074696f6e206e6565647320746f2062652070726f76696465642e5468652070756c6c207265717565737420697320616c7265616479207472616e7366657265642e5468652070756c6c526571756573744964206e6565647320746f2062652070726f76696465642e4f6e6c7920746865206f7261636c652063616e207472616e73666572206e65772070756c6c2072657175657374732e54686520656e64206f662074686520766f7465206e6565647320746f20626520696e20746865206675747572652ea265627a7a72315820ec7bf0c282d5cbb101f260a457148dc3a602a3218e859aaee39bcd764848e58c64736f6c63430005100032",
  "source": "pragma solidity >=0.4.22 <0.7.0;\r\n\r\n\r\n/** \r\n */\r\ncontract DemocraticBallot {\r\n    \r\n    uint256 constant NULL = 0;\r\n\r\n     struct Poll {\r\n        string pullRequestLink;  // link to the pull request on the hosting provider web ui\r\n        string pullRequestId;    // technical id of the pull request on the hosting platform\r\n        string hostingplatform;  // the name of the hosting platform, where the pull request is happening\r\n        string title;            // title of the poll / title of the pull request\r\n        string description;      // description of the poll / text of the pull request\r\n        uint voteEnd;            // timepoint of the vote to end \r\n        bool isTransferd ;       // specifies, if the pull request is already applied on the hosting platform\r\n        \r\n        mapping(address => bool) votersDeny;\r\n        mapping(address => bool) votersApprove;\r\n    }\r\n    \r\n    \r\n    // voteEnd < now\r\n    \r\n    \r\n\r\n\r\n    Poll[] public polls;\r\n    address public oracle;\r\n\r\n\r\n    /** \r\n     * @dev Create a new ballot to choose one of 'proposalNames'.\r\n     */\r\n    constructor() public {\r\n        oracle = msg.sender;\r\n        polls.push(Poll({\r\n            pullRequestLink  :\t \"\" ,\r\n            pullRequestId    :   \"\" ,\r\n            hostingplatform  :   \"\" ,\r\n            title            :   \"\" ,\r\n            description      :   \"\" ,\r\n            voteEnd          :   0 ,\r\n            isTransferd      :  true\r\n        }));\r\n    }\r\n\r\n        \r\n    /** \r\n     * @dev Submit a new pull request into the voting database\r\n     * @param _pullRequestLink link to the pull request on the hosting provider web ui\r\n     * @param _pullRequestId       technical id of the pull request on the hosting platform\r\n     * @param _hostingplatform     the name of the hosting platform, where the pull request is happening\r\n     * @param _title               title of the poll / title of the pull request\r\n     * @param _description         description of the poll / text of the pull request\r\n     * @param _voteEnd               timepoint of the vote to end \r\n     */\r\n    function submitNewPoll(string memory _pullRequestLink, string memory _pullRequestId, string memory _hostingplatform, string memory _title, string memory _description, uint _voteEnd) public {\r\n        require(\r\n            msg.sender == oracle,\r\n            \"Only the oracle can transfer new pull requests.\"\r\n        );\r\n        require(\r\n            bytes(_pullRequestLink).length == 0,\r\n            \"The link needs to be provided.\"\r\n        );\r\n        require(\r\n            bytes(_title).length == 0,\r\n            \"The title needs to be provided.\"\r\n        );\r\n        require(\r\n            bytes(_description).length == 0,\r\n            \"The description needs to be provided.\"\r\n        );\r\n        require(\r\n            _voteEnd > now,\r\n            \"The end of the vote needs to be in the future.\"\r\n        );\r\n        \r\n        Poll storage poll = getPoll(_pullRequestId, _hostingplatform);\r\n        \r\n        \r\n        require(\r\n            poll.voteEnd > 0 ,\r\n            \"The pull request is already transfered.\"\r\n        );\r\n        \r\n        polls.push(Poll({\r\n            pullRequestLink  :\t _pullRequestLink ,\r\n            pullRequestId    :   _pullRequestId ,\r\n            hostingplatform  :   _hostingplatform ,\r\n            title            :   _title ,\r\n            description      :   _description ,\r\n            voteEnd          :   _voteEnd ,\r\n            isTransferd      :  false\r\n        }));\r\n        \r\n    }\r\n    \r\n    function getKey(string memory _pullRequestId, string memory _hostingplatform ) pure public returns (string memory) {\r\n        require(\r\n            bytes(_pullRequestId).length == 0,\r\n            \"The pullRequestId needs to be provided.\"\r\n        );\r\n        require(\r\n            bytes(_hostingplatform).length == 0,\r\n            \"The hostingplatform needs to be provided.\"\r\n        );\r\n        return concat(_pullRequestId, _hostingplatform);\r\n    }\r\n    \r\n\r\n    function hasVoted(Poll storage poll, address user) view private returns (bool) {\r\n        return poll.votersDeny[user] || poll.votersApprove[user];\r\n    }\r\n\r\n    /**\r\n     * @dev Delegate your vote to the voter 'to'.\r\n     * @param key the pull request to vote for\r\n     */\r\n    function vote(uint key, bool approve) public {\r\n\r\n        vote(key, approve, msg.sender);\r\n        \r\n    }\r\n    /**\r\n     * @dev This is a fake voting method, to test this smart contract without having to many accounts\r\n     * * @param key the pull request to vote for\r\n     * */\r\n    function voteFake(uint key, bool approve, address voter) public {\r\n        /*require(\r\n            msg.sender == oracle,\r\n            \"Only the oracle can transfer new pull requests.\"\r\n        );*/\r\n\r\n        vote(key, approve, voter);\r\n    }\r\n    \r\n     /**\r\n     * @dev Delegate your vote to the voter 'to'.\r\n     * @param key the pull request to vote for\r\n     */\r\n    function vote(uint key, bool approve, address voter) private {\r\n        \r\n        \r\n        \r\n        Poll storage poll = polls[key];\r\n        require(\r\n            poll.voteEnd == 0,\r\n            \"The required poll does not exist\"\r\n        );\r\n        require(\r\n            poll.voteEnd > now,\r\n            \"The poll expired\"\r\n        );\r\n        require(\r\n            !hasVoted(poll, voter),\r\n            \"The required poll does not exist\"\r\n        );\r\n        \r\n        if(approve){\r\n            poll.votersApprove[voter] = true;\r\n        }else{\r\n            poll.votersDeny[voter] = true;\r\n        }\r\n    }\r\n    \r\n    \r\n     /**\r\n     * @dev Returns the next finished vote, that was not yet transfered to the hosting platform\r\n     */\r\n    function getNextVoteFinishedButUntransfered() view public returns (uint){\r\n        \r\n        /*require(\r\n            msg.sender == oracle,\r\n            \"Only the oracle can transfer new pull requests.\"\r\n        );*/\r\n        \r\n        uint currentTime = now;\r\n        \r\n         for (uint i = polls.length; i > 0; i--) {\r\n             Poll memory poll = polls[i];\r\n             if(poll.voteEnd < currentTime && !poll.isTransferd){\r\n                 return i;\r\n             }\r\n             \r\n        }\r\n        return 0;\r\n    }\r\n    \r\n    \r\n     /**\r\n     * @dev marks a poll as applied on the hosting platform\r\n     */\r\n    function appliedOnHostingPlatform(string memory _pullRequestId, string memory _hostingplatform) public {\r\n        \r\n        require(\r\n            msg.sender == oracle,\r\n            \"Only the oracle is allowed to perform this.\"\r\n        );\r\n\r\n        Poll storage poll = getPoll(_pullRequestId, _hostingplatform);\r\n        \r\n        require(\r\n            poll.voteEnd == 0,\r\n            \"The pull request does not exist.\"\r\n        );\r\n        require(\r\n            poll.voteEnd < now,\r\n            \"The pull has not ended yet.\"\r\n        );\r\n        \r\n        poll.isTransferd = true;\r\n\r\n    }\r\n    \r\n    function getPoll(string memory _pullRequestId, string memory _hostingplatform) view internal returns (Poll  storage) {\r\n        \r\n        for (uint i = polls.length; i > 0; i--) {\r\n             Poll storage poll = polls[i];\r\n             if(equals( poll.pullRequestId, _pullRequestId) && equals(poll.hostingplatform , _hostingplatform)){\r\n                 return poll;\r\n             }\r\n             \r\n        }\r\n        return polls[0];\r\n\r\n    }\r\n    \r\n    function equals(string memory a, string memory b) pure internal returns (bool){\r\n        return keccak256(bytes(a)) == keccak256(bytes(b));\r\n    }\r\n    \r\n    \r\n    \r\n    function concat(string memory _base, string memory _value) internal pure returns (string memory) {\r\n        bytes memory _baseBytes = bytes(_base);\r\n        bytes memory _valueBytes = bytes(_value);\r\n\r\n        string memory _tmpValue = new string(_baseBytes.length + _valueBytes.length);\r\n        bytes memory _newValue = bytes(_tmpValue);\r\n\r\n        uint i;\r\n        uint j;\r\n\r\n        for(i=0; i<_baseBytes.length; i++) {\r\n            _newValue[j++] = _baseBytes[i];\r\n        }\r\n\r\n        for(i=0; i<_valueBytes.length; i++) {\r\n            _newValue[j++] = _valueBytes[i++];\r\n        }\r\n\r\n        return string(_newValue);\r\n    }\r\n    \r\n        \r\n     /**\r\n     * @dev simple hello world for testing\r\n     */\r\n    function helloWorld() pure public returns (string memory){\r\n        return \"Hello World from Solidity x\";\r\n        \r\n    }\r\n    \r\n\r\n}\r\n",
  "sourcePath": "C:/Users/t.ulrich/Desktop/blockchain/contracts/DemocraticBallot.sol",
  "compiler": {
    "name": "solc",
    "version": "0.5.16+commit.9c3226ce.Emscripten.clang"
  },
  "schemaVersion": "3.2.4",
  "updatedAt": "2020-09-04T16:07:57.669Z",
  "networkType": "ethereum",
  "devdoc": {
    "methods": {
      "appliedOnHostingPlatform(string,string)": {
        "details": "marks a poll as applied on the hosting platform"
      },
      "constructor": {
        "details": "Create a new ballot to choose one of 'proposalNames'."
      },
      "getNextVoteFinishedButUntransfered()": {
        "details": "Returns the next finished vote, that was not yet transfered to the hosting platform"
      },
      "helloWorld()": {
        "details": "simple hello world for testing"
      },
      "submitNewPoll(string,string,string,string,string,uint256)": {
        "details": "Submit a new pull request into the voting database",
        "params": {
          "_description": "description of the poll / text of the pull request",
          "_hostingplatform": "the name of the hosting platform, where the pull request is happening",
          "_pullRequestId": "technical id of the pull request on the hosting platform",
          "_pullRequestLink": "link to the pull request on the hosting provider web ui",
          "_title": "title of the poll / title of the pull request",
          "_voteEnd": "timepoint of the vote to end "
        }
      },
      "vote(uint256,bool)": {
        "details": "Delegate your vote to the voter 'to'.",
        "params": {
          "key": "the pull request to vote for"
        }
      },
      "voteFake(uint256,bool,address)": {
        "details": "This is a fake voting method, to test this smart contract without having to many accounts",
        "params": {
          "key": "the pull request to vote for"
        }
      }
    }
  },
  "userdoc": {
    "methods": {}
  }
}