{
  "contractName": "DemocraticBallot",
  "abi": [
    {
      "inputs": [],
      "payable": false,
      "stateMutability": "nonpayable",
      "type": "constructor"
    },
    {
      "constant": true,
      "inputs": [],
      "name": "oracle",
      "outputs": [
        {
          "internalType": "address",
          "name": "",
          "type": "address"
        }
      ],
      "payable": false,
      "stateMutability": "view",
      "type": "function"
    },
    {
      "constant": true,
      "inputs": [
        {
          "internalType": "uint256",
          "name": "",
          "type": "uint256"
        }
      ],
      "name": "polls",
      "outputs": [
        {
          "internalType": "string",
          "name": "pullRequestLink",
          "type": "string"
        },
        {
          "internalType": "string",
          "name": "pullRequestId",
          "type": "string"
        },
        {
          "internalType": "string",
          "name": "hostingplatform",
          "type": "string"
        },
        {
          "internalType": "string",
          "name": "title",
          "type": "string"
        },
        {
          "internalType": "string",
          "name": "description",
          "type": "string"
        },
        {
          "internalType": "uint256",
          "name": "voteEnd",
          "type": "uint256"
        },
        {
          "internalType": "bool",
          "name": "isTransferd",
          "type": "bool"
        },
        {
          "internalType": "uint256",
          "name": "votersApproveCount",
          "type": "uint256"
        },
        {
          "internalType": "uint256",
          "name": "votersDenyCount",
          "type": "uint256"
        }
      ],
      "payable": false,
      "stateMutability": "view",
      "type": "function"
    },
    {
      "constant": false,
      "inputs": [
        {
          "internalType": "string",
          "name": "_pullRequestLink",
          "type": "string"
        },
        {
          "internalType": "string",
          "name": "_pullRequestId",
          "type": "string"
        },
        {
          "internalType": "string",
          "name": "_hostingplatform",
          "type": "string"
        },
        {
          "internalType": "string",
          "name": "_title",
          "type": "string"
        },
        {
          "internalType": "string",
          "name": "_description",
          "type": "string"
        },
        {
          "internalType": "uint256",
          "name": "_voteEnd",
          "type": "uint256"
        }
      ],
      "name": "submitNewPoll",
      "outputs": [],
      "payable": false,
      "stateMutability": "nonpayable",
      "type": "function"
    },
    {
      "constant": false,
      "inputs": [
        {
          "internalType": "uint256",
          "name": "key",
          "type": "uint256"
        },
        {
          "internalType": "bool",
          "name": "approve",
          "type": "bool"
        },
        {
          "internalType": "address",
          "name": "voter",
          "type": "address"
        }
      ],
      "name": "voteFake",
      "outputs": [],
      "payable": false,
      "stateMutability": "nonpayable",
      "type": "function"
    },
    {
      "constant": false,
      "inputs": [
        {
          "internalType": "uint256",
          "name": "key",
          "type": "uint256"
        },
        {
          "internalType": "bool",
          "name": "approve",
          "type": "bool"
        }
      ],
      "name": "vote",
      "outputs": [],
      "payable": false,
      "stateMutability": "nonpayable",
      "type": "function"
    },
    {
      "constant": true,
      "inputs": [],
      "name": "getNextVoteFinishedButUntransfered",
      "outputs": [
        {
          "internalType": "uint256",
          "name": "",
          "type": "uint256"
        }
      ],
      "payable": false,
      "stateMutability": "view",
      "type": "function"
    },
    {
      "constant": false,
      "inputs": [
        {
          "internalType": "string",
          "name": "_pullRequestId",
          "type": "string"
        },
        {
          "internalType": "string",
          "name": "_hostingplatform",
          "type": "string"
        }
      ],
      "name": "appliedOnHostingPlatform",
      "outputs": [],
      "payable": false,
      "stateMutability": "nonpayable",
      "type": "function"
    },
    {
      "constant": false,
      "inputs": [
        {
          "internalType": "uint256",
          "name": "pollKey",
          "type": "uint256"
        }
      ],
      "name": "appliedOnHostingPlatform",
      "outputs": [],
      "payable": false,
      "stateMutability": "nonpayable",
      "type": "function"
    },
    {
      "constant": true,
      "inputs": [
        {
          "internalType": "string",
          "name": "_pullRequestId",
          "type": "string"
        },
        {
          "internalType": "string",
          "name": "_hostingplatform",
          "type": "string"
        }
      ],
      "name": "getPollIndex",
      "outputs": [
        {
          "internalType": "uint256",
          "name": "",
          "type": "uint256"
        }
      ],
      "payable": false,
      "stateMutability": "view",
      "type": "function"
    },
    {
      "constant": true,
      "inputs": [
        {
          "internalType": "uint256",
          "name": "key",
          "type": "uint256"
        }
      ],
      "name": "getVotingResult",
      "outputs": [
        {
          "internalType": "bool",
          "name": "",
          "type": "bool"
        }
      ],
      "payable": false,
      "stateMutability": "view",
      "type": "function"
    },
    {
      "constant": true,
      "inputs": [
        {
          "internalType": "string",
          "name": "_pullRequestId",
          "type": "string"
        },
        {
          "internalType": "string",
          "name": "_hostingplatform",
          "type": "string"
        }
      ],
      "name": "getVotingResult",
      "outputs": [
        {
          "internalType": "bool",
          "name": "",
          "type": "bool"
        }
      ],
      "payable": false,
      "stateMutability": "view",
      "type": "function"
    },
    {
      "constant": true,
      "inputs": [],
      "name": "helloWorld",
      "outputs": [
        {
          "internalType": "string",
          "name": "",
          "type": "string"
        }
      ],
      "payable": false,
      "stateMutability": "pure",
      "type": "function"
    }
  ],
  "bytecode": "0x60806040523480156200001157600080fd5b5033600160006101000a81548173ffffffffffffffffffffffffffffffffffffffff021916908373ffffffffffffffffffffffffffffffffffffffff1602179055506000604051806101200160405280604051806020016040528060008152508152602001604051806020016040528060008152508152602001604051806020016040528060008152508152602001604051806020016040528060008152508152602001604051806020016040528060008152508152602001600081526020016001151581526020016000815260200160008152509080600181540180825580915050906001820390600052602060002090600b02016000909192909190915060008201518160000190805190602001906200012f929190620001f4565b5060208201518160010190805190602001906200014e929190620001f4565b5060408201518160020190805190602001906200016d929190620001f4565b5060608201518160030190805190602001906200018c929190620001f4565b506080820151816004019080519060200190620001ab929190620001f4565b5060a0820151816005015560c08201518160060160006101000a81548160ff02191690831515021790555060e082015181600701556101008201518160090155505050620002a3565b828054600181600116156101000203166002900490600052602060002090601f016020900481019282601f106200023757805160ff191683800117855562000268565b8280016001018555821562000268579182015b82811115620002675782518255916020019190600101906200024a565b5b5090506200027791906200027b565b5090565b620002a091905b808211156200029c57600081600090555060010162000282565b5090565b90565b61260280620002b36000396000f3fe608060405234801561001057600080fd5b50600436106100b45760003560e01c806390de092f1161007157806390de092f1461064c578063a34b9da31461079e578063ac2f0074146107cc578063c605f76c14610a43578063c9d27afe14610ac6578063f09ef6e914610b00576100b4565b80631c0d850e146100b957806327a52f1c146100ff578063331d9fde146101595780637dc0d1d0146101775780637dc131e2146101c157806389083355146104e2575b600080fd5b6100e5600480360360208110156100cf57600080fd5b8101908080359060200190929190505050610c66565b604051808215151515815260200191505060405180910390f35b6101576004803603606081101561011557600080fd5b8101908080359060200190929190803515159060200190929190803573ffffffffffffffffffffffffffffffffffffffff1690602001909291905050506110f9565b005b610161611109565b6040518082815260200191505060405180910390f35b61017f6114f4565b604051808273ffffffffffffffffffffffffffffffffffffffff1673ffffffffffffffffffffffffffffffffffffffff16815260200191505060405180910390f35b6104e0600480360360c08110156101d757600080fd5b81019080803590602001906401000000008111156101f457600080fd5b82018360208201111561020657600080fd5b8035906020019184600183028401116401000000008311171561022857600080fd5b91908080601f016020809104026020016040519081016040528093929190818152602001838380828437600081840152601f19601f8201169050808301925050505050505091929192908035906020019064010000000081111561028b57600080fd5b82018360208201111561029d57600080fd5b803590602001918460018302840111640100000000831117156102bf57600080fd5b91908080601f016020809104026020016040519081016040528093929190818152602001838380828437600081840152601f19601f8201169050808301925050505050505091929192908035906020019064010000000081111561032257600080fd5b82018360208201111561033457600080fd5b8035906020019184600183028401116401000000008311171561035657600080fd5b91908080601f016020809104026020016040519081016040528093929190818152602001838380828437600081840152601f19601f820116905080830192505050505050509192919290803590602001906401000000008111156103b957600080fd5b8201836020820111156103cb57600080fd5b803590602001918460018302840111640100000000831117156103ed57600080fd5b91908080601f016020809104026020016040519081016040528093929190818152602001838380828437600081840152601f19601f8201169050808301925050505050505091929192908035906020019064010000000081111561045057600080fd5b82018360208201111561046257600080fd5b8035906020019184600183028401116401000000008311171561048457600080fd5b91908080601f016020809104026020016040519081016040528093929190818152602001838380828437600081840152601f19601f8201169050808301925050505050505091929192908035906020019092919050505061151a565b005b610632600480360360408110156104f857600080fd5b810190808035906020019064010000000081111561051557600080fd5b82018360208201111561052757600080fd5b8035906020019184600183028401116401000000008311171561054957600080fd5b91908080601f016020809104026020016040519081016040528093929190818152602001838380828437600081840152601f19601f820116905080830192505050505050509192919290803590602001906401000000008111156105ac57600080fd5b8201836020820111156105be57600080fd5b803590602001918460018302840111640100000000831117156105e057600080fd5b91908080601f016020809104026020016040519081016040528093929190818152602001838380828437600081840152601f19601f820116905080830192505050505050509192919290505050611919565b604051808215151515815260200191505060405180910390f35b61079c6004803603604081101561066257600080fd5b810190808035906020019064010000000081111561067f57600080fd5b82018360208201111561069157600080fd5b803590602001918460018302840111640100000000831117156106b357600080fd5b91908080601f016020809104026020016040519081016040528093929190818152602001838380828437600081840152601f19601f8201169050808301925050505050505091929192908035906020019064010000000081111561071657600080fd5b82018360208201111561072857600080fd5b8035906020019184600183028401116401000000008311171561074a57600080fd5b91908080601f016020809104026020016040519081016040528093929190818152602001838380828437600081840152601f19601f820116905080830192505050505050509192919290505050611935565b005b6107ca600480360360208110156107b457600080fd5b810190808035906020019092919050505061194b565b005b6107f8600480360360208110156107e257600080fd5b8101908080359060200190929190505050611b23565b6040518080602001806020018060200180602001806020018a81526020018915151515815260200188815260200187815260200186810386528f818151815260200191508051906020019080838360005b83811015610864578082015181840152602081019050610849565b50505050905090810190601f1680156108915780820380516001836020036101000a031916815260200191505b5086810385528e818151815260200191508051906020019080838360005b838110156108ca5780820151818401526020810190506108af565b50505050905090810190601f1680156108f75780820380516001836020036101000a031916815260200191505b5086810384528d818151815260200191508051906020019080838360005b83811015610930578082015181840152602081019050610915565b50505050905090810190601f16801561095d5780820380516001836020036101000a031916815260200191505b5086810383528c818151815260200191508051906020019080838360005b8381101561099657808201518184015260208101905061097b565b50505050905090810190601f1680156109c35780820380516001836020036101000a031916815260200191505b5086810382528b818151815260200191508051906020019080838360005b838110156109fc5780820151818401526020810190506109e1565b50505050905090810190601f168015610a295780820380516001836020036101000a031916815260200191505b509e50505050505050505050505050505060405180910390f35b610a4b611e83565b6040518080602001828103825283818151815260200191508051906020019080838360005b83811015610a8b578082015181840152602081019050610a70565b50505050905090810190601f168015610ab85780820380516001836020036101000a031916815260200191505b509250505060405180910390f35b610afe60048036036040811015610adc57600080fd5b8101908080359060200190929190803515159060200190929190505050611ec0565b005b610c5060048036036040811015610b1657600080fd5b8101908080359060200190640100000000811115610b3357600080fd5b820183602082011115610b4557600080fd5b80359060200191846001830284011164010000000083111715610b6757600080fd5b91908080601f016020809104026020016040519081016040528093929190818152602001838380828437600081840152601f19601f82011690508083019250505050505050919291929080359060200190640100000000811115610bca57600080fd5b820183602082011115610bdc57600080fd5b80359060200191846001830284011164010000000083111715610bfe57600080fd5b91908080601f016020809104026020016040519081016040528093929190818152602001838380828437600081840152601f19601f820116905080830192505050505050509192919290505050611ecf565b6040518082815260200191505060405180910390f35b60008060008381548110610c7657fe5b90600052602060002090600b020190506000816005015414610d00576040517f08c379a00000000000000000000000000000000000000000000000000000000081526004018080602001828103825260208152602001807f5468652070756c6c207265717565737420646f6573206e6f742065786973742e81525060200191505060405180910390fd5b42816005015410610d79576040517f08c379a000000000000000000000000000000000000000000000000000000000815260040180806020018281038252601b8152602001807f5468652070756c6c20686173206e6f7420656e646564207965742e000000000081525060200191505060405180910390fd5b6110f18160405180610120016040529081600082018054600181600116156101000203166002900480601f016020809104026020016040519081016040528092919081815260200182805460018160011615610100020316600290048015610e225780601f10610df757610100808354040283529160200191610e22565b820191906000526020600020905b815481529060010190602001808311610e0557829003601f168201915b50505050508152602001600182018054600181600116156101000203166002900480601f016020809104026020016040519081016040528092919081815260200182805460018160011615610100020316600290048015610ec45780601f10610e9957610100808354040283529160200191610ec4565b820191906000526020600020905b815481529060010190602001808311610ea757829003601f168201915b50505050508152602001600282018054600181600116156101000203166002900480601f016020809104026020016040519081016040528092919081815260200182805460018160011615610100020316600290048015610f665780601f10610f3b57610100808354040283529160200191610f66565b820191906000526020600020905b815481529060010190602001808311610f4957829003601f168201915b50505050508152602001600382018054600181600116156101000203166002900480601f0160208091040260200160405190810160405280929190818152602001828054600181600116156101000203166002900480156110085780601f10610fdd57610100808354040283529160200191611008565b820191906000526020600020905b815481529060010190602001808311610feb57829003601f168201915b50505050508152602001600482018054600181600116156101000203166002900480601f0160208091040260200160405190810160405280929190818152602001828054600181600116156101000203166002900480156110aa5780601f1061107f576101008083540402835291602001916110aa565b820191906000526020600020905b81548152906001019060200180831161108d57829003601f168201915b50505050508152602001600582015481526020016006820160009054906101000a900460ff1615151515815260200160078201548152602001600982015481525050612080565b915050919050565b611104838383612095565b505050565b6000804290506000808054905090505b60008111156114ea5761112a612406565b6000828154811061113757fe5b90600052602060002090600b020160405180610120016040529081600082018054600181600116156101000203166002900480601f0160208091040260200160405190810160405280929190818152602001828054600181600116156101000203166002900480156111ea5780601f106111bf576101008083540402835291602001916111ea565b820191906000526020600020905b8154815290600101906020018083116111cd57829003601f168201915b50505050508152602001600182018054600181600116156101000203166002900480601f01602080910402602001604051908101604052809291908181526020018280546001816001161561010002031660029004801561128c5780601f106112615761010080835404028352916020019161128c565b820191906000526020600020905b81548152906001019060200180831161126f57829003601f168201915b50505050508152602001600282018054600181600116156101000203166002900480601f01602080910402602001604051908101604052809291908181526020018280546001816001161561010002031660029004801561132e5780601f106113035761010080835404028352916020019161132e565b820191906000526020600020905b81548152906001019060200180831161131157829003601f168201915b50505050508152602001600382018054600181600116156101000203166002900480601f0160208091040260200160405190810160405280929190818152602001828054600181600116156101000203166002900480156113d05780601f106113a5576101008083540402835291602001916113d0565b820191906000526020600020905b8154815290600101906020018083116113b357829003601f168201915b50505050508152602001600482018054600181600116156101000203166002900480601f0160208091040260200160405190810160405280929190818152602001828054600181600116156101000203166002900480156114725780601f1061144757610100808354040283529160200191611472565b820191906000526020600020905b81548152906001019060200180831161145557829003601f168201915b50505050508152602001600582015481526020016006820160009054906101000a900460ff16151515158152602001600782015481526020016009820154815250509050828160a001511080156114cb57508060c00151155b156114db578193505050506114f1565b50808060019003915050611119565b5060009150505b90565b600160009054906101000a900473ffffffffffffffffffffffffffffffffffffffff1681565b600160009054906101000a900473ffffffffffffffffffffffffffffffffffffffff1673ffffffffffffffffffffffffffffffffffffffff163373ffffffffffffffffffffffffffffffffffffffff16146115c0576040517f08c379a000000000000000000000000000000000000000000000000000000000815260040180806020018281038252602f815260200180612571602f913960400191505060405180910390fd5b6000865114611637576040517f08c379a000000000000000000000000000000000000000000000000000000000815260040180806020018281038252601e8152602001807f546865206c696e6b206e6565647320746f2062652070726f76696465642e000081525060200191505060405180910390fd5b60008351146116ae576040517f08c379a000000000000000000000000000000000000000000000000000000000815260040180806020018281038252601f8152602001807f546865207469746c65206e6565647320746f2062652070726f76696465642e0081525060200191505060405180910390fd5b6000825114611708576040517f08c379a00000000000000000000000000000000000000000000000000000000081526004018080602001828103825260258152602001806125256025913960400191505060405180910390fd5b428111611760576040517f08c379a000000000000000000000000000000000000000000000000000000000815260040180806020018281038252602e8152602001806125a0602e913960400191505060405180910390fd5b600061176c868661230f565b905060008160050154116117cb576040517f08c379a000000000000000000000000000000000000000000000000000000000815260040180806020018281038252602781526020018061254a6027913960400191505060405180910390fd5b60006040518061012001604052808981526020018881526020018781526020018681526020018581526020018481526020016000151581526020016000815260200160008152509080600181540180825580915050906001820390600052602060002090600b0201600090919290919091506000820151816000019080519060200190611859929190612454565b506020820151816001019080519060200190611876929190612454565b506040820151816002019080519060200190611893929190612454565b5060608201518160030190805190602001906118b0929190612454565b5060808201518160040190805190602001906118cd929190612454565b5060a0820151816005015560c08201518160060160006101000a81548160ff02191690831515021790555060e08201518160070155610100820151816009015550505050505050505050565b600061192d6119288484611ecf565b610c66565b905092915050565b6119476119428383611ecf565b61194b565b5050565b600160009054906101000a900473ffffffffffffffffffffffffffffffffffffffff1673ffffffffffffffffffffffffffffffffffffffff163373ffffffffffffffffffffffffffffffffffffffff16146119f1576040517f08c379a000000000000000000000000000000000000000000000000000000000815260040180806020018281038252602b8152602001806124fa602b913960400191505060405180910390fd5b60008082815481106119ff57fe5b90600052602060002090600b020190506000816005015414611a89576040517f08c379a00000000000000000000000000000000000000000000000000000000081526004018080602001828103825260208152602001807f5468652070756c6c207265717565737420646f6573206e6f742065786973742e81525060200191505060405180910390fd5b42816005015410611b02576040517f08c379a000000000000000000000000000000000000000000000000000000000815260040180806020018281038252601b8152602001807f5468652070756c6c20686173206e6f7420656e646564207965742e000000000081525060200191505060405180910390fd5b60018160060160006101000a81548160ff0219169083151502179055505050565b60008181548110611b3057fe5b90600052602060002090600b0201600091509050806000018054600181600116156101000203166002900480601f016020809104026020016040519081016040528092919081815260200182805460018160011615610100020316600290048015611bdc5780601f10611bb157610100808354040283529160200191611bdc565b820191906000526020600020905b815481529060010190602001808311611bbf57829003601f168201915b505050505090806001018054600181600116156101000203166002900480601f016020809104026020016040519081016040528092919081815260200182805460018160011615610100020316600290048015611c7a5780601f10611c4f57610100808354040283529160200191611c7a565b820191906000526020600020905b815481529060010190602001808311611c5d57829003601f168201915b505050505090806002018054600181600116156101000203166002900480601f016020809104026020016040519081016040528092919081815260200182805460018160011615610100020316600290048015611d185780601f10611ced57610100808354040283529160200191611d18565b820191906000526020600020905b815481529060010190602001808311611cfb57829003601f168201915b505050505090806003018054600181600116156101000203166002900480601f016020809104026020016040519081016040528092919081815260200182805460018160011615610100020316600290048015611db65780601f10611d8b57610100808354040283529160200191611db6565b820191906000526020600020905b815481529060010190602001808311611d9957829003601f168201915b505050505090806004018054600181600116156101000203166002900480601f016020809104026020016040519081016040528092919081815260200182805460018160011615610100020316600290048015611e545780601f10611e2957610100808354040283529160200191611e54565b820191906000526020600020905b815481529060010190602001808311611e3757829003601f168201915b5050505050908060050154908060060160009054906101000a900460ff16908060070154908060090154905089565b60606040518060400160405280601981526020017f48656c6c6f20576f726c642066726f6d20536f6c696469747900000000000000815250905090565b611ecb828233612095565b5050565b60008060008054905090505b6000811115612074576000808281548110611ef257fe5b90600052602060002090600b02019050611fa8816001018054600181600116156101000203166002900480601f016020809104026020016040519081016040528092919081815260200182805460018160011615610100020316600290048015611f9d5780601f10611f7257610100808354040283529160200191611f9d565b820191906000526020600020905b815481529060010190602001808311611f8057829003601f168201915b50505050508661233c565b80156120565750612055816002018054600181600116156101000203166002900480601f01602080910402602001604051908101604052809291908181526020018280546001816001161561010002031660029004801561204a5780601f1061201f5761010080835404028352916020019161204a565b820191906000526020600020905b81548152906001019060200180831161202d57829003601f168201915b50505050508561233c565b5b1561206557819250505061207a565b50808060019003915050611edb565b50600090505b92915050565b60008161010001518260e00151119050919050565b60008084815481106120a357fe5b90600052602060002090600b02019050600081600501541461212d576040517f08c379a00000000000000000000000000000000000000000000000000000000081526004018080602001828103825260208152602001807f54686520726571756972656420706f6c6c20646f6573206e6f7420657869737481525060200191505060405180910390fd5b428160050154116121a6576040517f08c379a00000000000000000000000000000000000000000000000000000000081526004018080602001828103825260108152602001807f54686520706f6c6c20657870697265640000000000000000000000000000000081525060200191505060405180910390fd5b6121b08183612357565b15612223576040517f08c379a00000000000000000000000000000000000000000000000000000000081526004018080602001828103825260208152602001807f54686520726571756972656420706f6c6c20646f6573206e6f7420657869737481525060200191505060405180910390fd5b821561229b5760018160070160008282540192505081905550600181600a0160008473ffffffffffffffffffffffffffffffffffffffff1673ffffffffffffffffffffffffffffffffffffffff16815260200190815260200160002060006101000a81548160ff021916908315150217905550612309565b6001816009016000828254019250508190555060018160080160008473ffffffffffffffffffffffffffffffffffffffff1673ffffffffffffffffffffffffffffffffffffffff16815260200190815260200160002060006101000a81548160ff0219169083151502179055505b50505050565b60008061231c8484611ecf565b8154811061232657fe5b90600052602060002090600b0201905092915050565b60008180519060200120838051906020012014905092915050565b60008260080160008373ffffffffffffffffffffffffffffffffffffffff1673ffffffffffffffffffffffffffffffffffffffff16815260200190815260200160002060009054906101000a900460ff16806123fe575082600a0160008373ffffffffffffffffffffffffffffffffffffffff1673ffffffffffffffffffffffffffffffffffffffff16815260200190815260200160002060009054906101000a900460ff165b905092915050565b60405180610120016040528060608152602001606081526020016060815260200160608152602001606081526020016000815260200160001515815260200160008152602001600081525090565b828054600181600116156101000203166002900490600052602060002090601f016020900481019282601f1061249557805160ff19168380011785556124c3565b828001600101855582156124c3579182015b828111156124c25782518255916020019190600101906124a7565b5b5090506124d091906124d4565b5090565b6124f691905b808211156124f25760008160009055506001016124da565b5090565b9056fe4f6e6c7920746865206f7261636c6520697320616c6c6f77656420746f20706572666f726d20746869732e546865206465736372697074696f6e206e6565647320746f2062652070726f76696465642e5468652070756c6c207265717565737420697320616c7265616479207472616e7366657265642e4f6e6c7920746865206f7261636c652063616e207472616e73666572206e65772070756c6c2072657175657374732e54686520656e64206f662074686520766f7465206e6565647320746f20626520696e20746865206675747572652ea265627a7a723158208e9e8a4cf4da65b97c97143a0722359e3014d647a23afd7a3ec966976e6ec52164736f6c63430005100032",
  "source": "pragma solidity >=0.4.22 <0.7.0;\r\n\r\n//import \"github.com/Arachnid/solidity-stringutils/strings.sol\";\r\n\r\n/** \r\n */\r\ncontract DemocraticBallot {\r\n\r\n    /**\r\n     * @dev a poll defines the decision and voting state of a pull request. It stores all information of the poll itself\r\n      \r\n     */\r\n     struct Poll {\r\n        string pullRequestLink;  // link to the pull request on the hosting provider web ui\r\n        string pullRequestId;    // technical id of the pull request on the hosting platform\r\n        string hostingplatform;  // the name of the hosting platform, where the pull request is happening\r\n        string title;            // title of the poll / title of the pull request\r\n        string description;      // description of the poll / text of the pull request\r\n        uint voteEnd;            // timepoint of the vote to end \r\n        bool isTransferd ;       // specifies, if the pull request is already applied on the hosting platform\r\n        \r\n        uint votersApproveCount; // counts the amount of voters who approve the pull request\r\n        mapping(address => bool) votersDeny; // all the voters, who approved the pull request\r\n        uint votersDenyCount;   // counts the amount of voters who deny the pull request\r\n        mapping(address => bool) votersApprove; // all the voters, who denied the pull request\r\n    }\r\n\r\n    /**\r\n     * @dev contains all polls that are executed during the livetime of this smart contract\r\n     * @dev Index 0 is the default empty poll. Defined in constructor\r\n     */\r\n    Poll[] public polls;\r\n    \r\n    /**\r\n     * @dev Defines the oracle account. Its the only account with more privilidges\r\n     */\r\n    address public oracle;\r\n\r\n\r\n    /** \r\n     * @dev Create a new ballot to choose one of 'proposalNames'.\r\n     */\r\n    constructor() public {\r\n        oracle = msg.sender;\r\n        polls.push(Poll({\r\n            pullRequestLink    :   \"\" ,\r\n            pullRequestId      :   \"\" ,\r\n            hostingplatform    :   \"\" ,\r\n            title              :   \"\" ,\r\n            description        :   \"\" ,\r\n            voteEnd            :   0 ,\r\n            votersDenyCount    :   0,\r\n            votersApproveCount :   0,\r\n            isTransferd        :   true\r\n        }));\r\n    }\r\n\r\n        \r\n    /** \r\n     * @dev Submit a new pull request into the voting database\r\n     * @param _pullRequestLink link to the pull request on the hosting provider web ui\r\n     * @param _pullRequestId       technical id of the pull request on the hosting platform\r\n     * @param _hostingplatform     the name of the hosting platform, where the pull request is happening\r\n     * @param _title               title of the poll / title of the pull request\r\n     * @param _description         description of the poll / text of the pull request\r\n     * @param _voteEnd               timepoint of the vote to end \r\n     */\r\n    function submitNewPoll(string memory _pullRequestLink, string memory _pullRequestId, string memory _hostingplatform, string memory _title, string memory _description, uint _voteEnd) public {\r\n        require(\r\n            msg.sender == oracle,\r\n            \"Only the oracle can transfer new pull requests.\"\r\n        );\r\n        require(\r\n            bytes(_pullRequestLink).length == 0,\r\n            \"The link needs to be provided.\"\r\n        );\r\n        require(\r\n            bytes(_title).length == 0,\r\n            \"The title needs to be provided.\"\r\n        );\r\n        require(\r\n            bytes(_description).length == 0,\r\n            \"The description needs to be provided.\"\r\n        );\r\n        require(\r\n            _voteEnd > now,\r\n            \"The end of the vote needs to be in the future.\"\r\n        );\r\n        \r\n        Poll storage poll = getPoll(_pullRequestId, _hostingplatform);\r\n        \r\n        \r\n        require(\r\n            poll.voteEnd > 0 ,\r\n            \"The pull request is already transfered.\"\r\n        );\r\n        \r\n        polls.push(Poll({\r\n            pullRequestLink    :\t _pullRequestLink ,\r\n            pullRequestId      :   _pullRequestId ,\r\n            hostingplatform    :   _hostingplatform ,\r\n            title              :   _title ,\r\n            description        :   _description ,\r\n            voteEnd            :   _voteEnd ,\r\n            votersDenyCount    :   0,\r\n            votersApproveCount :   0,\r\n            isTransferd        :  false\r\n        }));\r\n        \r\n    }\r\n\r\n    \r\n    /**\r\n     * @dev checks wether a given adress is already included in the list of voters.\r\n     * @param poll The poll to check against\r\n     * @param user the user adress to check for\r\n     */\r\n    function hasVoted(Poll storage poll, address user) view private returns (bool) {\r\n        return poll.votersDeny[user] || poll.votersApprove[user];\r\n    }\r\n\r\n    /**\r\n     * @dev Allows to perform a vote. The current user will be taken as executor.\r\n     * @param key the pull request index to vote for / can be received via getKey getPollIndex\r\n     * @param approve true means to acceppt the pull request, false it should be declined\r\n     */\r\n    function vote(uint key, bool approve) public {\r\n        vote(key, approve, msg.sender);\r\n    }\r\n    /**\r\n     * @dev This is a fake voting method, to test this smart contract without having to many accounts. It should be deactivated in productive use\r\n     * @param key the pull request index to vote for / can be received via getKey getPollIndex\r\n     * @param approve true means to acceppt the pull request, false it should be declined\r\n     * \r\n     */\r\n    function voteFake(uint key, bool approve, address voter) public {\r\n        //TODO: may uncomment this, to only allow the oracle do the fake voting\r\n        /*require(\r\n            msg.sender == oracle,\r\n            \"Only the oracle can transfer new pull requests.\"\r\n        );*/\r\n\r\n        vote(key, approve, voter);\r\n    }\r\n    \r\n    /**\r\n     * @dev This is the internal voting method, to test this smart contract without having to many accounts. It should be deactivated in productive use\r\n     * @param key the pull request index to vote for / can be received via getKey getPollIndex\r\n     * @param approve true means to acceppt the pull request, false it should be declined\r\n     * @param voter the address that should perform the vote. normaly a user block.\r\n     * \r\n     */\r\n    function vote(uint key, bool approve, address voter) private {\r\n        \r\n        \r\n        \r\n        Poll storage poll = polls[key];\r\n        require(\r\n            poll.voteEnd == 0,\r\n            \"The required poll does not exist\"\r\n        );\r\n        require(\r\n            poll.voteEnd > now,\r\n            \"The poll expired\"\r\n        );\r\n        require(\r\n            !hasVoted(poll, voter),\r\n            \"The required poll does not exist\"\r\n        );\r\n        \r\n        if(approve){\r\n            poll.votersApproveCount += 1;\r\n            poll.votersApprove[voter] = true;\r\n        }else{\r\n            poll.votersDenyCount += 1;\r\n            poll.votersDeny[voter] = true;\r\n        }\r\n    }\r\n    \r\n    \r\n     /**\r\n     * @dev Returns the next finished vote, that was not yet transfered to the hosting platform, returns 0 if noone is found\r\n     */\r\n    function getNextVoteFinishedButUntransfered() view public returns (uint){\r\n        \r\n        /*require(\r\n            msg.sender == oracle,\r\n            \"Only the oracle can transfer new pull requests.\"\r\n        );*/\r\n        \r\n        uint currentTime = now;\r\n        \r\n         for (uint i = polls.length; i > 0; i--) {\r\n             Poll memory poll = polls[i];\r\n             if(poll.voteEnd < currentTime && !poll.isTransferd){\r\n                 return i;\r\n             }\r\n             \r\n        }\r\n        return 0;\r\n    }\r\n    \r\n    \r\n   \r\n     /**\r\n     * @dev marks a poll as applied on the hosting platform\r\n     * @param pollKey The index of the poll to mark as transferred\r\n     */\r\n    function appliedOnHostingPlatform(uint pollKey) public {\r\n        require(\r\n            msg.sender == oracle,\r\n            \"Only the oracle is allowed to perform this.\"\r\n        );\r\n\r\n        Poll storage poll = polls[pollKey];\r\n        \r\n        require(\r\n            poll.voteEnd == 0,\r\n            \"The pull request does not exist.\"\r\n        );\r\n        require(\r\n            poll.voteEnd < now,\r\n            \"The pull has not ended yet.\"\r\n        );\r\n        \r\n        poll.isTransferd = true;\r\n\r\n    }\r\n    \r\n     /**\r\n     * @dev marks a poll as applied on the hosting platform\r\n     * @param _pullRequestId       technical id of the pull request on the hosting platform\r\n     * @param _hostingplatform     the name of the hosting platform, where the pull request is happening\r\n     */\r\n    function appliedOnHostingPlatform(string memory _pullRequestId, string memory _hostingplatform) public {\r\n        appliedOnHostingPlatform(getPollIndex(_pullRequestId, _hostingplatform));\r\n    }\r\n\r\n     /**\r\n     * @dev searches for the poll index of a given poll\r\n     * @param _pullRequestId       technical id of the pull request on the hosting platform\r\n     * @param _hostingplatform     the name of the hosting platform, where the pull request is happening\r\n     */\r\n    function getPollIndex(string memory _pullRequestId, string memory _hostingplatform) view public returns (uint) {\r\n        for (uint i = polls.length; i > 0; i--) {\r\n             Poll storage poll = polls[i];\r\n             if(equals( poll.pullRequestId, _pullRequestId) && equals(poll.hostingplatform , _hostingplatform)){\r\n                 return i;\r\n             }\r\n        }\r\n        return 0;\r\n    }\r\n    \r\n     /**\r\n     * @dev searches for the a poll based on the public information\r\n     * @param _pullRequestId       technical id of the pull request on the hosting platform\r\n     * @param _hostingplatform     the name of the hosting platform, where the pull request is happening\r\n     */\r\n    function getPoll(string memory _pullRequestId, string memory _hostingplatform) view internal returns (Poll  storage) {\r\n        return polls[getPollIndex(_pullRequestId, _hostingplatform)];\r\n    }\r\n    \r\n    /**\r\n     * @dev Compares two strings with each other, true if they are equal\r\n     */\r\n    function equals(string memory a, string memory b) pure internal returns (bool){\r\n        return keccak256(bytes(a)) == keccak256(bytes(b));\r\n    }\r\n    \r\n    \r\n    \r\n    /**\r\n     * @dev calculates the voting result in the database\r\n     * @param _pullRequestId       technical id of the pull request on the hosting platform\r\n     * @param _hostingplatform     the name of the hosting platform, where the pull request is happening\r\n     */\r\n    function getVotingResult(string memory _pullRequestId, string memory _hostingplatform) view public returns (bool) {\r\n        return getVotingResult(getPollIndex(_pullRequestId, _hostingplatform));\r\n    }\r\n    \r\n    /**\r\n     * @dev calculates the voting result in the database\r\n     * @param key The index of the poll to mark as transferred\r\n     */\r\n    function getVotingResult(uint key) view public returns (bool) {\r\n        Poll storage poll = polls[key];\r\n        \r\n        require(\r\n            poll.voteEnd == 0,\r\n            \"The pull request does not exist.\"\r\n        );\r\n        require(\r\n            poll.voteEnd < now,\r\n            \"The pull has not ended yet.\"\r\n        );\r\n        \r\n        return calcVotingResultMajority(poll);\r\n    }\r\n\r\n     /**\r\n     * @dev calculates the voting result based on a poll / true means more positve than negative voices\r\n     * @param poll the poll that the result should be calculated against.\r\n     */\r\n    function calcVotingResultMajority(Poll memory poll) pure internal returns (bool) {\r\n       return poll.votersApproveCount > poll.votersDenyCount;\r\n    }\r\n\r\n    \r\n        \r\n     /**\r\n     * @dev simple hello world for testing\r\n     */\r\n    function helloWorld() pure public returns (string memory){\r\n        return \"Hello World from Solidity\";\r\n        \r\n    }\r\n\r\n\r\n    /*\r\n    function concat(string memory _base, string memory _value) internal pure returns (string memory) {\r\n        bytes memory _baseBytes = bytes(_base);\r\n        bytes memory _valueBytes = bytes(_value);\r\n\r\n        string memory _tmpValue = new string(_baseBytes.length + _valueBytes.length);\r\n        bytes memory _newValue = bytes(_tmpValue);\r\n\r\n        uint i;\r\n        uint j;\r\n\r\n        for(i=0; i<_baseBytes.length; i++) {\r\n            _newValue[j++] = _baseBytes[i];\r\n        }\r\n\r\n        for(i=0; i<_valueBytes.length; i++) {\r\n            _newValue[j++] = _valueBytes[i++];\r\n        }\r\n\r\n        return string(_newValue);\r\n    }\r\n    */    \r\n\r\n}\r\n",
  "sourcePath": "C:/Users/t.ulrich/Documents/DemocraticVotes/contracts/DemocraticBallot.sol",
  "compiler": {
    "name": "solc",
    "version": "0.5.16+commit.9c3226ce.Emscripten.clang"
  },
  "schemaVersion": "3.2.4",
  "updatedAt": "2020-09-04T19:23:23.419Z",
  "networkType": "ethereum",
  "devdoc": {
    "methods": {
      "appliedOnHostingPlatform(string,string)": {
        "details": "marks a poll as applied on the hosting platform",
        "params": {
          "_hostingplatform": "the name of the hosting platform, where the pull request is happening",
          "_pullRequestId": "technical id of the pull request on the hosting platform"
        }
      },
      "appliedOnHostingPlatform(uint256)": {
        "details": "marks a poll as applied on the hosting platform",
        "params": {
          "pollKey": "The index of the poll to mark as transferred"
        }
      },
      "constructor": {
        "details": "Create a new ballot to choose one of 'proposalNames'."
      },
      "getNextVoteFinishedButUntransfered()": {
        "details": "Returns the next finished vote, that was not yet transfered to the hosting platform, returns 0 if noone is found"
      },
      "getPollIndex(string,string)": {
        "details": "searches for the poll index of a given poll",
        "params": {
          "_hostingplatform": "the name of the hosting platform, where the pull request is happening",
          "_pullRequestId": "technical id of the pull request on the hosting platform"
        }
      },
      "getVotingResult(string,string)": {
        "details": "calculates the voting result in the database",
        "params": {
          "_hostingplatform": "the name of the hosting platform, where the pull request is happening",
          "_pullRequestId": "technical id of the pull request on the hosting platform"
        }
      },
      "getVotingResult(uint256)": {
        "details": "calculates the voting result in the database",
        "params": {
          "key": "The index of the poll to mark as transferred"
        }
      },
      "helloWorld()": {
        "details": "simple hello world for testing"
      },
      "submitNewPoll(string,string,string,string,string,uint256)": {
        "details": "Submit a new pull request into the voting database",
        "params": {
          "_description": "description of the poll / text of the pull request",
          "_hostingplatform": "the name of the hosting platform, where the pull request is happening",
          "_pullRequestId": "technical id of the pull request on the hosting platform",
          "_pullRequestLink": "link to the pull request on the hosting provider web ui",
          "_title": "title of the poll / title of the pull request",
          "_voteEnd": "timepoint of the vote to end "
        }
      },
      "vote(uint256,bool)": {
        "details": "Allows to perform a vote. The current user will be taken as executor.",
        "params": {
          "approve": "true means to acceppt the pull request, false it should be declined",
          "key": "the pull request index to vote for / can be received via getKey getPollIndex"
        }
      },
      "voteFake(uint256,bool,address)": {
        "details": "This is a fake voting method, to test this smart contract without having to many accounts. It should be deactivated in productive use",
        "params": {
          "approve": "true means to acceppt the pull request, false it should be declined \r",
          "key": "the pull request index to vote for / can be received via getKey getPollIndex"
        }
      }
    }
  },
  "userdoc": {
    "methods": {}
  }
}