{
  "contractName": "DemocraticBallot",
  "abi": [
    {
      "inputs": [],
      "payable": false,
      "stateMutability": "nonpayable",
      "type": "constructor"
    },
    {
      "constant": true,
      "inputs": [],
      "name": "oracle",
      "outputs": [
        {
          "internalType": "address",
          "name": "",
          "type": "address"
        }
      ],
      "payable": false,
      "stateMutability": "view",
      "type": "function"
    },
    {
      "constant": true,
      "inputs": [
        {
          "internalType": "uint256",
          "name": "",
          "type": "uint256"
        }
      ],
      "name": "polls",
      "outputs": [
        {
          "internalType": "string",
          "name": "pullRequestLink",
          "type": "string"
        },
        {
          "internalType": "string",
          "name": "pullRequestId",
          "type": "string"
        },
        {
          "internalType": "string",
          "name": "hostingplatform",
          "type": "string"
        },
        {
          "internalType": "string",
          "name": "title",
          "type": "string"
        },
        {
          "internalType": "string",
          "name": "description",
          "type": "string"
        },
        {
          "internalType": "uint256",
          "name": "voteEnd",
          "type": "uint256"
        },
        {
          "internalType": "bool",
          "name": "isTransferd",
          "type": "bool"
        },
        {
          "internalType": "uint256",
          "name": "votersApproveCount",
          "type": "uint256"
        },
        {
          "internalType": "uint256",
          "name": "votersDenyCount",
          "type": "uint256"
        }
      ],
      "payable": false,
      "stateMutability": "view",
      "type": "function"
    },
    {
      "constant": false,
      "inputs": [
        {
          "internalType": "string",
          "name": "_pullRequestLink",
          "type": "string"
        },
        {
          "internalType": "string",
          "name": "_pullRequestId",
          "type": "string"
        },
        {
          "internalType": "string",
          "name": "_hostingplatform",
          "type": "string"
        },
        {
          "internalType": "string",
          "name": "_title",
          "type": "string"
        },
        {
          "internalType": "string",
          "name": "_description",
          "type": "string"
        },
        {
          "internalType": "uint256",
          "name": "_voteEnd",
          "type": "uint256"
        }
      ],
      "name": "submitNewPoll",
      "outputs": [],
      "payable": false,
      "stateMutability": "nonpayable",
      "type": "function"
    },
    {
      "constant": false,
      "inputs": [
        {
          "internalType": "uint256",
          "name": "key",
          "type": "uint256"
        },
        {
          "internalType": "bool",
          "name": "approve",
          "type": "bool"
        },
        {
          "internalType": "address",
          "name": "voter",
          "type": "address"
        }
      ],
      "name": "voteFake",
      "outputs": [],
      "payable": false,
      "stateMutability": "nonpayable",
      "type": "function"
    },
    {
      "constant": false,
      "inputs": [
        {
          "internalType": "uint256",
          "name": "key",
          "type": "uint256"
        },
        {
          "internalType": "bool",
          "name": "approve",
          "type": "bool"
        }
      ],
      "name": "vote",
      "outputs": [],
      "payable": false,
      "stateMutability": "nonpayable",
      "type": "function"
    },
    {
      "constant": true,
      "inputs": [],
      "name": "getNextVoteFinishedButUntransfered",
      "outputs": [
        {
          "internalType": "uint256",
          "name": "",
          "type": "uint256"
        }
      ],
      "payable": false,
      "stateMutability": "view",
      "type": "function"
    },
    {
      "constant": true,
      "inputs": [],
      "name": "getPollLength",
      "outputs": [
        {
          "internalType": "uint256",
          "name": "",
          "type": "uint256"
        }
      ],
      "payable": false,
      "stateMutability": "view",
      "type": "function"
    },
    {
      "constant": false,
      "inputs": [
        {
          "internalType": "string",
          "name": "_pullRequestId",
          "type": "string"
        },
        {
          "internalType": "string",
          "name": "_hostingplatform",
          "type": "string"
        }
      ],
      "name": "appliedOnHostingPlatform",
      "outputs": [],
      "payable": false,
      "stateMutability": "nonpayable",
      "type": "function"
    },
    {
      "constant": false,
      "inputs": [
        {
          "internalType": "uint256",
          "name": "pollKey",
          "type": "uint256"
        }
      ],
      "name": "appliedOnHostingPlatform",
      "outputs": [],
      "payable": false,
      "stateMutability": "nonpayable",
      "type": "function"
    },
    {
      "constant": true,
      "inputs": [
        {
          "internalType": "string",
          "name": "_pullRequestId",
          "type": "string"
        },
        {
          "internalType": "string",
          "name": "_hostingplatform",
          "type": "string"
        }
      ],
      "name": "getPollIndex",
      "outputs": [
        {
          "internalType": "uint256",
          "name": "",
          "type": "uint256"
        }
      ],
      "payable": false,
      "stateMutability": "view",
      "type": "function"
    },
    {
      "constant": true,
      "inputs": [
        {
          "internalType": "uint256",
          "name": "key",
          "type": "uint256"
        }
      ],
      "name": "getVotingResult",
      "outputs": [
        {
          "internalType": "bool",
          "name": "",
          "type": "bool"
        }
      ],
      "payable": false,
      "stateMutability": "view",
      "type": "function"
    },
    {
      "constant": true,
      "inputs": [
        {
          "internalType": "string",
          "name": "_pullRequestId",
          "type": "string"
        },
        {
          "internalType": "string",
          "name": "_hostingplatform",
          "type": "string"
        }
      ],
      "name": "getVotingResult",
      "outputs": [
        {
          "internalType": "bool",
          "name": "",
          "type": "bool"
        }
      ],
      "payable": false,
      "stateMutability": "view",
      "type": "function"
    },
    {
      "constant": true,
      "inputs": [],
      "name": "helloWorld",
      "outputs": [
        {
          "internalType": "string",
          "name": "",
          "type": "string"
        }
      ],
      "payable": false,
      "stateMutability": "pure",
      "type": "function"
    },
    {
      "constant": false,
      "inputs": [],
      "name": "activateProduction",
      "outputs": [],
      "payable": false,
      "stateMutability": "nonpayable",
      "type": "function"
    }
  ],
  "bytecode": "0x60806040523480156200001157600080fd5b5060018060006101000a81548160ff021916908315150217905550336001806101000a81548173ffffffffffffffffffffffffffffffffffffffff021916908373ffffffffffffffffffffffffffffffffffffffff1602179055506000604051806101200160405280604051806020016040528060008152508152602001604051806020016040528060008152508152602001604051806020016040528060008152508152602001604051806020016040528060008152508152602001604051806020016040528060008152508152602001600081526020016001151581526020016000815260200160008152509080600181540180825580915050906001820390600052602060002090600b0201600090919290919091506000820151816000019080519060200190620001489291906200020d565b506020820151816001019080519060200190620001679291906200020d565b506040820151816002019080519060200190620001869291906200020d565b506060820151816003019080519060200190620001a59291906200020d565b506080820151816004019080519060200190620001c49291906200020d565b5060a0820151816005015560c08201518160060160006101000a81548160ff02191690831515021790555060e082015181600701556101008201518160090155505050620002bc565b828054600181600116156101000203166002900490600052602060002090601f016020900481019282601f106200025057805160ff191683800117855562000281565b8280016001018555821562000281579182015b828111156200028057825182559160200191906001019062000263565b5b50905062000290919062000294565b5090565b620002b991905b80821115620002b55760008160009055506001016200029b565b5090565b90565b6128a280620002cc6000396000f3fe608060405234801561001057600080fd5b50600436106100ea5760003560e01c806390de092f1161008c578063c0e7df0a11610066578063c0e7df0a14610a83578063c605f76c14610aa1578063c9d27afe14610b24578063f09ef6e914610b5e576100ea565b806390de092f1461068c578063a34b9da3146107de578063ac2f00741461080c576100ea565b806355fe24e3116100c857806355fe24e3146101ad5780637dc0d1d0146101b75780637dc131e2146102015780638908335514610522576100ea565b80631c0d850e146100ef57806327a52f1c14610135578063331d9fde1461018f575b600080fd5b61011b6004803603602081101561010557600080fd5b8101908080359060200190929190505050610cc4565b604051808215151515815260200191505060405180910390f35b61018d6004803603606081101561014b57600080fd5b8101908080359060200190929190803515159060200190929190803573ffffffffffffffffffffffffffffffffffffffff16906020019092919050505061111d565b005b6101976111e7565b6040518082815260200191505060405180910390f35b6101b5611691565b005b6101bf611713565b604051808273ffffffffffffffffffffffffffffffffffffffff1673ffffffffffffffffffffffffffffffffffffffff16815260200191505060405180910390f35b610520600480360360c081101561021757600080fd5b810190808035906020019064010000000081111561023457600080fd5b82018360208201111561024657600080fd5b8035906020019184600183028401116401000000008311171561026857600080fd5b91908080601f016020809104026020016040519081016040528093929190818152602001838380828437600081840152601f19601f820116905080830192505050505050509192919290803590602001906401000000008111156102cb57600080fd5b8201836020820111156102dd57600080fd5b803590602001918460018302840111640100000000831117156102ff57600080fd5b91908080601f016020809104026020016040519081016040528093929190818152602001838380828437600081840152601f19601f8201169050808301925050505050505091929192908035906020019064010000000081111561036257600080fd5b82018360208201111561037457600080fd5b8035906020019184600183028401116401000000008311171561039657600080fd5b91908080601f016020809104026020016040519081016040528093929190818152602001838380828437600081840152601f19601f820116905080830192505050505050509192919290803590602001906401000000008111156103f957600080fd5b82018360208201111561040b57600080fd5b8035906020019184600183028401116401000000008311171561042d57600080fd5b91908080601f016020809104026020016040519081016040528093929190818152602001838380828437600081840152601f19601f8201169050808301925050505050505091929192908035906020019064010000000081111561049057600080fd5b8201836020820111156104a257600080fd5b803590602001918460018302840111640100000000831117156104c457600080fd5b91908080601f016020809104026020016040519081016040528093929190818152602001838380828437600081840152601f19601f82011690508083019250505050505050919291929080359060200190929190505050611738565b005b6106726004803603604081101561053857600080fd5b810190808035906020019064010000000081111561055557600080fd5b82018360208201111561056757600080fd5b8035906020019184600183028401116401000000008311171561058957600080fd5b91908080601f016020809104026020016040519081016040528093929190818152602001838380828437600081840152601f19601f820116905080830192505050505050509192919290803590602001906401000000008111156105ec57600080fd5b8201836020820111156105fe57600080fd5b8035906020019184600183028401116401000000008311171561062057600080fd5b91908080601f016020809104026020016040519081016040528093929190818152602001838380828437600081840152601f19601f820116905080830192505050505050509192919290505050611b11565b604051808215151515815260200191505060405180910390f35b6107dc600480360360408110156106a257600080fd5b81019080803590602001906401000000008111156106bf57600080fd5b8201836020820111156106d157600080fd5b803590602001918460018302840111640100000000831117156106f357600080fd5b91908080601f016020809104026020016040519081016040528093929190818152602001838380828437600081840152601f19601f8201169050808301925050505050505091929192908035906020019064010000000081111561075657600080fd5b82018360208201111561076857600080fd5b8035906020019184600183028401116401000000008311171561078a57600080fd5b91908080601f016020809104026020016040519081016040528093929190818152602001838380828437600081840152601f19601f820116905080830192505050505050509192919290505050611b2d565b005b61080a600480360360208110156107f457600080fd5b8101908080359060200190929190505050611b43565b005b6108386004803603602081101561082257600080fd5b8101908080359060200190929190505050611cf5565b6040518080602001806020018060200180602001806020018a81526020018915151515815260200188815260200187815260200186810386528f818151815260200191508051906020019080838360005b838110156108a4578082015181840152602081019050610889565b50505050905090810190601f1680156108d15780820380516001836020036101000a031916815260200191505b5086810385528e818151815260200191508051906020019080838360005b8381101561090a5780820151818401526020810190506108ef565b50505050905090810190601f1680156109375780820380516001836020036101000a031916815260200191505b5086810384528d818151815260200191508051906020019080838360005b83811015610970578082015181840152602081019050610955565b50505050905090810190601f16801561099d5780820380516001836020036101000a031916815260200191505b5086810383528c818151815260200191508051906020019080838360005b838110156109d65780820151818401526020810190506109bb565b50505050905090810190601f168015610a035780820380516001836020036101000a031916815260200191505b5086810382528b818151815260200191508051906020019080838360005b83811015610a3c578082015181840152602081019050610a21565b50505050905090810190601f168015610a695780820380516001836020036101000a031916815260200191505b509e50505050505050505050505050505060405180910390f35b610a8b612055565b6040518082815260200191505060405180910390f35b610aa9612061565b6040518080602001828103825283818151815260200191508051906020019080838360005b83811015610ae9578082015181840152602081019050610ace565b50505050905090810190601f168015610b165780820380516001836020036101000a031916815260200191505b509250505060405180910390f35b610b5c60048036036040811015610b3a57600080fd5b810190808035906020019092919080351515906020019092919050505061209e565b005b610cae60048036036040811015610b7457600080fd5b8101908080359060200190640100000000811115610b9157600080fd5b820183602082011115610ba357600080fd5b80359060200191846001830284011164010000000083111715610bc557600080fd5b91908080601f016020809104026020016040519081016040528093929190818152602001838380828437600081840152601f19601f82011690508083019250505050505050919291929080359060200190640100000000811115610c2857600080fd5b820183602082011115610c3a57600080fd5b80359060200191846001830284011164010000000083111715610c5c57600080fd5b91908080601f016020809104026020016040519081016040528093929190818152602001838380828437600081840152601f19601f8201169050808301925050505050505091929192905050506120ad565b6040518082815260200191505060405180910390f35b60008060008381548110610cd457fe5b90600052602060002090600b020190506000816005015411610d41576040517f08c379a00000000000000000000000000000000000000000000000000000000081526004018080602001828103825260268152602001806127116026913960400191505060405180910390fd5b42816005015410610d9d576040517f08c379a00000000000000000000000000000000000000000000000000000000081526004018080602001828103825260218152602001806127376021913960400191505060405180910390fd5b6111158160405180610120016040529081600082018054600181600116156101000203166002900480601f016020809104026020016040519081016040528092919081815260200182805460018160011615610100020316600290048015610e465780601f10610e1b57610100808354040283529160200191610e46565b820191906000526020600020905b815481529060010190602001808311610e2957829003601f168201915b50505050508152602001600182018054600181600116156101000203166002900480601f016020809104026020016040519081016040528092919081815260200182805460018160011615610100020316600290048015610ee85780601f10610ebd57610100808354040283529160200191610ee8565b820191906000526020600020905b815481529060010190602001808311610ecb57829003601f168201915b50505050508152602001600282018054600181600116156101000203166002900480601f016020809104026020016040519081016040528092919081815260200182805460018160011615610100020316600290048015610f8a5780601f10610f5f57610100808354040283529160200191610f8a565b820191906000526020600020905b815481529060010190602001808311610f6d57829003601f168201915b50505050508152602001600382018054600181600116156101000203166002900480601f01602080910402602001604051908101604052809291908181526020018280546001816001161561010002031660029004801561102c5780601f106110015761010080835404028352916020019161102c565b820191906000526020600020905b81548152906001019060200180831161100f57829003601f168201915b50505050508152602001600482018054600181600116156101000203166002900480601f0160208091040260200160405190810160405280929190818152602001828054600181600116156101000203166002900480156110ce5780601f106110a3576101008083540402835291602001916110ce565b820191906000526020600020905b8154815290600101906020018083116110b157829003601f168201915b50505050508152602001600582015481526020016006820160009054906101000a900460ff161515151581526020016007820154815260200160098201548152505061225e565b915050919050565b600160009054906101000a900460ff166111d7576001809054906101000a900473ffffffffffffffffffffffffffffffffffffffff1673ffffffffffffffffffffffffffffffffffffffff163373ffffffffffffffffffffffffffffffffffffffff16146111d6576040517f08c379a00000000000000000000000000000000000000000000000000000000081526004018080602001828103825260358152602001806127836035913960400191505060405180910390fd5b5b6111e2838383612273565b505050565b6000600160009054906101000a900460ff166112a3576001809054906101000a900473ffffffffffffffffffffffffffffffffffffffff1673ffffffffffffffffffffffffffffffffffffffff163373ffffffffffffffffffffffffffffffffffffffff16146112a2576040517f08c379a00000000000000000000000000000000000000000000000000000000081526004018080602001828103825260358152602001806127836035913960400191505060405180910390fd5b5b6000429050600060016000805490500390505b6000811115611687576112c76125aa565b600082815481106112d457fe5b90600052602060002090600b020160405180610120016040529081600082018054600181600116156101000203166002900480601f0160208091040260200160405190810160405280929190818152602001828054600181600116156101000203166002900480156113875780601f1061135c57610100808354040283529160200191611387565b820191906000526020600020905b81548152906001019060200180831161136a57829003601f168201915b50505050508152602001600182018054600181600116156101000203166002900480601f0160208091040260200160405190810160405280929190818152602001828054600181600116156101000203166002900480156114295780601f106113fe57610100808354040283529160200191611429565b820191906000526020600020905b81548152906001019060200180831161140c57829003601f168201915b50505050508152602001600282018054600181600116156101000203166002900480601f0160208091040260200160405190810160405280929190818152602001828054600181600116156101000203166002900480156114cb5780601f106114a0576101008083540402835291602001916114cb565b820191906000526020600020905b8154815290600101906020018083116114ae57829003601f168201915b50505050508152602001600382018054600181600116156101000203166002900480601f01602080910402602001604051908101604052809291908181526020018280546001816001161561010002031660029004801561156d5780601f106115425761010080835404028352916020019161156d565b820191906000526020600020905b81548152906001019060200180831161155057829003601f168201915b50505050508152602001600482018054600181600116156101000203166002900480601f01602080910402602001604051908101604052809291908181526020018280546001816001161561010002031660029004801561160f5780601f106115e45761010080835404028352916020019161160f565b820191906000526020600020905b8154815290600101906020018083116115f257829003601f168201915b50505050508152602001600582015481526020016006820160009054906101000a900460ff16151515158152602001600782015481526020016009820154815250509050828160a0015110801561166857508060c00151155b156116785781935050505061168e565b508080600190039150506112b6565b5060009150505b90565b600160009054906101000a900460ff166116f6576040517f08c379a000000000000000000000000000000000000000000000000000000000815260040180806020018281038252602881526020018061269e6028913960400191505060405180910390fd5b6000600160006101000a81548160ff021916908315150217905550565b6001809054906101000a900473ffffffffffffffffffffffffffffffffffffffff1681565b600160009054906101000a900460ff166119c4576001809054906101000a900473ffffffffffffffffffffffffffffffffffffffff1673ffffffffffffffffffffffffffffffffffffffff163373ffffffffffffffffffffffffffffffffffffffff16146117f1576040517f08c379a00000000000000000000000000000000000000000000000000000000081526004018080602001828103825260358152602001806127836035913960400191505060405180910390fd5b600086511161184b576040517f08c379a00000000000000000000000000000000000000000000000000000000081526004018080602001828103825260248152602001806127b86024913960400191505060405180910390fd5b60008351116118a5576040517f08c379a00000000000000000000000000000000000000000000000000000000081526004018080602001828103825260258152602001806126c66025913960400191505060405180910390fd5b60008251116118ff576040517f08c379a000000000000000000000000000000000000000000000000000000000815260040180806020018281038252602b815260200180612758602b913960400191505060405180910390fd5b428111611957576040517f08c379a00000000000000000000000000000000000000000000000000000000081526004018080602001828103825260348152602001806127dc6034913960400191505060405180910390fd5b600061196386866124b3565b905060008160050154146119c2576040517f08c379a000000000000000000000000000000000000000000000000000000000815260040180806020018281038252602d815260200180612841602d913960400191505060405180910390fd5b505b60006040518061012001604052808881526020018781526020018681526020018581526020018481526020018381526020016000151581526020016000815260200160008152509080600181540180825580915050906001820390600052602060002090600b0201600090919290919091506000820151816000019080519060200190611a529291906125f8565b506020820151816001019080519060200190611a6f9291906125f8565b506040820151816002019080519060200190611a8c9291906125f8565b506060820151816003019080519060200190611aa99291906125f8565b506080820151816004019080519060200190611ac69291906125f8565b5060a0820151816005015560c08201518160060160006101000a81548160ff02191690831515021790555060e082015181600701556101008201518160090155505050505050505050565b6000611b25611b2084846120ad565b610cc4565b905092915050565b611b3f611b3a83836120ad565b611b43565b5050565b600160009054906101000a900460ff16611bfd576001809054906101000a900473ffffffffffffffffffffffffffffffffffffffff1673ffffffffffffffffffffffffffffffffffffffff163373ffffffffffffffffffffffffffffffffffffffff1614611bfc576040517f08c379a00000000000000000000000000000000000000000000000000000000081526004018080602001828103825260318152602001806128106031913960400191505060405180910390fd5b5b6000808281548110611c0b57fe5b90600052602060002090600b020190506000816005015411611c78576040517f08c379a00000000000000000000000000000000000000000000000000000000081526004018080602001828103825260268152602001806127116026913960400191505060405180910390fd5b42816005015410611cd4576040517f08c379a00000000000000000000000000000000000000000000000000000000081526004018080602001828103825260218152602001806127376021913960400191505060405180910390fd5b60018160060160006101000a81548160ff0219169083151502179055505050565b60008181548110611d0257fe5b90600052602060002090600b0201600091509050806000018054600181600116156101000203166002900480601f016020809104026020016040519081016040528092919081815260200182805460018160011615610100020316600290048015611dae5780601f10611d8357610100808354040283529160200191611dae565b820191906000526020600020905b815481529060010190602001808311611d9157829003601f168201915b505050505090806001018054600181600116156101000203166002900480601f016020809104026020016040519081016040528092919081815260200182805460018160011615610100020316600290048015611e4c5780601f10611e2157610100808354040283529160200191611e4c565b820191906000526020600020905b815481529060010190602001808311611e2f57829003601f168201915b505050505090806002018054600181600116156101000203166002900480601f016020809104026020016040519081016040528092919081815260200182805460018160011615610100020316600290048015611eea5780601f10611ebf57610100808354040283529160200191611eea565b820191906000526020600020905b815481529060010190602001808311611ecd57829003601f168201915b505050505090806003018054600181600116156101000203166002900480601f016020809104026020016040519081016040528092919081815260200182805460018160011615610100020316600290048015611f885780601f10611f5d57610100808354040283529160200191611f88565b820191906000526020600020905b815481529060010190602001808311611f6b57829003601f168201915b505050505090806004018054600181600116156101000203166002900480601f0160208091040260200160405190810160405280929190818152602001828054600181600116156101000203166002900480156120265780601f10611ffb57610100808354040283529160200191612026565b820191906000526020600020905b81548152906001019060200180831161200957829003601f168201915b5050505050908060050154908060060160009054906101000a900460ff16908060070154908060090154905089565b60008080549050905090565b60606040518060400160405280601f81526020017f564f54453a2048656c6c6f20576f726c642066726f6d20536f6c696469747900815250905090565b6120a9828233612273565b5050565b60008060008054905090505b60008111156122525760008082815481106120d057fe5b90600052602060002090600b02019050612186816001018054600181600116156101000203166002900480601f01602080910402602001604051908101604052809291908181526020018280546001816001161561010002031660029004801561217b5780601f106121505761010080835404028352916020019161217b565b820191906000526020600020905b81548152906001019060200180831161215e57829003601f168201915b5050505050866124e0565b80156122345750612233816002018054600181600116156101000203166002900480601f0160208091040260200160405190810160405280929190818152602001828054600181600116156101000203166002900480156122285780601f106121fd57610100808354040283529160200191612228565b820191906000526020600020905b81548152906001019060200180831161220b57829003601f168201915b5050505050856124e0565b5b15612243578192505050612258565b508080600190039150506120b9565b50600090505b92915050565b60008161010001518260e00151119050919050565b600080848154811061228157fe5b90600052602060002090600b0201905060008160050154116122ee576040517f08c379a00000000000000000000000000000000000000000000000000000000081526004018080602001828103825260268152602001806126eb6026913960400191505060405180910390fd5b42816005015411612367576040517f08c379a00000000000000000000000000000000000000000000000000000000081526004018080602001828103825260168152602001807f564f54453a2054686520706f6c6c20657870697265640000000000000000000081525060200191505060405180910390fd5b61237181836124fb565b156123c7576040517f08c379a00000000000000000000000000000000000000000000000000000000081526004018080602001828103825260268152602001806126eb6026913960400191505060405180910390fd5b821561243f5760018160070160008282540192505081905550600181600a0160008473ffffffffffffffffffffffffffffffffffffffff1673ffffffffffffffffffffffffffffffffffffffff16815260200190815260200160002060006101000a81548160ff0219169083151502179055506124ad565b6001816009016000828254019250508190555060018160080160008473ffffffffffffffffffffffffffffffffffffffff1673ffffffffffffffffffffffffffffffffffffffff16815260200190815260200160002060006101000a81548160ff0219169083151502179055505b50505050565b6000806124c084846120ad565b815481106124ca57fe5b90600052602060002090600b0201905092915050565b60008180519060200120838051906020012014905092915050565b60008260080160008373ffffffffffffffffffffffffffffffffffffffff1673ffffffffffffffffffffffffffffffffffffffff16815260200190815260200160002060009054906101000a900460ff16806125a2575082600a0160008373ffffffffffffffffffffffffffffffffffffffff1673ffffffffffffffffffffffffffffffffffffffff16815260200190815260200160002060009054906101000a900460ff165b905092915050565b60405180610120016040528060608152602001606081526020016060815260200160608152602001606081526020016000815260200160001515815260200160008152602001600081525090565b828054600181600116156101000203166002900490600052602060002090601f016020900481019282601f1061263957805160ff1916838001178555612667565b82800160010185558215612667579182015b8281111561266657825182559160200191906001019061264b565b5b5090506126749190612678565b5090565b61269a91905b8082111561269657600081600090555060010161267e565b5090565b9056fe564f54453a2050726f64756374696f6e204d6f646520697320616c7265616479206163746976652e564f54453a20546865207469746c65206e6565647320746f2062652070726f76696465642e564f54453a2054686520726571756972656420706f6c6c20646f6573206e6f74206578697374564f54453a205468652070756c6c207265717565737420646f6573206e6f742065786973742e564f54453a205468652070756c6c20686173206e6f7420656e646564207965742e564f54453a20546865206465736372697074696f6e206e6565647320746f2062652070726f76696465642e564f54453a204f6e6c7920746865206f7261636c652063616e207472616e73666572206e65772070756c6c2072657175657374732e564f54453a20546865206c696e6b206e6565647320746f2062652070726f76696465642e564f54453a2054686520656e64206f662074686520766f7465206e6565647320746f20626520696e20746865206675747572652e564f54453a204f6e6c7920746865206f7261636c6520697320616c6c6f77656420746f20706572666f726d20746869732e564f54453a205468652070756c6c207265717565737420697320616c7265616479207472616e7366657265642ea265627a7a72315820a989a39791226a42af865ae0d0728a840741acfa68c3c75e3275126f1214092764736f6c63430005100032",
  "source": "pragma solidity >=0.4.22 <0.7.0;\r\n\r\n\r\n/** \r\nSmart Contract for the Project https://github.com/flensburger88/DemocraticVotes\r\n */\r\ncontract DemocraticBallot {\r\n\r\n    /**\r\n     * @dev a poll defines the decision and voting state of a pull request. It stores all information of the poll itself\r\n      \r\n     */\r\n     struct Poll {\r\n        string pullRequestLink;  // link to the pull request on the hosting provider web ui\r\n        string pullRequestId;    // technical id of the pull request on the hosting platform\r\n        string hostingplatform;  // the name of the hosting platform, where the pull request is happening\r\n        string title;            // title of the poll / title of the pull request\r\n        string description;      // description of the poll / text of the pull request\r\n        uint voteEnd;            // timepoint of the vote to end \r\n        bool isTransferd ;       // specifies, if the pull request is already applied on the hosting platform\r\n        \r\n        uint votersApproveCount; // counts the amount of voters who approve the pull request\r\n        mapping(address => bool) votersDeny; // all the voters, who approved the pull request\r\n        uint votersDenyCount;   // counts the amount of voters who deny the pull request\r\n        mapping(address => bool) votersApprove; // all the voters, who denied the pull request\r\n    }\r\n\r\n    /**\r\n     * @dev contains all polls that are executed during the livetime of this smart contract\r\n     * @dev Index 0 is the default empty poll. Defined in constructor\r\n     */\r\n    Poll[] public polls;\r\n    \r\n    bool internal devMode;\r\n    \r\n    /**\r\n     * @dev Defines the oracle account. Its the only account with more privilidges\r\n     */\r\n    address public oracle;\r\n\r\n\r\n    /** \r\n     * @dev Create a new ballot to choose one of 'proposalNames'.\r\n     */\r\n    constructor() public {\r\n        devMode = true;\r\n        oracle = msg.sender;\r\n        polls.push(Poll({\r\n            pullRequestLink    :   \"\" ,\r\n            pullRequestId      :   \"\" ,\r\n            hostingplatform    :   \"\" ,\r\n            title              :   \"\" ,\r\n            description        :   \"\" ,\r\n            voteEnd            :   0 ,\r\n            votersDenyCount    :   0,\r\n            votersApproveCount :   0,\r\n            isTransferd        :   true\r\n        }));\r\n    }\r\n\r\n        \r\n    /** \r\n     * @dev Submit a new pull request into the voting database\r\n     * @param _pullRequestLink link to the pull request on the hosting provider web ui\r\n     * @param _pullRequestId       technical id of the pull request on the hosting platform\r\n     * @param _hostingplatform     the name of the hosting platform, where the pull request is happening\r\n     * @param _title               title of the poll / title of the pull request\r\n     * @param _description         description of the poll / text of the pull request\r\n     * @param _voteEnd               timepoint of the vote to end \r\n     */\r\n    function submitNewPoll(string memory _pullRequestLink, string memory _pullRequestId, string memory _hostingplatform, string memory _title, string memory _description, uint _voteEnd) public {\r\n        if(!devMode){\r\n            require(\r\n                msg.sender == oracle,\r\n                \"VOTE: Only the oracle can transfer new pull requests.\"\r\n            );\r\n            require(\r\n                bytes(_pullRequestLink).length > 0,\r\n                \"VOTE: The link needs to be provided.\"\r\n            );\r\n            require(\r\n                bytes(_title).length > 0,\r\n                \"VOTE: The title needs to be provided.\"\r\n            );\r\n            require(\r\n                bytes(_description).length > 0,\r\n                \"VOTE: The description needs to be provided.\"\r\n            );\r\n            require(\r\n                _voteEnd > now,\r\n                \"VOTE: The end of the vote needs to be in the future.\"\r\n            );\r\n            \r\n            Poll storage poll = getPoll(_pullRequestId, _hostingplatform);\r\n            \r\n            \r\n            require(\r\n                poll.voteEnd == 0 ,\r\n                \"VOTE: The pull request is already transfered.\"\r\n            );\r\n        }\r\n\r\n        \r\n        polls.push(Poll({\r\n            pullRequestLink    :\t _pullRequestLink ,\r\n            pullRequestId      :   _pullRequestId ,\r\n            hostingplatform    :   _hostingplatform ,\r\n            title              :   _title ,\r\n            description        :   _description ,\r\n            voteEnd            :   _voteEnd ,\r\n            votersDenyCount    :   0,\r\n            votersApproveCount :   0,\r\n            isTransferd        :  false\r\n        }));\r\n        \r\n    }\r\n\r\n    \r\n    /**\r\n     * @dev checks wether a given adress is already included in the list of voters.\r\n     * @param poll The poll to check against\r\n     * @param user the user adress to check for\r\n     */\r\n    function hasVoted(Poll storage poll, address user) view private returns (bool) {\r\n        return poll.votersDeny[user] || poll.votersApprove[user];\r\n    }\r\n\r\n    /**\r\n     * @dev Allows to perform a vote. The current user will be taken as executor.\r\n     * @param key the pull request index to vote for / can be received via getKey getPollIndex\r\n     * @param approve true means to acceppt the pull request, false it should be declined\r\n     */\r\n    function vote(uint key, bool approve) public {\r\n        vote(key, approve, msg.sender);\r\n    }\r\n    /**\r\n     * @dev This is a fake voting method, to test this smart contract without having to many accounts. It should be deactivated in productive use\r\n     * @param key the pull request index to vote for / can be received via getKey getPollIndex\r\n     * @param approve true means to acceppt the pull request, false it should be declined\r\n     * \r\n     */\r\n    function voteFake(uint key, bool approve, address voter) public {\r\n        if(!devMode){\r\n            require(\r\n                msg.sender == oracle,\r\n                \"VOTE: Only the oracle can transfer new pull requests.\"\r\n            );\r\n        }\r\n\r\n        vote(key, approve, voter);\r\n    }\r\n    \r\n    /**\r\n     * @dev This is the internal voting method, to test this smart contract without having to many accounts. It should be deactivated in productive use\r\n     * @param key the pull request index to vote for / can be received via getKey getPollIndex\r\n     * @param approve true means to acceppt the pull request, false it should be declined\r\n     * @param voter the address that should perform the vote. normaly a user block.\r\n     * \r\n     */\r\n    function vote(uint key, bool approve, address voter) private {\r\n        Poll storage poll = polls[key];\r\n        require(\r\n            poll.voteEnd > 0,\r\n            \"VOTE: The required poll does not exist\"\r\n        );\r\n        require(\r\n            poll.voteEnd > now,\r\n            \"VOTE: The poll expired\"\r\n        );\r\n        require(\r\n            !hasVoted(poll, voter),\r\n            \"VOTE: The required poll does not exist\"\r\n        );\r\n        \r\n        if(approve){\r\n            poll.votersApproveCount += 1;\r\n            poll.votersApprove[voter] = true;\r\n        }else{\r\n            poll.votersDenyCount += 1;\r\n            poll.votersDeny[voter] = true;\r\n        }\r\n    }\r\n    \r\n    \r\n     /**\r\n     * @dev Returns the next finished vote, that was not yet transfered to the hosting platform, returns 0 if noone is found\r\n     */\r\n    function getNextVoteFinishedButUntransfered() view public returns (uint){\r\n        if(!devMode){\r\n            require(\r\n                msg.sender == oracle,\r\n                \"VOTE: Only the oracle can transfer new pull requests.\"\r\n            );\r\n        }\r\n        \r\n        uint currentTime = now;\r\n        \r\n         for (uint i = polls.length -1 ; i > 0; i--) {\r\n             Poll memory poll = polls[i];\r\n             if(poll.voteEnd < currentTime && !poll.isTransferd){\r\n                 return i;\r\n             }\r\n             \r\n        }\r\n        return 0;\r\n    }\r\n\t\r\n\t     /**\r\n     * @dev Returns length of the poll array\r\n     */\r\n    function getPollLength() view public returns (uint){\r\n        return polls.length;\r\n    }\r\n    \r\n    \r\n   \r\n     /**\r\n     * @dev marks a poll as applied on the hosting platform\r\n     * @param pollKey The index of the poll to mark as transferred\r\n     */\r\n    function appliedOnHostingPlatform(uint pollKey) public {\r\n        if(!devMode){\r\n            require(\r\n                msg.sender == oracle,\r\n                \"VOTE: Only the oracle is allowed to perform this.\"\r\n            );\r\n        }\r\n\r\n        Poll storage poll = polls[pollKey];\r\n        \r\n        require(\r\n            poll.voteEnd > 0,\r\n            \"VOTE: The pull request does not exist.\"\r\n        );\r\n        require(\r\n            poll.voteEnd < now,\r\n            \"VOTE: The pull has not ended yet.\"\r\n        );\r\n        \r\n        poll.isTransferd = true;\r\n\r\n    }\r\n    \r\n     /**\r\n     * @dev marks a poll as applied on the hosting platform\r\n     * @param _pullRequestId       technical id of the pull request on the hosting platform\r\n     * @param _hostingplatform     the name of the hosting platform, where the pull request is happening\r\n     */\r\n    function appliedOnHostingPlatform(string memory _pullRequestId, string memory _hostingplatform) public {\r\n        appliedOnHostingPlatform(getPollIndex(_pullRequestId, _hostingplatform));\r\n    }\r\n\r\n     /**\r\n     * @dev searches for the poll index of a given poll\r\n     * @param _pullRequestId       technical id of the pull request on the hosting platform\r\n     * @param _hostingplatform     the name of the hosting platform, where the pull request is happening\r\n     */\r\n    function getPollIndex(string memory _pullRequestId, string memory _hostingplatform) view public returns (uint) {\r\n        for (uint i = polls.length; i > 0; i--) {\r\n             Poll storage poll = polls[i];\r\n             if(equals( poll.pullRequestId, _pullRequestId) && equals(poll.hostingplatform , _hostingplatform)){\r\n                 return i;\r\n             }\r\n        }\r\n        return 0;\r\n    }\r\n    \r\n     /**\r\n     * @dev searches for the a poll based on the public information\r\n     * @param _pullRequestId       technical id of the pull request on the hosting platform\r\n     * @param _hostingplatform     the name of the hosting platform, where the pull request is happening\r\n     */\r\n    function getPoll(string memory _pullRequestId, string memory _hostingplatform) view internal returns (Poll  storage) {\r\n        return polls[getPollIndex(_pullRequestId, _hostingplatform)];\r\n    }\r\n    \r\n    /**\r\n     * @dev Compares two strings with each other, true if they are equal\r\n     */\r\n    function equals(string memory a, string memory b) pure internal returns (bool){\r\n        return keccak256(bytes(a)) == keccak256(bytes(b));\r\n    }\r\n    \r\n    \r\n    \r\n    /**\r\n     * @dev calculates the voting result in the database\r\n     * @param _pullRequestId       technical id of the pull request on the hosting platform\r\n     * @param _hostingplatform     the name of the hosting platform, where the pull request is happening\r\n     */\r\n    function getVotingResult(string memory _pullRequestId, string memory _hostingplatform) view public returns (bool) {\r\n        return getVotingResult(getPollIndex(_pullRequestId, _hostingplatform));\r\n    }\r\n    \r\n    /**\r\n     * @dev calculates the voting result in the database\r\n     * @param key The index of the poll to mark as transferred\r\n     */\r\n    function getVotingResult(uint key) view public returns (bool) {\r\n        Poll storage poll = polls[key];\r\n        \r\n        require(\r\n            poll.voteEnd > 0,\r\n            \"VOTE: The pull request does not exist.\"\r\n        );\r\n        require(\r\n            poll.voteEnd < now,\r\n            \"VOTE: The pull has not ended yet.\"\r\n        );\r\n        \r\n        return calcVotingResultMajority(poll);\r\n    }\r\n\r\n     /**\r\n     * @dev calculates the voting result based on a poll / true means more positve than negative voices\r\n     * @param poll the poll that the result should be calculated against.\r\n     */\r\n    function calcVotingResultMajority(Poll memory poll) pure internal returns (bool) {\r\n       return poll.votersApproveCount > poll.votersDenyCount;\r\n    }\r\n\r\n    \r\n        \r\n     /**\r\n     * @dev simple hello world for testing\r\n     */\r\n    function helloWorld() pure public returns (string memory){\r\n        return \"VOTE: Hello World from Solidity\";\r\n        \r\n    }\r\n\r\n     /**\r\n     * @dev simple hello world for testing\r\n     */\r\n    function activateProduction() public {\r\n        require(\r\n            devMode,\r\n            \"VOTE: Production Mode is already active.\"\r\n        );\r\n        \r\n        devMode = false;\r\n    }\r\n\r\n}\r\n",
  "sourcePath": "C:/Users/t.ulrich/Documents/DemocraticVotes/contracts/DemocraticBallot.sol",
  "compiler": {
    "name": "solc",
    "version": "0.5.16+commit.9c3226ce.Emscripten.clang"
  },
  "schemaVersion": "3.2.4",
  "updatedAt": "2020-09-11T08:03:33.249Z",
  "networkType": "ethereum",
  "devdoc": {
    "methods": {
      "activateProduction()": {
        "details": "simple hello world for testing"
      },
      "appliedOnHostingPlatform(string,string)": {
        "details": "marks a poll as applied on the hosting platform",
        "params": {
          "_hostingplatform": "the name of the hosting platform, where the pull request is happening",
          "_pullRequestId": "technical id of the pull request on the hosting platform"
        }
      },
      "appliedOnHostingPlatform(uint256)": {
        "details": "marks a poll as applied on the hosting platform",
        "params": {
          "pollKey": "The index of the poll to mark as transferred"
        }
      },
      "constructor": {
        "details": "Create a new ballot to choose one of 'proposalNames'."
      },
      "getNextVoteFinishedButUntransfered()": {
        "details": "Returns the next finished vote, that was not yet transfered to the hosting platform, returns 0 if noone is found"
      },
      "getPollIndex(string,string)": {
        "details": "searches for the poll index of a given poll",
        "params": {
          "_hostingplatform": "the name of the hosting platform, where the pull request is happening",
          "_pullRequestId": "technical id of the pull request on the hosting platform"
        }
      },
      "getPollLength()": {
        "details": "Returns length of the poll array"
      },
      "getVotingResult(string,string)": {
        "details": "calculates the voting result in the database",
        "params": {
          "_hostingplatform": "the name of the hosting platform, where the pull request is happening",
          "_pullRequestId": "technical id of the pull request on the hosting platform"
        }
      },
      "getVotingResult(uint256)": {
        "details": "calculates the voting result in the database",
        "params": {
          "key": "The index of the poll to mark as transferred"
        }
      },
      "helloWorld()": {
        "details": "simple hello world for testing"
      },
      "submitNewPoll(string,string,string,string,string,uint256)": {
        "details": "Submit a new pull request into the voting database",
        "params": {
          "_description": "description of the poll / text of the pull request",
          "_hostingplatform": "the name of the hosting platform, where the pull request is happening",
          "_pullRequestId": "technical id of the pull request on the hosting platform",
          "_pullRequestLink": "link to the pull request on the hosting provider web ui",
          "_title": "title of the poll / title of the pull request",
          "_voteEnd": "timepoint of the vote to end "
        }
      },
      "vote(uint256,bool)": {
        "details": "Allows to perform a vote. The current user will be taken as executor.",
        "params": {
          "approve": "true means to acceppt the pull request, false it should be declined",
          "key": "the pull request index to vote for / can be received via getKey getPollIndex"
        }
      },
      "voteFake(uint256,bool,address)": {
        "details": "This is a fake voting method, to test this smart contract without having to many accounts. It should be deactivated in productive use",
        "params": {
          "approve": "true means to acceppt the pull request, false it should be declined \r",
          "key": "the pull request index to vote for / can be received via getKey getPollIndex"
        }
      }
    }
  },
  "userdoc": {
    "methods": {},
    "notice": "Smart Contract for the Project https://github.com/flensburger88/DemocraticVotes"
  }
}