{
  "contractName": "DemocraticBallot",
  "abi": [
    {
      "inputs": [],
      "payable": false,
      "stateMutability": "nonpayable",
      "type": "constructor"
    },
    {
      "constant": true,
      "inputs": [],
      "name": "oracle",
      "outputs": [
        {
          "internalType": "address",
          "name": "",
          "type": "address"
        }
      ],
      "payable": false,
      "stateMutability": "view",
      "type": "function"
    },
    {
      "constant": true,
      "inputs": [
        {
          "internalType": "uint256",
          "name": "",
          "type": "uint256"
        }
      ],
      "name": "polls",
      "outputs": [
        {
          "internalType": "string",
          "name": "pullRequestLink",
          "type": "string"
        },
        {
          "internalType": "string",
          "name": "pullRequestId",
          "type": "string"
        },
        {
          "internalType": "string",
          "name": "hostingplatform",
          "type": "string"
        },
        {
          "internalType": "string",
          "name": "title",
          "type": "string"
        },
        {
          "internalType": "string",
          "name": "description",
          "type": "string"
        },
        {
          "internalType": "uint256",
          "name": "voteEnd",
          "type": "uint256"
        },
        {
          "internalType": "bool",
          "name": "isTransferd",
          "type": "bool"
        },
        {
          "internalType": "uint256",
          "name": "votersApproveCount",
          "type": "uint256"
        },
        {
          "internalType": "uint256",
          "name": "votersDenyCount",
          "type": "uint256"
        }
      ],
      "payable": false,
      "stateMutability": "view",
      "type": "function"
    },
    {
      "constant": false,
      "inputs": [
        {
          "internalType": "string",
          "name": "_pullRequestLink",
          "type": "string"
        },
        {
          "internalType": "string",
          "name": "_pullRequestId",
          "type": "string"
        },
        {
          "internalType": "string",
          "name": "_hostingplatform",
          "type": "string"
        },
        {
          "internalType": "string",
          "name": "_title",
          "type": "string"
        },
        {
          "internalType": "string",
          "name": "_description",
          "type": "string"
        },
        {
          "internalType": "uint256",
          "name": "_voteEnd",
          "type": "uint256"
        }
      ],
      "name": "submitNewPoll",
      "outputs": [],
      "payable": false,
      "stateMutability": "nonpayable",
      "type": "function"
    },
    {
      "constant": false,
      "inputs": [
        {
          "internalType": "uint256",
          "name": "key",
          "type": "uint256"
        },
        {
          "internalType": "bool",
          "name": "approve",
          "type": "bool"
        },
        {
          "internalType": "address",
          "name": "voter",
          "type": "address"
        }
      ],
      "name": "voteFake",
      "outputs": [],
      "payable": false,
      "stateMutability": "nonpayable",
      "type": "function"
    },
    {
      "constant": false,
      "inputs": [
        {
          "internalType": "uint256",
          "name": "key",
          "type": "uint256"
        },
        {
          "internalType": "bool",
          "name": "approve",
          "type": "bool"
        }
      ],
      "name": "vote",
      "outputs": [],
      "payable": false,
      "stateMutability": "nonpayable",
      "type": "function"
    },
    {
      "constant": true,
      "inputs": [],
      "name": "getNextVoteFinishedButUntransfered",
      "outputs": [
        {
          "internalType": "uint256",
          "name": "",
          "type": "uint256"
        }
      ],
      "payable": false,
      "stateMutability": "view",
      "type": "function"
    },
    {
      "constant": false,
      "inputs": [
        {
          "internalType": "string",
          "name": "_pullRequestId",
          "type": "string"
        },
        {
          "internalType": "string",
          "name": "_hostingplatform",
          "type": "string"
        }
      ],
      "name": "appliedOnHostingPlatform",
      "outputs": [],
      "payable": false,
      "stateMutability": "nonpayable",
      "type": "function"
    },
    {
      "constant": false,
      "inputs": [
        {
          "internalType": "uint256",
          "name": "pollKey",
          "type": "uint256"
        }
      ],
      "name": "appliedOnHostingPlatform",
      "outputs": [],
      "payable": false,
      "stateMutability": "nonpayable",
      "type": "function"
    },
    {
      "constant": true,
      "inputs": [
        {
          "internalType": "string",
          "name": "_pullRequestId",
          "type": "string"
        },
        {
          "internalType": "string",
          "name": "_hostingplatform",
          "type": "string"
        }
      ],
      "name": "getPollIndex",
      "outputs": [
        {
          "internalType": "uint256",
          "name": "",
          "type": "uint256"
        }
      ],
      "payable": false,
      "stateMutability": "view",
      "type": "function"
    },
    {
      "constant": true,
      "inputs": [
        {
          "internalType": "uint256",
          "name": "key",
          "type": "uint256"
        }
      ],
      "name": "getVotingResult",
      "outputs": [
        {
          "internalType": "bool",
          "name": "",
          "type": "bool"
        }
      ],
      "payable": false,
      "stateMutability": "view",
      "type": "function"
    },
    {
      "constant": true,
      "inputs": [
        {
          "internalType": "string",
          "name": "_pullRequestId",
          "type": "string"
        },
        {
          "internalType": "string",
          "name": "_hostingplatform",
          "type": "string"
        }
      ],
      "name": "getVotingResult",
      "outputs": [
        {
          "internalType": "bool",
          "name": "",
          "type": "bool"
        }
      ],
      "payable": false,
      "stateMutability": "view",
      "type": "function"
    },
    {
      "constant": true,
      "inputs": [],
      "name": "helloWorld",
      "outputs": [
        {
          "internalType": "string",
          "name": "",
          "type": "string"
        }
      ],
      "payable": false,
      "stateMutability": "pure",
      "type": "function"
    },
    {
      "constant": false,
      "inputs": [],
      "name": "activateProduction",
      "outputs": [],
      "payable": false,
      "stateMutability": "nonpayable",
      "type": "function"
    }
  ],
  "bytecode": "0x60806040523480156200001157600080fd5b5060018060006101000a81548160ff021916908315150217905550336001806101000a81548173ffffffffffffffffffffffffffffffffffffffff021916908373ffffffffffffffffffffffffffffffffffffffff1602179055506000604051806101200160405280604051806020016040528060008152508152602001604051806020016040528060008152508152602001604051806020016040528060008152508152602001604051806020016040528060008152508152602001604051806020016040528060008152508152602001600081526020016001151581526020016000815260200160008152509080600181540180825580915050906001820390600052602060002090600b0201600090919290919091506000820151816000019080519060200190620001489291906200020d565b506020820151816001019080519060200190620001679291906200020d565b506040820151816002019080519060200190620001869291906200020d565b506060820151816003019080519060200190620001a59291906200020d565b506080820151816004019080519060200190620001c49291906200020d565b5060a0820151816005015560c08201518160060160006101000a81548160ff02191690831515021790555060e082015181600701556101008201518160090155505050620002bc565b828054600181600116156101000203166002900490600052602060002090601f016020900481019282601f106200025057805160ff191683800117855562000281565b8280016001018555821562000281579182015b828111156200028057825182559160200191906001019062000263565b5b50905062000290919062000294565b5090565b620002b991905b80821115620002b55760008160009055506001016200029b565b5090565b90565b61285980620002cc6000396000f3fe608060405234801561001057600080fd5b50600436106100cf5760003560e01c8063890833551161008c578063ac2f007411610066578063ac2f0074146107f1578063c605f76c14610a68578063c9d27afe14610aeb578063f09ef6e914610b25576100cf565b8063890833551461050757806390de092f14610671578063a34b9da3146107c3576100cf565b80631c0d850e146100d457806327a52f1c1461011a578063331d9fde1461017457806355fe24e3146101925780637dc0d1d01461019c5780637dc131e2146101e6575b600080fd5b610100600480360360208110156100ea57600080fd5b8101908080359060200190929190505050610c8b565b604051808215151515815260200191505060405180910390f35b6101726004803603606081101561013057600080fd5b8101908080359060200190929190803515159060200190929190803573ffffffffffffffffffffffffffffffffffffffff1690602001909291905050506110e4565b005b61017c6111ae565b6040518082815260200191505060405180910390f35b61019a611654565b005b6101a46116d6565b604051808273ffffffffffffffffffffffffffffffffffffffff1673ffffffffffffffffffffffffffffffffffffffff16815260200191505060405180910390f35b610505600480360360c08110156101fc57600080fd5b810190808035906020019064010000000081111561021957600080fd5b82018360208201111561022b57600080fd5b8035906020019184600183028401116401000000008311171561024d57600080fd5b91908080601f016020809104026020016040519081016040528093929190818152602001838380828437600081840152601f19601f820116905080830192505050505050509192919290803590602001906401000000008111156102b057600080fd5b8201836020820111156102c257600080fd5b803590602001918460018302840111640100000000831117156102e457600080fd5b91908080601f016020809104026020016040519081016040528093929190818152602001838380828437600081840152601f19601f8201169050808301925050505050505091929192908035906020019064010000000081111561034757600080fd5b82018360208201111561035957600080fd5b8035906020019184600183028401116401000000008311171561037b57600080fd5b91908080601f016020809104026020016040519081016040528093929190818152602001838380828437600081840152601f19601f820116905080830192505050505050509192919290803590602001906401000000008111156103de57600080fd5b8201836020820111156103f057600080fd5b8035906020019184600183028401116401000000008311171561041257600080fd5b91908080601f016020809104026020016040519081016040528093929190818152602001838380828437600081840152601f19601f8201169050808301925050505050505091929192908035906020019064010000000081111561047557600080fd5b82018360208201111561048757600080fd5b803590602001918460018302840111640100000000831117156104a957600080fd5b91908080601f016020809104026020016040519081016040528093929190818152602001838380828437600081840152601f19601f820116905080830192505050505050509192919290803590602001909291905050506116fb565b005b6106576004803603604081101561051d57600080fd5b810190808035906020019064010000000081111561053a57600080fd5b82018360208201111561054c57600080fd5b8035906020019184600183028401116401000000008311171561056e57600080fd5b91908080601f016020809104026020016040519081016040528093929190818152602001838380828437600081840152601f19601f820116905080830192505050505050509192919290803590602001906401000000008111156105d157600080fd5b8201836020820111156105e357600080fd5b8035906020019184600183028401116401000000008311171561060557600080fd5b91908080601f016020809104026020016040519081016040528093929190818152602001838380828437600081840152601f19601f820116905080830192505050505050509192919290505050611ad4565b604051808215151515815260200191505060405180910390f35b6107c16004803603604081101561068757600080fd5b81019080803590602001906401000000008111156106a457600080fd5b8201836020820111156106b657600080fd5b803590602001918460018302840111640100000000831117156106d857600080fd5b91908080601f016020809104026020016040519081016040528093929190818152602001838380828437600081840152601f19601f8201169050808301925050505050505091929192908035906020019064010000000081111561073b57600080fd5b82018360208201111561074d57600080fd5b8035906020019184600183028401116401000000008311171561076f57600080fd5b91908080601f016020809104026020016040519081016040528093929190818152602001838380828437600081840152601f19601f820116905080830192505050505050509192919290505050611af0565b005b6107ef600480360360208110156107d957600080fd5b8101908080359060200190929190505050611b06565b005b61081d6004803603602081101561080757600080fd5b8101908080359060200190929190505050611cb8565b6040518080602001806020018060200180602001806020018a81526020018915151515815260200188815260200187815260200186810386528f818151815260200191508051906020019080838360005b8381101561088957808201518184015260208101905061086e565b50505050905090810190601f1680156108b65780820380516001836020036101000a031916815260200191505b5086810385528e818151815260200191508051906020019080838360005b838110156108ef5780820151818401526020810190506108d4565b50505050905090810190601f16801561091c5780820380516001836020036101000a031916815260200191505b5086810384528d818151815260200191508051906020019080838360005b8381101561095557808201518184015260208101905061093a565b50505050905090810190601f1680156109825780820380516001836020036101000a031916815260200191505b5086810383528c818151815260200191508051906020019080838360005b838110156109bb5780820151818401526020810190506109a0565b50505050905090810190601f1680156109e85780820380516001836020036101000a031916815260200191505b5086810382528b818151815260200191508051906020019080838360005b83811015610a21578082015181840152602081019050610a06565b50505050905090810190601f168015610a4e5780820380516001836020036101000a031916815260200191505b509e50505050505050505050505050505060405180910390f35b610a70612018565b6040518080602001828103825283818151815260200191508051906020019080838360005b83811015610ab0578082015181840152602081019050610a95565b50505050905090810190601f168015610add5780820380516001836020036101000a031916815260200191505b509250505060405180910390f35b610b2360048036036040811015610b0157600080fd5b8101908080359060200190929190803515159060200190929190505050612055565b005b610c7560048036036040811015610b3b57600080fd5b8101908080359060200190640100000000811115610b5857600080fd5b820183602082011115610b6a57600080fd5b80359060200191846001830284011164010000000083111715610b8c57600080fd5b91908080601f016020809104026020016040519081016040528093929190818152602001838380828437600081840152601f19601f82011690508083019250505050505050919291929080359060200190640100000000811115610bef57600080fd5b820183602082011115610c0157600080fd5b80359060200191846001830284011164010000000083111715610c2357600080fd5b91908080601f016020809104026020016040519081016040528093929190818152602001838380828437600081840152601f19601f820116905080830192505050505050509192919290505050612064565b6040518082815260200191505060405180910390f35b60008060008381548110610c9b57fe5b90600052602060002090600b020190506000816005015411610d08576040517f08c379a00000000000000000000000000000000000000000000000000000000081526004018080602001828103825260268152602001806126c86026913960400191505060405180910390fd5b42816005015410610d64576040517f08c379a00000000000000000000000000000000000000000000000000000000081526004018080602001828103825260218152602001806126ee6021913960400191505060405180910390fd5b6110dc8160405180610120016040529081600082018054600181600116156101000203166002900480601f016020809104026020016040519081016040528092919081815260200182805460018160011615610100020316600290048015610e0d5780601f10610de257610100808354040283529160200191610e0d565b820191906000526020600020905b815481529060010190602001808311610df057829003601f168201915b50505050508152602001600182018054600181600116156101000203166002900480601f016020809104026020016040519081016040528092919081815260200182805460018160011615610100020316600290048015610eaf5780601f10610e8457610100808354040283529160200191610eaf565b820191906000526020600020905b815481529060010190602001808311610e9257829003601f168201915b50505050508152602001600282018054600181600116156101000203166002900480601f016020809104026020016040519081016040528092919081815260200182805460018160011615610100020316600290048015610f515780601f10610f2657610100808354040283529160200191610f51565b820191906000526020600020905b815481529060010190602001808311610f3457829003601f168201915b50505050508152602001600382018054600181600116156101000203166002900480601f016020809104026020016040519081016040528092919081815260200182805460018160011615610100020316600290048015610ff35780601f10610fc857610100808354040283529160200191610ff3565b820191906000526020600020905b815481529060010190602001808311610fd657829003601f168201915b50505050508152602001600482018054600181600116156101000203166002900480601f0160208091040260200160405190810160405280929190818152602001828054600181600116156101000203166002900480156110955780601f1061106a57610100808354040283529160200191611095565b820191906000526020600020905b81548152906001019060200180831161107857829003601f168201915b50505050508152602001600582015481526020016006820160009054906101000a900460ff1615151515815260200160078201548152602001600982015481525050612215565b915050919050565b600160009054906101000a900460ff1661119e576001809054906101000a900473ffffffffffffffffffffffffffffffffffffffff1673ffffffffffffffffffffffffffffffffffffffff163373ffffffffffffffffffffffffffffffffffffffff161461119d576040517f08c379a000000000000000000000000000000000000000000000000000000000815260040180806020018281038252603581526020018061273a6035913960400191505060405180910390fd5b5b6111a983838361222a565b505050565b6000600160009054906101000a900460ff1661126a576001809054906101000a900473ffffffffffffffffffffffffffffffffffffffff1673ffffffffffffffffffffffffffffffffffffffff163373ffffffffffffffffffffffffffffffffffffffff1614611269576040517f08c379a000000000000000000000000000000000000000000000000000000000815260040180806020018281038252603581526020018061273a6035913960400191505060405180910390fd5b5b60004290506000808054905090505b600081111561164a5761128a612561565b6000828154811061129757fe5b90600052602060002090600b020160405180610120016040529081600082018054600181600116156101000203166002900480601f01602080910402602001604051908101604052809291908181526020018280546001816001161561010002031660029004801561134a5780601f1061131f5761010080835404028352916020019161134a565b820191906000526020600020905b81548152906001019060200180831161132d57829003601f168201915b50505050508152602001600182018054600181600116156101000203166002900480601f0160208091040260200160405190810160405280929190818152602001828054600181600116156101000203166002900480156113ec5780601f106113c1576101008083540402835291602001916113ec565b820191906000526020600020905b8154815290600101906020018083116113cf57829003601f168201915b50505050508152602001600282018054600181600116156101000203166002900480601f01602080910402602001604051908101604052809291908181526020018280546001816001161561010002031660029004801561148e5780601f106114635761010080835404028352916020019161148e565b820191906000526020600020905b81548152906001019060200180831161147157829003601f168201915b50505050508152602001600382018054600181600116156101000203166002900480601f0160208091040260200160405190810160405280929190818152602001828054600181600116156101000203166002900480156115305780601f1061150557610100808354040283529160200191611530565b820191906000526020600020905b81548152906001019060200180831161151357829003601f168201915b50505050508152602001600482018054600181600116156101000203166002900480601f0160208091040260200160405190810160405280929190818152602001828054600181600116156101000203166002900480156115d25780601f106115a7576101008083540402835291602001916115d2565b820191906000526020600020905b8154815290600101906020018083116115b557829003601f168201915b50505050508152602001600582015481526020016006820160009054906101000a900460ff16151515158152602001600782015481526020016009820154815250509050828160a0015110801561162b57508060c00151155b1561163b57819350505050611651565b50808060019003915050611279565b5060009150505b90565b600160009054906101000a900460ff166116b9576040517f08c379a00000000000000000000000000000000000000000000000000000000081526004018080602001828103825260288152602001806126556028913960400191505060405180910390fd5b6000600160006101000a81548160ff021916908315150217905550565b6001809054906101000a900473ffffffffffffffffffffffffffffffffffffffff1681565b600160009054906101000a900460ff16611987576001809054906101000a900473ffffffffffffffffffffffffffffffffffffffff1673ffffffffffffffffffffffffffffffffffffffff163373ffffffffffffffffffffffffffffffffffffffff16146117b4576040517f08c379a000000000000000000000000000000000000000000000000000000000815260040180806020018281038252603581526020018061273a6035913960400191505060405180910390fd5b600086511161180e576040517f08c379a000000000000000000000000000000000000000000000000000000000815260040180806020018281038252602481526020018061276f6024913960400191505060405180910390fd5b6000835111611868576040517f08c379a000000000000000000000000000000000000000000000000000000000815260040180806020018281038252602581526020018061267d6025913960400191505060405180910390fd5b60008251116118c2576040517f08c379a000000000000000000000000000000000000000000000000000000000815260040180806020018281038252602b81526020018061270f602b913960400191505060405180910390fd5b42811161191a576040517f08c379a00000000000000000000000000000000000000000000000000000000081526004018080602001828103825260348152602001806127936034913960400191505060405180910390fd5b6000611926868661246a565b90506000816005015414611985576040517f08c379a000000000000000000000000000000000000000000000000000000000815260040180806020018281038252602d8152602001806127f8602d913960400191505060405180910390fd5b505b60006040518061012001604052808881526020018781526020018681526020018581526020018481526020018381526020016000151581526020016000815260200160008152509080600181540180825580915050906001820390600052602060002090600b0201600090919290919091506000820151816000019080519060200190611a159291906125af565b506020820151816001019080519060200190611a329291906125af565b506040820151816002019080519060200190611a4f9291906125af565b506060820151816003019080519060200190611a6c9291906125af565b506080820151816004019080519060200190611a899291906125af565b5060a0820151816005015560c08201518160060160006101000a81548160ff02191690831515021790555060e082015181600701556101008201518160090155505050505050505050565b6000611ae8611ae38484612064565b610c8b565b905092915050565b611b02611afd8383612064565b611b06565b5050565b600160009054906101000a900460ff16611bc0576001809054906101000a900473ffffffffffffffffffffffffffffffffffffffff1673ffffffffffffffffffffffffffffffffffffffff163373ffffffffffffffffffffffffffffffffffffffff1614611bbf576040517f08c379a00000000000000000000000000000000000000000000000000000000081526004018080602001828103825260318152602001806127c76031913960400191505060405180910390fd5b5b6000808281548110611bce57fe5b90600052602060002090600b020190506000816005015411611c3b576040517f08c379a00000000000000000000000000000000000000000000000000000000081526004018080602001828103825260268152602001806126c86026913960400191505060405180910390fd5b42816005015410611c97576040517f08c379a00000000000000000000000000000000000000000000000000000000081526004018080602001828103825260218152602001806126ee6021913960400191505060405180910390fd5b60018160060160006101000a81548160ff0219169083151502179055505050565b60008181548110611cc557fe5b90600052602060002090600b0201600091509050806000018054600181600116156101000203166002900480601f016020809104026020016040519081016040528092919081815260200182805460018160011615610100020316600290048015611d715780601f10611d4657610100808354040283529160200191611d71565b820191906000526020600020905b815481529060010190602001808311611d5457829003601f168201915b505050505090806001018054600181600116156101000203166002900480601f016020809104026020016040519081016040528092919081815260200182805460018160011615610100020316600290048015611e0f5780601f10611de457610100808354040283529160200191611e0f565b820191906000526020600020905b815481529060010190602001808311611df257829003601f168201915b505050505090806002018054600181600116156101000203166002900480601f016020809104026020016040519081016040528092919081815260200182805460018160011615610100020316600290048015611ead5780601f10611e8257610100808354040283529160200191611ead565b820191906000526020600020905b815481529060010190602001808311611e9057829003601f168201915b505050505090806003018054600181600116156101000203166002900480601f016020809104026020016040519081016040528092919081815260200182805460018160011615610100020316600290048015611f4b5780601f10611f2057610100808354040283529160200191611f4b565b820191906000526020600020905b815481529060010190602001808311611f2e57829003601f168201915b505050505090806004018054600181600116156101000203166002900480601f016020809104026020016040519081016040528092919081815260200182805460018160011615610100020316600290048015611fe95780601f10611fbe57610100808354040283529160200191611fe9565b820191906000526020600020905b815481529060010190602001808311611fcc57829003601f168201915b5050505050908060050154908060060160009054906101000a900460ff16908060070154908060090154905089565b60606040518060400160405280601f81526020017f564f54453a2048656c6c6f20576f726c642066726f6d20536f6c696469747900815250905090565b61206082823361222a565b5050565b60008060008054905090505b600081111561220957600080828154811061208757fe5b90600052602060002090600b0201905061213d816001018054600181600116156101000203166002900480601f0160208091040260200160405190810160405280929190818152602001828054600181600116156101000203166002900480156121325780601f1061210757610100808354040283529160200191612132565b820191906000526020600020905b81548152906001019060200180831161211557829003601f168201915b505050505086612497565b80156121eb57506121ea816002018054600181600116156101000203166002900480601f0160208091040260200160405190810160405280929190818152602001828054600181600116156101000203166002900480156121df5780601f106121b4576101008083540402835291602001916121df565b820191906000526020600020905b8154815290600101906020018083116121c257829003601f168201915b505050505085612497565b5b156121fa57819250505061220f565b50808060019003915050612070565b50600090505b92915050565b60008161010001518260e00151119050919050565b600080848154811061223857fe5b90600052602060002090600b0201905060008160050154116122a5576040517f08c379a00000000000000000000000000000000000000000000000000000000081526004018080602001828103825260268152602001806126a26026913960400191505060405180910390fd5b4281600501541161231e576040517f08c379a00000000000000000000000000000000000000000000000000000000081526004018080602001828103825260168152602001807f564f54453a2054686520706f6c6c20657870697265640000000000000000000081525060200191505060405180910390fd5b61232881836124b2565b1561237e576040517f08c379a00000000000000000000000000000000000000000000000000000000081526004018080602001828103825260268152602001806126a26026913960400191505060405180910390fd5b82156123f65760018160070160008282540192505081905550600181600a0160008473ffffffffffffffffffffffffffffffffffffffff1673ffffffffffffffffffffffffffffffffffffffff16815260200190815260200160002060006101000a81548160ff021916908315150217905550612464565b6001816009016000828254019250508190555060018160080160008473ffffffffffffffffffffffffffffffffffffffff1673ffffffffffffffffffffffffffffffffffffffff16815260200190815260200160002060006101000a81548160ff0219169083151502179055505b50505050565b6000806124778484612064565b8154811061248157fe5b90600052602060002090600b0201905092915050565b60008180519060200120838051906020012014905092915050565b60008260080160008373ffffffffffffffffffffffffffffffffffffffff1673ffffffffffffffffffffffffffffffffffffffff16815260200190815260200160002060009054906101000a900460ff1680612559575082600a0160008373ffffffffffffffffffffffffffffffffffffffff1673ffffffffffffffffffffffffffffffffffffffff16815260200190815260200160002060009054906101000a900460ff165b905092915050565b60405180610120016040528060608152602001606081526020016060815260200160608152602001606081526020016000815260200160001515815260200160008152602001600081525090565b828054600181600116156101000203166002900490600052602060002090601f016020900481019282601f106125f057805160ff191683800117855561261e565b8280016001018555821561261e579182015b8281111561261d578251825591602001919060010190612602565b5b50905061262b919061262f565b5090565b61265191905b8082111561264d576000816000905550600101612635565b5090565b9056fe564f54453a2050726f64756374696f6e204d6f646520697320616c7265616479206163746976652e564f54453a20546865207469746c65206e6565647320746f2062652070726f76696465642e564f54453a2054686520726571756972656420706f6c6c20646f6573206e6f74206578697374564f54453a205468652070756c6c207265717565737420646f6573206e6f742065786973742e564f54453a205468652070756c6c20686173206e6f7420656e646564207965742e564f54453a20546865206465736372697074696f6e206e6565647320746f2062652070726f76696465642e564f54453a204f6e6c7920746865206f7261636c652063616e207472616e73666572206e65772070756c6c2072657175657374732e564f54453a20546865206c696e6b206e6565647320746f2062652070726f76696465642e564f54453a2054686520656e64206f662074686520766f7465206e6565647320746f20626520696e20746865206675747572652e564f54453a204f6e6c7920746865206f7261636c6520697320616c6c6f77656420746f20706572666f726d20746869732e564f54453a205468652070756c6c207265717565737420697320616c7265616479207472616e7366657265642ea265627a7a7231582000c26b9a13cb632e9bf4082b2d4a43510a1c9e0f066299819236fe95684264d164736f6c63430005100032",
  "source": "pragma solidity >=0.4.22 <0.7.0;\r\n\r\n\r\n/** \r\nSmart Contract for the Project https://github.com/flensburger88/DemocraticVotes\r\n */\r\ncontract DemocraticBallot {\r\n\r\n    /**\r\n     * @dev a poll defines the decision and voting state of a pull request. It stores all information of the poll itself\r\n      \r\n     */\r\n     struct Poll {\r\n        string pullRequestLink;  // link to the pull request on the hosting provider web ui\r\n        string pullRequestId;    // technical id of the pull request on the hosting platform\r\n        string hostingplatform;  // the name of the hosting platform, where the pull request is happening\r\n        string title;            // title of the poll / title of the pull request\r\n        string description;      // description of the poll / text of the pull request\r\n        uint voteEnd;            // timepoint of the vote to end \r\n        bool isTransferd ;       // specifies, if the pull request is already applied on the hosting platform\r\n        \r\n        uint votersApproveCount; // counts the amount of voters who approve the pull request\r\n        mapping(address => bool) votersDeny; // all the voters, who approved the pull request\r\n        uint votersDenyCount;   // counts the amount of voters who deny the pull request\r\n        mapping(address => bool) votersApprove; // all the voters, who denied the pull request\r\n    }\r\n\r\n    /**\r\n     * @dev contains all polls that are executed during the livetime of this smart contract\r\n     * @dev Index 0 is the default empty poll. Defined in constructor\r\n     */\r\n    Poll[] public polls;\r\n    \r\n    bool internal devMode;\r\n    \r\n    /**\r\n     * @dev Defines the oracle account. Its the only account with more privilidges\r\n     */\r\n    address public oracle;\r\n\r\n\r\n    /** \r\n     * @dev Create a new ballot to choose one of 'proposalNames'.\r\n     */\r\n    constructor() public {\r\n        devMode = true;\r\n        oracle = msg.sender;\r\n        polls.push(Poll({\r\n            pullRequestLink    :   \"\" ,\r\n            pullRequestId      :   \"\" ,\r\n            hostingplatform    :   \"\" ,\r\n            title              :   \"\" ,\r\n            description        :   \"\" ,\r\n            voteEnd            :   0 ,\r\n            votersDenyCount    :   0,\r\n            votersApproveCount :   0,\r\n            isTransferd        :   true\r\n        }));\r\n    }\r\n\r\n        \r\n    /** \r\n     * @dev Submit a new pull request into the voting database\r\n     * @param _pullRequestLink link to the pull request on the hosting provider web ui\r\n     * @param _pullRequestId       technical id of the pull request on the hosting platform\r\n     * @param _hostingplatform     the name of the hosting platform, where the pull request is happening\r\n     * @param _title               title of the poll / title of the pull request\r\n     * @param _description         description of the poll / text of the pull request\r\n     * @param _voteEnd               timepoint of the vote to end \r\n     */\r\n    function submitNewPoll(string memory _pullRequestLink, string memory _pullRequestId, string memory _hostingplatform, string memory _title, string memory _description, uint _voteEnd) public {\r\n        if(!devMode){\r\n            require(\r\n                msg.sender == oracle,\r\n                \"VOTE: Only the oracle can transfer new pull requests.\"\r\n            );\r\n            require(\r\n                bytes(_pullRequestLink).length > 0,\r\n                \"VOTE: The link needs to be provided.\"\r\n            );\r\n            require(\r\n                bytes(_title).length > 0,\r\n                \"VOTE: The title needs to be provided.\"\r\n            );\r\n            require(\r\n                bytes(_description).length > 0,\r\n                \"VOTE: The description needs to be provided.\"\r\n            );\r\n            require(\r\n                _voteEnd > now,\r\n                \"VOTE: The end of the vote needs to be in the future.\"\r\n            );\r\n            \r\n            Poll storage poll = getPoll(_pullRequestId, _hostingplatform);\r\n            \r\n            \r\n            require(\r\n                poll.voteEnd == 0 ,\r\n                \"VOTE: The pull request is already transfered.\"\r\n            );\r\n        }\r\n\r\n        \r\n        polls.push(Poll({\r\n            pullRequestLink    :\t _pullRequestLink ,\r\n            pullRequestId      :   _pullRequestId ,\r\n            hostingplatform    :   _hostingplatform ,\r\n            title              :   _title ,\r\n            description        :   _description ,\r\n            voteEnd            :   _voteEnd ,\r\n            votersDenyCount    :   0,\r\n            votersApproveCount :   0,\r\n            isTransferd        :  false\r\n        }));\r\n        \r\n    }\r\n\r\n    \r\n    /**\r\n     * @dev checks wether a given adress is already included in the list of voters.\r\n     * @param poll The poll to check against\r\n     * @param user the user adress to check for\r\n     */\r\n    function hasVoted(Poll storage poll, address user) view private returns (bool) {\r\n        return poll.votersDeny[user] || poll.votersApprove[user];\r\n    }\r\n\r\n    /**\r\n     * @dev Allows to perform a vote. The current user will be taken as executor.\r\n     * @param key the pull request index to vote for / can be received via getKey getPollIndex\r\n     * @param approve true means to acceppt the pull request, false it should be declined\r\n     */\r\n    function vote(uint key, bool approve) public {\r\n        vote(key, approve, msg.sender);\r\n    }\r\n    /**\r\n     * @dev This is a fake voting method, to test this smart contract without having to many accounts. It should be deactivated in productive use\r\n     * @param key the pull request index to vote for / can be received via getKey getPollIndex\r\n     * @param approve true means to acceppt the pull request, false it should be declined\r\n     * \r\n     */\r\n    function voteFake(uint key, bool approve, address voter) public {\r\n        if(!devMode){\r\n            require(\r\n                msg.sender == oracle,\r\n                \"VOTE: Only the oracle can transfer new pull requests.\"\r\n            );\r\n        }\r\n\r\n        vote(key, approve, voter);\r\n    }\r\n    \r\n    /**\r\n     * @dev This is the internal voting method, to test this smart contract without having to many accounts. It should be deactivated in productive use\r\n     * @param key the pull request index to vote for / can be received via getKey getPollIndex\r\n     * @param approve true means to acceppt the pull request, false it should be declined\r\n     * @param voter the address that should perform the vote. normaly a user block.\r\n     * \r\n     */\r\n    function vote(uint key, bool approve, address voter) private {\r\n        Poll storage poll = polls[key];\r\n        require(\r\n            poll.voteEnd > 0,\r\n            \"VOTE: The required poll does not exist\"\r\n        );\r\n        require(\r\n            poll.voteEnd > now,\r\n            \"VOTE: The poll expired\"\r\n        );\r\n        require(\r\n            !hasVoted(poll, voter),\r\n            \"VOTE: The required poll does not exist\"\r\n        );\r\n        \r\n        if(approve){\r\n            poll.votersApproveCount += 1;\r\n            poll.votersApprove[voter] = true;\r\n        }else{\r\n            poll.votersDenyCount += 1;\r\n            poll.votersDeny[voter] = true;\r\n        }\r\n    }\r\n    \r\n    \r\n     /**\r\n     * @dev Returns the next finished vote, that was not yet transfered to the hosting platform, returns 0 if noone is found\r\n     */\r\n    function getNextVoteFinishedButUntransfered() view public returns (uint){\r\n        if(!devMode){\r\n            require(\r\n                msg.sender == oracle,\r\n                \"VOTE: Only the oracle can transfer new pull requests.\"\r\n            );\r\n        }\r\n        \r\n        uint currentTime = now;\r\n        \r\n         for (uint i = polls.length; i > 0; i--) {\r\n             Poll memory poll = polls[i];\r\n             if(poll.voteEnd < currentTime && !poll.isTransferd){\r\n                 return i;\r\n             }\r\n             \r\n        }\r\n        return 0;\r\n    }\r\n    \r\n    \r\n   \r\n     /**\r\n     * @dev marks a poll as applied on the hosting platform\r\n     * @param pollKey The index of the poll to mark as transferred\r\n     */\r\n    function appliedOnHostingPlatform(uint pollKey) public {\r\n        if(!devMode){\r\n            require(\r\n                msg.sender == oracle,\r\n                \"VOTE: Only the oracle is allowed to perform this.\"\r\n            );\r\n        }\r\n\r\n        Poll storage poll = polls[pollKey];\r\n        \r\n        require(\r\n            poll.voteEnd > 0,\r\n            \"VOTE: The pull request does not exist.\"\r\n        );\r\n        require(\r\n            poll.voteEnd < now,\r\n            \"VOTE: The pull has not ended yet.\"\r\n        );\r\n        \r\n        poll.isTransferd = true;\r\n\r\n    }\r\n    \r\n     /**\r\n     * @dev marks a poll as applied on the hosting platform\r\n     * @param _pullRequestId       technical id of the pull request on the hosting platform\r\n     * @param _hostingplatform     the name of the hosting platform, where the pull request is happening\r\n     */\r\n    function appliedOnHostingPlatform(string memory _pullRequestId, string memory _hostingplatform) public {\r\n        appliedOnHostingPlatform(getPollIndex(_pullRequestId, _hostingplatform));\r\n    }\r\n\r\n     /**\r\n     * @dev searches for the poll index of a given poll\r\n     * @param _pullRequestId       technical id of the pull request on the hosting platform\r\n     * @param _hostingplatform     the name of the hosting platform, where the pull request is happening\r\n     */\r\n    function getPollIndex(string memory _pullRequestId, string memory _hostingplatform) view public returns (uint) {\r\n        for (uint i = polls.length; i > 0; i--) {\r\n             Poll storage poll = polls[i];\r\n             if(equals( poll.pullRequestId, _pullRequestId) && equals(poll.hostingplatform , _hostingplatform)){\r\n                 return i;\r\n             }\r\n        }\r\n        return 0;\r\n    }\r\n    \r\n     /**\r\n     * @dev searches for the a poll based on the public information\r\n     * @param _pullRequestId       technical id of the pull request on the hosting platform\r\n     * @param _hostingplatform     the name of the hosting platform, where the pull request is happening\r\n     */\r\n    function getPoll(string memory _pullRequestId, string memory _hostingplatform) view internal returns (Poll  storage) {\r\n        return polls[getPollIndex(_pullRequestId, _hostingplatform)];\r\n    }\r\n    \r\n    /**\r\n     * @dev Compares two strings with each other, true if they are equal\r\n     */\r\n    function equals(string memory a, string memory b) pure internal returns (bool){\r\n        return keccak256(bytes(a)) == keccak256(bytes(b));\r\n    }\r\n    \r\n    \r\n    \r\n    /**\r\n     * @dev calculates the voting result in the database\r\n     * @param _pullRequestId       technical id of the pull request on the hosting platform\r\n     * @param _hostingplatform     the name of the hosting platform, where the pull request is happening\r\n     */\r\n    function getVotingResult(string memory _pullRequestId, string memory _hostingplatform) view public returns (bool) {\r\n        return getVotingResult(getPollIndex(_pullRequestId, _hostingplatform));\r\n    }\r\n    \r\n    /**\r\n     * @dev calculates the voting result in the database\r\n     * @param key The index of the poll to mark as transferred\r\n     */\r\n    function getVotingResult(uint key) view public returns (bool) {\r\n        Poll storage poll = polls[key];\r\n        \r\n        require(\r\n            poll.voteEnd > 0,\r\n            \"VOTE: The pull request does not exist.\"\r\n        );\r\n        require(\r\n            poll.voteEnd < now,\r\n            \"VOTE: The pull has not ended yet.\"\r\n        );\r\n        \r\n        return calcVotingResultMajority(poll);\r\n    }\r\n\r\n     /**\r\n     * @dev calculates the voting result based on a poll / true means more positve than negative voices\r\n     * @param poll the poll that the result should be calculated against.\r\n     */\r\n    function calcVotingResultMajority(Poll memory poll) pure internal returns (bool) {\r\n       return poll.votersApproveCount > poll.votersDenyCount;\r\n    }\r\n\r\n    \r\n        \r\n     /**\r\n     * @dev simple hello world for testing\r\n     */\r\n    function helloWorld() pure public returns (string memory){\r\n        return \"VOTE: Hello World from Solidity\";\r\n        \r\n    }\r\n\r\n     /**\r\n     * @dev simple hello world for testing\r\n     */\r\n    function activateProduction() public {\r\n        require(\r\n            devMode,\r\n            \"VOTE: Production Mode is already active.\"\r\n        );\r\n        \r\n        devMode = false;\r\n    }\r\n\r\n}\r\n",
  "sourcePath": "C:/Users/t.ulrich/Documents/DemocraticVotes/contracts/DemocraticBallot.sol",
  "compiler": {
    "name": "solc",
    "version": "0.5.16+commit.9c3226ce.Emscripten.clang"
  },
  "schemaVersion": "3.2.4",
  "updatedAt": "2020-09-09T17:37:27.089Z",
  "networkType": "ethereum",
  "devdoc": {
    "methods": {
      "activateProduction()": {
        "details": "simple hello world for testing"
      },
      "appliedOnHostingPlatform(string,string)": {
        "details": "marks a poll as applied on the hosting platform",
        "params": {
          "_hostingplatform": "the name of the hosting platform, where the pull request is happening",
          "_pullRequestId": "technical id of the pull request on the hosting platform"
        }
      },
      "appliedOnHostingPlatform(uint256)": {
        "details": "marks a poll as applied on the hosting platform",
        "params": {
          "pollKey": "The index of the poll to mark as transferred"
        }
      },
      "constructor": {
        "details": "Create a new ballot to choose one of 'proposalNames'."
      },
      "getNextVoteFinishedButUntransfered()": {
        "details": "Returns the next finished vote, that was not yet transfered to the hosting platform, returns 0 if noone is found"
      },
      "getPollIndex(string,string)": {
        "details": "searches for the poll index of a given poll",
        "params": {
          "_hostingplatform": "the name of the hosting platform, where the pull request is happening",
          "_pullRequestId": "technical id of the pull request on the hosting platform"
        }
      },
      "getVotingResult(string,string)": {
        "details": "calculates the voting result in the database",
        "params": {
          "_hostingplatform": "the name of the hosting platform, where the pull request is happening",
          "_pullRequestId": "technical id of the pull request on the hosting platform"
        }
      },
      "getVotingResult(uint256)": {
        "details": "calculates the voting result in the database",
        "params": {
          "key": "The index of the poll to mark as transferred"
        }
      },
      "helloWorld()": {
        "details": "simple hello world for testing"
      },
      "submitNewPoll(string,string,string,string,string,uint256)": {
        "details": "Submit a new pull request into the voting database",
        "params": {
          "_description": "description of the poll / text of the pull request",
          "_hostingplatform": "the name of the hosting platform, where the pull request is happening",
          "_pullRequestId": "technical id of the pull request on the hosting platform",
          "_pullRequestLink": "link to the pull request on the hosting provider web ui",
          "_title": "title of the poll / title of the pull request",
          "_voteEnd": "timepoint of the vote to end "
        }
      },
      "vote(uint256,bool)": {
        "details": "Allows to perform a vote. The current user will be taken as executor.",
        "params": {
          "approve": "true means to acceppt the pull request, false it should be declined",
          "key": "the pull request index to vote for / can be received via getKey getPollIndex"
        }
      },
      "voteFake(uint256,bool,address)": {
        "details": "This is a fake voting method, to test this smart contract without having to many accounts. It should be deactivated in productive use",
        "params": {
          "approve": "true means to acceppt the pull request, false it should be declined \r",
          "key": "the pull request index to vote for / can be received via getKey getPollIndex"
        }
      }
    }
  },
  "userdoc": {
    "methods": {},
    "notice": "Smart Contract for the Project https://github.com/flensburger88/DemocraticVotes"
  }
}